:100000000C9465020C9482020C949D020C94820262
:100010000C9482020C9482020C948A290C94820221
:100020000C9482020C9482020C9482020C94820240
:100030000C9482020C9482020C9414290C94820277
:100040000C9482020C9482020C9482020C94820220
:100050000C9482020C9482020C9482020C94820210
:100060000C9482020C9482025D0B5D0B8D0B8D0B48
:10007000260C440C8A0D8A0D4F0CC20CD50CD50CE5
:10008000AF13C513CF13DF15DF1508141F142E147B
:100090006C1471149A14BE14F314F61403150F158E
:1000A00025155D156E159415B615FD377A585A004D
:1000B0000004E6D6B4460200210116000000742FA9
:1000C000E5A3E000A000815D003D8889C65436C3E9
:1000D000174FE4E46873BE9BC85ADE4DB47AB16131
:1000E000AF4BA30DF1A3877D1E59F9471A03ADE667
:1000F0006DBE1B698AA17B81EC5B92F466887205F8
:10010000E07ED03D2496ACBFE5961B86D98CC232EA
:10011000EF058BB41FCEB4EB56184F863DB38F7DE1
:100120008524FB1AED6363531F209F9A2FE4669E7C
:10013000544E9B8231981322720DD497DBF13868AC
:1001400029D07E6497A3FF98A1FF000000006832C9
:1001500060CC9358828900019D01A1010000A7ECA9
:10016000D8ABB1C467FB020000000004595A015328
:10017000AC00AE00AB0049000153AC00AE00AB00D8
:100180004900010001009702E21B141C000002005C
:1001900002009302E21B141C0000030001009802FD
:1001A000E21B141C0000040002007D02E21B141C70
:1001B0005B1B050001009902E21B141C00000600F5
:1001C00002007F02E21B141C0000070002009502DF
:1001D000E21B141C0000080001009A02E21B141C20
:1001E0000000090002008102E21B141C361B0A00F9
:1001F00002008302E21B141C361B0B000200850266
:10020000E21B141C361B0C0002008702E21B141CAC
:10021000361B0D0002008902E21B141C361B0E0067
:1002200002008B02E21B141C361B0F0002008D0221
:10023000E21B141C361B100002008F02E21B141C70
:10024000361B110002009102E21B141C361B120027
:1002500002009B02E21B141C0000130002009D021E
:10026000E21B141C0000140001009F02E21B141C7E
:100270000000150000000000AF1A641B000005011B
:100280000902A10185020901A10005091901290836
:100290001500250195087501810205010930093114
:1002A0001581257F95027508810609381581257FFE
:1002B000950175088106050C0A38021581257F9580
:1002C0000175088106C0C005010980A101850319D7
:1002D000012AB700150126B700950175108100C0ED
:1002E000050C0901A101850419012AA002150126A6
:1002F000A002950175108100C00660FF0961A1018F
:100300000962150026FF0095207508810209631512
:100310000026FF00952075089102C005010906A17D
:1003200001050719E029E7150025019508750181E8
:10033000029501750881030507190029FF1500269C
:10034000FF00950675088100050819012905950526
:1003500075019102950175039103C01C0376006934
:100360000061006C003A0066003600340063003221
:10037000006200330063000000100350006C006155
:1003800000790065007200210000001C036A006F04
:100390000068006E0062006F00790073006D006FEE
:1003A000006F007400680000000403090409025B88
:1003B00000030100A0FA0904000001030101000983
:1003C0002101010001224000070581030800010905
:1003D00004010002030000000921010100012222A2
:1003E000000705840308000107050403080001094C
:1003F0000402000103000000092101010001227B29
:100400000007058303080001120110010000000825
:10041000A020E242100101020301000000000000E0
:1004200000000000000000000000000000000000CC
:1004300000000000000000000000000000007E0F2F
:1004400000D4FFFFFFC7000000780000000000009C
:1004500000002A2B2800000000000000000000001F
:10046000000000000029000000002C1E3420212282
:1004700024342627252E362D3738271E1F202122EB
:10048000232425263333362E37381F040506070864
:10049000090A0B0C0D0E0F10111213141516171854
:1004A000191A1B1C1D2F3130232D35040506070892
:1004B000090A0B0C0D0E0F10111213141516171834
:1004C000191A1B1C1D2F3130354C11241FBECFEFC4
:1004D000D8E0DEBFCDBF11E0A0E0B1E0EAE3F6E690
:1004E00002C005900D92AC36B107D9F725E0ACE615
:1004F000B1E001C01D92A83BB207E1F70E94F40DE4
:100500000C941B330C940000A82FB92F80E090E0CE
:1005100041E050EA609530E009C02D91822797951F
:10052000879510F084279527305EC8F36F5FA8F396
:100530000895EADF8D939D930895CF93CFB7CF931E
:10054000DF93C3954B9BE9F74B9B10C04B9B0EC0B1
:100550004B9B0CC04B9B0AC04B9B08C04B9B06C0DF
:10056000C0916C05C395C0936C058EC06F93C0910C
:100570009205DD27CB56DA4F2F9365E54B9B03C0E1
:100580002F916F91E1CF0F931F934F9320E040E1A4
:100590005F9309B10C7003FB27F93F9350E03BE0F8
:1005A00039C01C7040642F77012F5F5F1EC0406808
:1005B00019B11C702F7752501FC0406409B12F77BA
:1005C0000C70D1F15F5F00C023C0406219B12F777A
:1005D0001C7091F15F5F00C025C00C701027515056
:1005E00012F45D5F0000115027952C3F19B1C8F639
:1005F0001C700127015027952C3FC8F642274993CC
:1006000009B10C7010274F73115027952C3FA8F695
:100610004695469519B11C7079F001270150279530
:100620002C3F98F66B5A60F3315009B1B0F600C018
:1006300012E01CBB00271CC03B503195C31BD040AF
:1006400012E01CBB0881033C21F10B3411F1209115
:1006500090051981110F1213EDCF4A81441F0936FD
:1006600079F10D3211F0013E29F74F7009F0042F96
:100670000093B7053F915F914F911F910F912F917B
:100680006F91CCB3C1FD5DCFDF91CF91CFBFCF9143
:1006900018952091B705222369F310919305112332
:1006A00009F049C034300AF448C0309393052093D0
:1006B0009105109192053BE0311B309392053DC0AE
:1006C000009193050130BCF50AE54F7049F4309173
:1006D0001C0134FD33C000931C01CDE6D5E032C0CF
:1006E000433059F0443091F03091780534FD26C004
:1006F00000937805C9E7D5E025C03091AB0534FDFE
:100700001DC00093AB05CCEAD5E01CC03091840538
:1007100034FD14C000938405C5E8D5E013C0052757
:1007200010E000C000000BB91AC0052710E0221F1E
:100730001DC010E021C04AE502C032ED432FC4E1E4
:10074000D0E032E01AB11C605B9A0BB11AB95CE0E0
:1007500020E865E320FF05270BB9279517951C3F77
:10076000F0F66695B8F7B1F720FF05270BB9279586
:1007700017951C3FD0F62795179517FF0527000002
:100780001C3F0BB9B0F629913A9519F7037F1091E8
:100790009405110FC651D0400BB911F0109390057C
:1007A00012E01CBB08601AB1137F402F437F54E056
:1007B0005A95F1F70BB91AB94BB95CCF2F923F920A
:1007C0004F925F926F927F928F929F92AF92BF9261
:1007D000CF92DF92EF92FF920F931F93CF93DF930D
:1007E000CDB7DEB72C970FB6F894DEBF0FBECDBFE6
:1007F0007C01DC0113964D915C91149711966C91DC
:1008000011978C910E94871D81110C94DB0D61E082
:10081000C7010E949E2F8C01F7018281811106C0C1
:10082000D70112963C9031103EC083C680910D01D5
:1008300090910E010196A1F371EAC72E73E0D72EB5
:10084000A12CB12C9924939480910D0190910E01CB
:100850008A159B052CF3F60186818823E9F08185B2
:1008600092850817190739F480919F039091A0038E
:100870000817190789F0D6011F969C921F971C969E
:100880001C930E931B97C6010E94592AC601069617
:100890000E94122A10929E03BFEFAB1ABB0AE6E138
:1008A000CE0ED11CD1CFC80182519F45409708F090
:1008B000AFC08FEF93E00E948C32811127C60251A6
:1008C0006FE4A62EBB24B394002379F0A114F4E0C6
:1008D000BF0609F41BC6C5010E948C32811101C0FC
:1008E00001502FEFA21AB20AEFCF19821A821B828F
:1008F0001C82CC24CA9485010F5F1F4FC5010E9442
:100900008C3289831A82882309F400C6813009F069
:100910007AC0450132E0830E911CC8010E948C32DE
:10092000D82E8A83882309F4F1C58FEF8D0D83308B
:1009300050F40E5F1F4FC4010E948C328B838111D3
:1009400062C05801D8CF8BEF8D0D833070F5350123
:1009500043E0640E711CC4010E948C328B838111B0
:1009600002C08301EECF85010C5F1F4FC3010E94BF
:100970008C328C83882329F32B813C8121305FEFDB
:10098000350718F0922F80E001C0C901A6E0DA1601
:1009900031F0B7E0DB1631F00E949623D2CF0E94EF
:1009A0006523CFCF0E94DC22CCCFE4E0DE1611F02D
:1009B0008401C7CFC4010E948C32D82E85010C5F00
:1009C0001F4FC50103960E948C32DD2009F49EC59D
:1009D000882309F49BC5282F30E021503109C29E9D
:1009E000A001C39E500D11248D2D90E00197840F1E
:1009F000951F019708F4A5CFAFE9BFE01197F1F774
:100A000000C00000F6CFCE0101960E94C22E99CF01
:100A10000031EFE51E0731F00131FFE51F07A9F4B2
:100A200082E001C081E00E94BC160E941C276EC5B6
:100A3000680127E5D21A3FEFC316D10409F008F484
:100A400087C5F70132803320D1F00F35FDE51F0750
:100A500061F000362DE5120761F00E353DE5130714
:100A600071F480910001811104C081E08093000144
:100A70004DC51092000180E00E94F71C47C580918F
:100A80000001811108C0C80197558F3F910509F0F9
:100A900008F47AC1CDC1480140EE841A9108209033
:100AA000680580916205282A80919D01282A58E0D6
:100AB0008516910480F498012770332781E090E037
:100AC00001C0880F2A95EAF7332011F0282A18C0B0
:100AD0008095282215C0332009F416C110936F01A8
:100AE00000936E010E944929609372027093730211
:100AF000809374029093750210927A021092790298
:100B0000D7018D919C910E944D1621E030E0F901B2
:100B100002C0EE0FFF1F8A95E2F7FC87EB8720915A
:100B20007B0230917C0238872F8340916E01509177
:100B30006F015A8749871D82432C512C5D81E52F17
:100B4000F0E0EE0FFF1FEC5EFC4FC080D180C114BF
:100B5000D10409F4F0C0211005C0D60112968C9181
:100B60008111CEC0F601838190E02B853C858223E4
:100B70009323892B09F4C4C08085982F977009F4BA
:100B800087E038E08316910440F4332019F081FDAA
:100B900009C0B6C082FD06C0B3C0332009F4B0C09E
:100BA00080FFAEC0D601AD90BC900A151B0519F4AC
:100BB000332009F4A5C0EF81F885CE16DF0609F4CD
:100BC0009FC0D6011D96ED91FC911E97309721F0A4
:100BD0008081882309F494C0622DC6010E94671D9C
:100BE000882309F48DC00A151B0511F4320102C0D7
:100BF000612C712CB62DB170BE8381E0A114B104BB
:100C000041F0B11106C0E985FA85AE16BF0609F0BC
:100C100080E080FF75C080E00E94F71CD0927C02CB
:100C2000C0927B0281E080937802D60115968C9168
:100C300080937602BE81B11113C0AB2889F0F60112
:100C4000808191819C0124503109213A310530F491
:100C5000682F8DE891E00E94B32902C00E941F17FF
:100C6000D6011696AD90BC901797C5019A9581153F
:100C70009F4110F4E0EEBE2255245394C501019724
:100C8000853A9D4508F0512CD6011996ED91FC91BD
:100C90001A97309739F01B966D917C911C9781E0E3
:100CA00009955822552029F1F601868197810E94E5
:100CB000133280937702C501F8E08F16910418F47F
:100CC0000E94A61C16C00497813A910530F46A2D43
:100CD0008DE891E00E94C0290EC00E94C82D8FE3CC
:100CE0009CE90197F1F700C000008A2D0E9451177E
:100CF00002C00E94C82D91E0692660FE79C1C3CE72
:100D0000AD81AF5FAD831ACF80916E0190916F017D
:100D10000817190781F410926F0110926E0110925A
:100D20007202109273021092740210927502109265
:100D30007A021092790280917B0290917C02009756
:100D400009F4A1CEB8E08B16910438F4622D0E940C
:100D5000671D811198CE81E014C0FC012081318192
:100D60000217130729F4311006C01092780208C048
:100D7000332009F488CEDC0118968C9185FD83CE52
:100D800080E00E94F71C7FCE20910D0130910E0172
:100D90002817390724F490930E0180930D01F70171
:100DA000228136E1389F5001399FB00C1124A501F2
:100DB0004F555C4F6A01DA0150962C9350979281FF
:100DC00016968C911697992341F11A961C930E93BF
:100DD00019978F5F16968C930E945529F601968776
:100DE000858780916805878390919E0380919D01FE
:100DF000892B80870190F081E02D309749F0D60152
:100E000054966D917C915597C50189559C4F0995D4
:100E10001093A00300939F030BC0882349F0FA01AD
:100E20008189882329F0C50189559C4F0E94122A87
:100E30008091980280FF9DC00E9455296C01D701C6
:100E400012968C918823D9F18091190182FF08C0F4
:100E500026E731E040E0B60180E090E00E94341FD8
:100E60000B31BCE51B0779F00C31ECE51E0789F06E
:100E70000A31FCE51F07A1F480911901982F909584
:100E800090FB80F909C0809119018160809319015C
:100E900007C0809119018E7F809319010E94F71E6F
:100EA000C8019056811520E2920720F0905E8115CE
:100EB000904180F51092C1011092C0015AC0013ECC
:100EC000110521F4809119018F7E06C0053E1105A0
:100ED00031F4809119018F7D809319011BC0C801E5
:100EE0009056811540E2940720F0905E8115904164
:100EF00088F48091190182FF3CC080919A0281FDA3
:100F000038C026E731E040E0B60180E090E00E9482
:100F1000341F2FC08091190180FF2BC0D70112967A
:100F20008C910832110538F40E311105B8F40430F3
:100F3000110578F41CC00933110538F40D32110580
:100F400090F40B32110579F012C00436110559F0F6
:100F50000EC09091980294FD0AC04DC090919802E5
:100F600093FD05C048C09091980292FF44C0811142
:100F7000EFC0033FFCE51F0709F417C108F01BC1D0
:100F8000083D3CE5130709F40AC1093D4CE5140787
:100F900009F42DC1073D5CE5150709F4FAC0D70136
:100FA00012962C9121112CC10631BCE51B0709F0CA
:100FB0008EC280919D01982F9A7A3091970230FDD0
:100FC0005FC231FD63C232FD67C233FD6BC22223B3
:100FD00009F471C281E0911101C080E08093700139
:100FE000992309F466C265E38DE891E00E94C02967
:100FF0000E94C82D8BC2882309F4A3C020919D01B3
:1010000080916805982F922B392F3D7F79F11092AE
:10101000C1011092C0013091980231FD27C0F80142
:1010200043E0F695E7954A95E1F7EE71FF27E25622
:10103000FE4F98012F70332781E090E002C0880FA7
:10104000991F2A95E2F7809590952081318182231E
:10105000932391838083A70160E0C8010E94151F3C
:10106000809168058D7F0E94372D67C038E0F701B9
:10107000A6E7B1E001900D923A95E1F71092780160
:1010800010927A01109279014091C0015091C101F2
:1010900004171507D1F53091980235FF36C04091FD
:1010A000190141FF02C036FF30C04091BE0150918E
:1010B000BF01B601641B750B4091950250919602D9
:1010C0006417750710F521FF08C080911901806130
:1010D0008093190182E00E94522D80919D0185FF2D
:1010E00008C08091190180628093190180E20E94FA
:1010F000522D6091190166956170A7018091C00120
:101100009091C1010E94151F01C296959170209186
:10111000190190FB21F9209319018D7F0E94372D31
:101120001093C1010093C001D092BF01C092BE01D3
:101130008091190184608093190182E00E94662DDC
:10114000E5C1970140E0B601C8010E94341FDEC12D
:101150001092C1011092C001033FBCE51B0729F1A9
:1011600070F4083DFCE51F07D1F0093D2CE512079E
:10117000F1F1073D3CE5130709F042C00AC0053F05
:101180004CE5140719F1E0F0063F8CE5180749F12A
:1011900037C006E221EE41EE67ED7CE52DC007E2A7
:1011A00025EE45EE68ED7CE527C006E221EE40EE37
:1011B00063EF7CE521C0053F8CE5180739F060F44A
:1011C00007E225EE44EE64EF7CE516C006E221EE70
:1011D00042EE65EF7CE510C0063FACE51A0709F06A
:1011E000DECE07E225EE46EE66EF7CE505C008E2BE
:1011F00021E045EE69ED7CE5C7010E942F1C86C108
:101200001092A3020330BDE51B0758F40A3FECE53A
:101210001E0780F4C80182509C45449708F02EC1F7
:1012200009C00136FDE51F0729F0053A2DE5120733
:1012300009F024C10E94B12C90939C0180939B01E2
:1012400001313CE5130709F4C6C008F042C009307B
:101250005CE5150709F49BC000F505309CE519070E
:1012600009F485C078F40330BCE51B0709F478C0A5
:1012700008F07AC002301C4509F0F7C080919B014C
:101280008160F1C007302CE5120709F478C008F03E
:101290007AC080919B018061E6C00D304CE5140757
:1012A00009F487C058F40B308CE5180709F479C0AD
:1012B00008F07BC080919B0188606FC00F30ACE567
:1012C0001A0709F480C008F082C080919B01877FD3
:1012D000CAC00D3FECE51E0709F471C000F50531E9
:1012E0002CE5120709F485C068F403314CE51407B6
:1012F00009F475C008F095C00E94F51680919B0115
:101300008F77B1C00B3F8CE51807A9F108F054C0E6
:101310000A3F1C4509F0A9C080919C0140C00130E2
:10132000BDE51B0709F489C058F40F3FFCE51F0712
:1013300009F45AC008F069C080919C0182602FC0F6
:1013400001363DE5130709F47EC0053A4DE5140763
:1013500009F483C002301D4509F087C060E06EC00B
:1013600080919B0182607FC080919B0116C080911B
:101370009B01886078C080919C0182604FC0809101
:101380009B01806270C080919B0180646CC00E9450
:10139000F51680919B01806866C0846064C081609E
:1013A0003DC080919B018E7F5EC080919B018D7FAF
:1013B0005AC080919B0116C080919C0118C08091F9
:1013C0009C018D7F2BC080919B018F7E4CC08091B2
:1013D0009B018F7D48C080919B018F7B44C0809191
:1013E0009B01877F8B7F3FC080919C018D7F8E7F8B
:1013F00015C080919B0182FB222720F991E0922762
:1014000090FB82F990FB83F92EC080919C01982F6C
:10141000909591708E7F892B90FB81F980939C0130
:1014200024C00E94F51680919B0187FB222720F99A
:1014300091E0922790FB87F916C061E08EE090E082
:101440000E949A3212C080919B0184FB222720F9CE
:1014500091E0922790FB84F906C080919B01982F20
:10146000909590FB80F980939B0180919B019091D6
:101470009C010E94A42C0E94F51648C021E094CD46
:10148000482F447409F49DCD90E09BCD482F4171C5
:1014900009F499CD90E097CD482F487809F495CD7F
:1014A00090E093CD827209F492CD222321F0109224
:1014B000700169E299CD80917001882311F065E394
:1014C00001C069E28DE891E00E94B32991CDD70176
:1014D00012968C91882309F49CC00A358DE5180773
:1014E00009F492C008F081C00115ACE51A0709F0B3
:1014F00076C00E94F5162FEF34E34CE021503040C7
:101500004040E1F700C000000E94FF28809165057F
:10151000877009F450C3D70112968C91882309F47F
:101520004AC380919C0182FD46C382E00E94662DE1
:1015300042C30031FFE51F0721F481E00E94B0168D
:1015400074CA01312FE5120709F072CA82E0F6CFA2
:1015500069EB72E08C2D0E942F21892B09F071CA52
:1015600086E18C9DF0018D9DF00D1124EF55FC4F0F
:1015700086818130E1F48091B9029091BA02892B81
:1015800009F45FCA8091BB029091BC02892B09F4D7
:1015900058CA8091BD029091BE02892B09F051CAB0
:1015A0008091BF029091C002892B59F04ACA8230C3
:1015B00009F047CA8091BD029091BE02892B09F4BF
:1015C00040CA26E12C9DC0012D9D900D11248F5500
:1015D0009C4FDC0150961C920E94592A32CA0E3D43
:1015E0001C45B9F40E94C22C91CF0B35EDE51E07C6
:1015F00069F00C351D4569F480919C0182FB8827B8
:1016000080F991E0892703C081E001C080E00E9459
:10161000832DF701868197810097B9F4F7018281C4
:1016200000811181882349F0C8010E941116D82E2B
:10163000682FC8010E947E1604C0C8010E944D1682
:10164000D82EB8018D2D0E947A200E940A2B182FC7
:10165000092FD7011296BC9012971596CC90C29480
:101660003FE0C322809165058770B9F0BB20A9F0E7
:10167000892F807F803421F080E2810F883068F0EC
:1016800080919C0182FD09C082E00E94662D8091BC
:1016900065058770AA24A3948111A12C902E9294A1
:1016A0002FE09222892D90E08C30910508F032C213
:1016B000FC01EC5CFF4F0C94FE32902F9F70802F4A
:1016C000807FD92E19F0D29490EFD922BB20A9F0B7
:1016D000DD2009F4FFC180E2810F883010F0111184
:1016E00004C08D2D0E94592D05C080919E03D82ADB
:1016F000D0929E030E94C82DEDC1812F0E941F171A
:10170000DD2009F407C280E2810F883068F11123DF
:1017100059F18D2D0E944B2D2AC0902F9F70802F44
:10172000807FD92E803219F0D29480EFD8221123F5
:1017300021F0113009F45CC067C080919C0182FFE8
:1017400019C0BB2059F0DD2029F08D2D0E94592DA4
:101750000E94C82D80E00E945117DCC180E00E94E9
:101760001F17DD2009F4D6C18D2D0E94522D0E9435
:10177000C82DD0C1BB2001F1CC20D1F0B1E0CB12FB
:1017800006C0809168058D290E94372DC3C18091C4
:101790009902823068F0C8120BC00E942C2D8091F3
:1017A0006205D812D09262058D2D0E941817B2C121
:1017B000809168058D29F9CFCC2079F0809199022C
:1017C000E1E0CE1210C0823008F4A4C180919D01E6
:1017D0008D2109F49FC10E940B2E0E942C2D8D2D6E
:1017E0000E94111797C18230C0F3C812F6CF92C180
:1017F00080919F02BB2021F08C1508F48BC1D4CFBF
:10180000C81608F087C1EBCFBB20E9F0CC2061F20D
:1018100020E0D7014C9111965C91119712966C9132
:10182000129713967C91139714968C910E94752FA2
:1018300080919A0281FD4EC1F701858180FF4AC1E6
:101840008F708583B1CFC1104EC1C9CF802F8695CF
:101850008695837019F0813061F05CC1BB2021F066
:10186000812F902F937002C080E090E00E94F029B9
:1018700057C1BB2021F0812F902F937002C080E0D0
:1018800090E00E94DA294CC1812FBB2019F00E9400
:10189000DE2502C00E94D1240E94A72441C1802FCE
:1018A0008370A1F5B1103AC1412F4295469547701A
:1018B000440F440F212F2F7030E0C901042E01C0C6
:1018C000880F0A94EAF714FF08C02FE030E001C047
:1018D000220F4A95EAF7209501C020E0302F369577
:1018E00036953370323069F040F440917E013130EA
:1018F00019F0822B842302C0842B822B0E94C716EE
:101900000DC1282B80917E018227F8CFBB2019F0D2
:10191000802F817001C08695882309F4FFC0412F74
:10192000429546954770440F440F212F2F7030E0A9
:10193000C901042E01C0880F0A94EAF714FF08C0F9
:101940002FE030E001C0220F4A95EAF7209501C050
:1019500020E0302F369536953370323051F070F4E8
:1019600040911705313019F0822B842308C0842B55
:1019700005C0282B80911705822701C0822B0E9469
:10198000AC16CCC0F02FFF70DF2EBB2039F08F2FAC
:101990000E94BC16812F0E941817C0C0812F0E9480
:1019A00011178D2D0E94B016B9C0123F11F128F405
:1019B000103F41F0113FA9F189C0133F01F1143FDD
:1019C00061F184C080919F02BB2021F0C81608F00D
:1019D000A1C003C08C1508F49DC0202F2F7181E099
:1019E00090E001C0880F2A95EAF7909117058927A2
:1019F0000FC0802F8F71BB2009F470C087C0BB203F
:101A000051F081E0902F9F7101C0880F9A95EAF7FD
:101A10000E94AC167FC080E0FBCF80919C0182FFCA
:101A200006C0802F8F71BB2009F470C057C0809111
:101A300099028230A0F180916205BB20E1F00E9402
:101A4000522D809165058770843039F40E945F2D96
:101A5000802F8F710E94B0165CC080919902C816C9
:101A600008F057C0202F2F71D22E822F0E94BC1653
:101A700063E08D2D0DC00E94592D80919902C816EA
:101A800050F00E945F2D0E940B2E64E0802F8F711A
:101A90000E94982D3EC081E00E94662D3AC0BB2076
:101AA00059F0302F3F71D32E832F0E94BC1663E074
:101AB0008D2D0E94982D2EC081E00E94662D41E060
:101AC0004C1540F582E00E94662D24C0BB2049F0F1
:101AD000CC2011F0812F3FCE802F8F710E94BC1639
:101AE00019C0CC2089F0193329F480919D0290917E
:101AF0009E0204C080919B0290919C020E94291F2B
:101B0000812F0E941F1706C0802F8F710E94B01670
:101B100001C0A12C88EF890D843010F40E94062AA0
:101B2000812F902F0E94CB16811105C01092720157
:101B30001092710125C0BB2019F0C110F7CF20C051
:101B4000C110F4CF20E0D7014C9111965C91119710
:101B500012966C91129713967C91139714968C9110
:101B60000E94752F80919A0283FFE0CF80917101CE
:101B7000909172010297D1F6812F0E94A517D6CFBE
:101B8000AA20A9F08091650580FD11C0F70112829D
:101B90008595859585950E94BC16C7010E94DE0338
:101BA000809165058595859585950E94B01660E0C4
:101BB000C7010E949E2F2C960FB6F894DEBF0FBE71
:101BC000CDBFDF91CF911F910F91FF90EF90DF90EC
:101BD000CF90BF90AF909F908F907F906F905F90CD
:101BE0004F903F902F900895CF93DF93CDB7DEB7FE
:101BF0006A970FB6F894DEBF0FBECDBF0E9455297D
:101C0000909389018093880190E080E80FB6F89462
:101C100080936100909361000FBE8BE79AE29093EE
:101C20006D0180936C010E9486220E942E220E94E8
:101C30009E210E94FC1F809169008860809369004A
:101C4000E99A8BE4809379058093AC0580938505B0
:101C50008AE5809378058093AB0580938405539A39
:101C600080E0815041F0A895EFE9FFE03197F1F76E
:101C700000C00000F6CF5398789482E084BD93E0D2
:101C800095BD9AEF97BD80936E000E948E248111BE
:101C900002C00E947F24A5E2B1E06AE271E041E067
:101CA00050E08D918F3F21F46A177B07D1F715C063
:101CB000E82FE295EF70F0E021A18F708A0102C059
:101CC000000F111F8A95E2F7C801902F909592237B
:101CD00091A392A1892B82A3E7CF10928701109242
:101CE000730180E090E00E949432893E9E4F21F47F
:101CF0000E948E24811102C00E94C22C82E090E0DA
:101D00000E948C32809374010E94B12C90939C01AC
:101D100080939B010E94C02A8FE39CE90197F1F711
:101D200000C000000E94C02A8091870180FF08C087
:101D30006FEF7FEF80E090E00E94B8320E94FF28B2
:101D400083E090E00E948C320E94C7162198299A65
:101D500022982A9AEFE8F1E03197F1F700C00000ED
:101D600083B1869581701A9B02C092E001C090E019
:101D7000892B8093810181E091E0909354048093BA
:101D80005304FFEF00E712E0F15000401040E1F78C
:101D900000C0000022242394312C8E010F5F1F4FBE
:101DA0002EE7422E22E0522E32E3632E712C8091D8
:101DB0006C058823A1F010926C050E945529909320
:101DC00089018093880180915804882309F441C0D7
:101DD000109258040E94F5160E94062A11C08091A4
:101DE0005804811111C080918801909189010E944D
:101DF0003A29069728F081E0809358040E946129CF
:101E000080915804882329F181E0809358040E942E
:101E100061290E94C02A80918701882341F2F894A9
:101E20002AB15B9A822F8C608AB99BB18CE098278B
:101E30009BB94FE798E3E1E041509040E040E1F783
:101E400000C000009BB189278BB92AB95B987894B0
:101E5000AECF0E9427278091EF04882309F47AC22D
:101E60008091780584FF76C20E94C02A81110E9469
:101E700049292091870190917501922719F180E0FD
:101E8000FF24F3943F2D3923C9F08B871C862F2123
:101E900081E009F480E08D870E9455298160782FC8
:101EA0009F878E874B855C856D858F850E94AC2FC3
:101EB00080917501F826F092750114C08F5FFF0CB8
:101EC000853001F78FEF888B898B1A8A0E945529FC
:101ED0008160782F9C8B8B8B488959896A898C8982
:101EE0000E94AC2F8091790290917A02892B09F49B
:101EF0003EC040916E0250916F02609170027091ED
:101F000071022FB7F8948091590490915A04A091CE
:101F10005B04B0915C042FBF841B950BA60BB70B21
:101F200040916A0250916B0260916C0270916D0257
:101F300084179507A607B707D0F080917902909192
:101F40007A020E945A3210927A021092790210920A
:101F50006E0210926F021092700210927102109233
:101F60006A0210926B0210926C0210926D028091C4
:101F70000D0190910E01019659F1912C20C036E18E
:101F8000389FF001399FF00D1124EF55FC4FC288A6
:101F9000D388C114D10421F4C0909502D090960248
:101FA00046E1489F5001499FB00C1124C5018F554F
:101FB0009C4F7C01FC01868181110FC09394892D77
:101FC00090E020910D0130910E0128173907BCF6E1
:101FD00080911A01811111C038C0858596850E94B3
:101FE0003A29C816D90650F7C7010E94592AC501D7
:101FF00089559C4F0E94122AE1CF809168029091EE
:102000006902009711F10E943A292091C201309192
:10201000C30128173907C8F49091660280916702BE
:10202000981759F00E94481E1092C3011092C201E5
:10203000109269021092680208C00E94C41D10929A
:102040006902109268020E94291E8091980280FF06
:102050001EC08091190182FF1AC00E94552920914B
:10206000BE013091BF01AC01421B530B20911701FF
:10207000309118014217530750F026E731E041E054
:10208000BC018091C0019091C1010E94341F8091D8
:102090008101E82FEE0FEE0FE093810183B1869569
:1020A00081708D8B1E8A1A9B03C082E090E002C073
:1020B00080E090E02D893E89822B932B8E2B80939C
:1020C00081018F70E82FF0E0E65DFE4F90818091F6
:1020D0008001890F809380018430ACF080917F0172
:1020E0008F5F80937F019091170580917E01892BEE
:1020F0000E94AE2E882311F089EA01C08BEB0E946A
:10210000A51721E001C020E0809180018D3FA4F45B
:1021100080917F01815080937F019091170580917C
:102120007E01892B0E94AE2E882311F08AEA01C01D
:102130008CEB0E94A51721E080918001082E000CF5
:10214000990B64E070E00E94EA32809380012111D3
:102150000E94492986E0EBEAF2E0D80101900D9255
:102160008A95E1F7C090AD02D090AE02E090AF0248
:10217000F090B0021092AD021092AE021092AF0237
:102180001092B002C11003C0DD2009F45DC080913F
:10219000A9029091AA020E943A29AC019091A5024D
:1021A000992339F02091150130E02417350758F0B4
:1021B0004BC0209116018AE0289F9001112424171A
:1021C000350718F041C09F3F19F09F5F9093A5021B
:1021D000CC2061F00E948F251C1414F491E001C002
:1021E0009FEF899F802D11248093AD02DD2061F047
:1021F0000E948F251D1414F491E001C09FEF899F68
:10220000802D11248093AE023091AD023323E1F092
:102210002091AE022223C1F045EB3403C00111240A
:10222000992319F09093AD0203C081E08093AD0231
:1022300035EB2303C0011124992319F09093AE02CA
:1022400003C081E08093AE02E11003C0FF2009F4D7
:102250005DC08091A7029091A8020E943A29AC012A
:102260009091A402992339F02091110130E02417B4
:10227000350758F04BC0209112018AE0289F900149
:1022800011242417350718F041C09F3F19F09F5FB4
:102290009093A402EE2061F00E9456251E1414F4BF
:1022A00091E001C09FEF899F802D11248093AF02A0
:1022B000FF2061F00E9456251F1414F491E001C024
:1022C0009FEF899F802D11248093B0023091AF023F
:1022D0003323E1F02091B0022223C1F045EB340317
:1022E000C0011124992319F09093AF0203C081E03B
:1022F0008093AF0235EB2303C0011124992319F019
:102300009093B00203C081E08093B0028091AD024F
:1023100081110BC08091AE02811107C08091AF0284
:10232000811103C08091B00281110E94A724CB8249
:10233000DC82ED82FE8286E0F801ABEAB2E0019039
:102340000D928A95E1F70E94062A909182018913E5
:10235000809382010E94A4280E9427278091EF0485
:10236000882309F424CD8091AB0584FF20CD809192
:10237000E504803209F01BCDE0909901F0909A01BC
:102380008091F704E114F10469F08E3F09F017C45D
:102390008091F804833008F4D5C18550833008F06B
:1023A0000EC4D0C18B3009F4B8C138F5853009F4BA
:1023B0006FC0D8F48230E9F138F4813009F0FCC301
:1023C0001092F80489E00FC4833009F44FC08430C0
:1023D00009F0F2C34091FA046091F9048091F80485
:1023E0000E9475219093FB04F9C3873009F4E4C37C
:1023F00008F0E2C30E949620E2C3803109F4C3C012
:1024000060F48D3009F456C008F452C08E3009F4DF
:1024100056C08F3009F483C0CFC3823109F4BAC0EB
:1024200008F4B4C0833109F4E3C08E3F09F48AC1D3
:10243000C3C38091F804823009F4C6C3833071F0BD
:10244000813009F0B9C30E9449299093F90480931F
:10245000FA047093FB046093FC04B1C3809195016E
:1024600090919601892B09F0BCC3A9C38091F8040F
:10247000823009F0A1C36091F9047091FA0480914F
:10248000FB049091FC040E9404330E94612497C3D2
:102490002091FB043091FC043227232732274091FE
:1024A000FA046091F9048091F8040E94442187C3E2
:1024B00080E16DC082E08093F80481EB94C3E090EA
:1024C000F804F090F904FE24EF24FE24A090FA040E
:1024D000B12C4DE1A416B10408F071C387EFC82EEA
:1024E00084E0D82EC701815B9E4F9601275F344060
:1024F0002A153B0508F063C3E1EBEE16E2E0FE06A9
:1025000028F40E948C32F601848302C0F601148202
:10251000FFEFEF1AFF0A2FEFC21AD20AE3CF809122
:10252000950190919601892B09F449C3E090F80434
:10253000F090F904FE24EF24FE24C090FA04D12C7C
:102540003DE1C316D10408F03AC3B7EFAB2EB4E0B7
:10255000BB2EC701815B9E4F9501275F34402C1530
:102560003D0508F02CC341EBE41642E0F40620F4EC
:10257000F50164810E949A32FFEFEF1AFF0A2FEFF4
:10258000A21AB20AE6CF0E946A2019C382E08093A1
:10259000F80415C3E090F804F090F904FE24EF2449
:1025A000FE24A090FA04B12C3DE1A316B10408F07A
:1025B00006C3A7EFCA2EA4E0DA2EC70187969601BC
:1025C000275F34402A153B0508F0F9C244E1E416C0
:1025D000F10428F40E948C32F601848302C0F601D3
:1025E0001482FFEFEF1AFF0A2FEFC21AD20AE5CFCB
:1025F000E090F804F090F904FE24EF24FE24A0906B
:10260000FA04B12C3DE1A316B10408F0D8C244E1AC
:10261000E416F10408F0D3C284E190E08E199F091A
:102620008A159B0508F4CBC2C70187969A8F898FBC
:102630008091950190919601892B29F0F7EFCF2E8B
:10264000F4E0DF2E61C0E0FE11C0C70186960E9453
:102650008C3290E0982F88272091FB04822B8115E3
:102660009C4539F48FEF8093FB0403C0C12CD12C1F
:1026700003C0CC24C394D12CC7018A0D9B1D4501F6
:1026800080FF1CC0F1E08F1A9108940125503B4F48
:10269000388F2F8B898D9A8D8A0D9B1D0E948C32CD
:1026A000EF89F88D208130E0322F2227282B211549
:1026B0003C4521F48FEFEF89F88D8083F601E950D6
:1026C000FB4F2FEFCF01875F94408815990508F0E5
:1026D000B5CF848190E0982F88273581832B811591
:1026E0009C4511F4248325833296ECCF44E1E41613
:1026F000F10420F4F60164810E949A32FFEFEF1A90
:10270000FF0A2FEFC21AD20AC70187969601275FE8
:1027100034402A153B0550F352C2809195019091A7
:102720009601892B09F44BC20E947E283FEF41EEAF
:1027300084E0315040408040E1F700C000000E943A
:10274000FF283DC2E091F8048E2F90E08E30910575
:1027500008F035C2FC01E05CFF4F0C94FE3288E0CB
:10276000EDE1F1E0D80101900D928A95E1F780E268
:10277000E7EFF4E011928A95E9F785E08093F7049A
:1027800088E0F801ABEFB4E0ECC184EC8093F7048F
:102790001092F8041092F9041092FA0410C2809179
:1027A000FA0490E0982F88272091F904820F911D58
:1027B000092E000CAA0BBB0B45E0880F991FAA1F1E
:1027C000BB1F4A95D1F7AC01BD01405E5F4F6F4F13
:1027D0007F4F481759076A077B0708F4F0C1843C0C
:1027E0009105A105B10508F0EAC1453C5105610517
:1027F000710520F044EC50E060E070E0481B590B9C
:10280000BC0166557F4F87EF94E00E947332D7C1B9
:1028100040E250E06FEF70E087EF94E00E941433E5
:10282000809195018093F704E092F8041092F904E6
:1028300081E08093FA041092FB0484E0CFC13092CF
:102840009A012092990170928601609285010E94FE
:1028500055299093840180938301B1C1EF2889F1B8
:102860008091870184FBFF24F0F886958170F8221F
:1028700080918301909184010E943A2985369105C7
:10288000E0F0FF20D1F00E945529909384018093BD
:102890008301809185019091860101979093860133
:1028A00080938501892B69F410929A011092990105
:1028B000309296012092950104C070928601609238
:1028C0008501809195018093F7048091990180930F
:1028D000F8048091850187C11092960110929501AC
:1028E0006EC1E090F904F090FA0440E250E06FEF1E
:1028F00070E087EF94E00E94143322E831E080E03A
:1029000090E0AC014E5F5F4F4132510508F057C176
:10291000F90165917491E616F70630F4FC01E9506F
:10292000FB4F71836083CA01245F3F4F42165306F9
:1029300041F745C12091F9043091FA0482E891E011
:10294000FC01459154912417350731F00C96F2E0C3
:102950008E379F07A9F730C1009709F42DC1FC01FC
:102960003696259134912115310509F425C14FE1A1
:1029700050E068EF74E0F90109951FC18091F904F6
:102980009091FA0422E8E22E21E0F22EF70125913F
:1029900034918217930739F0FCE0EF0EF11C4E14CE
:1029A0005F04A1F709C1E114F10409F405C1F701BD
:1029B0003896259134912115310509F4FDC04CE17B
:1029C00050E06BEF74E0C701F9010995009709F039
:1029D000F4C0F7013A9685919491009711F0FC01AB
:1029E000099580E0EAC00E942220E9C0E091F90444
:1029F0008E2F90E08730910508F0E1C0FC01E25B8A
:102A0000FF4F0C94FE3280E2E7EFF4E011928A95DA
:102A1000E9F788E08093F7048093F804E4C080919C
:102A2000FA049AE0F92EF8012F2D11922A95E9F770
:102A3000B8010E942F218093F704F801A8EFB4E0B9
:102A400001900D92FA94E1F7BAC0F090FA048AE08E
:102A5000EBEFF4E0D80101900D928A95E1F78981BE
:102A60009A810E9451249A8389838B819C810E9440
:102A700051249C838B838D819E810E9451249E834F
:102A80008D838F8198850E94512498878F8337E0AA
:102A90003F1568F04AE0F49EB0011124615A7F4F5F
:102AA0004AE050E0C8010E94BE3280E001C08FEFD2
:102AB0008093F7040E94862282C06091FA048AE023
:102AC000F80111928A95E9F7683008F043C0FAE0FE
:102AD0006F9FB001112461557F4F35C0F090FA040B
:102AE0008AE0EBEFF4E0D80101900D928A95E1F7CE
:102AF00089859A850E9451249A87898727E02F1516
:102B000068F03AE0F39EB001112461557F4F4AE02E
:102B100050E0C8010E94BE3280E001C08FEF809378
:102B2000F7040E942E224BC06091FA048AE0F8015B
:102B300011928A95E9F7683068F4FAE06F9FB00166
:102B4000112461507F4F4AE050E0C8010E947C325E
:102B500080E001C08FEF8093F7048AE0F801A8EFCE
:102B6000B4E001900D928A95E1F729C0F090FA0443
:102B70008AE0EBEFF4E0D80101900D928A95E1F73D
:102B80008B819C810E9451249C838B8327E02F158D
:102B900068F03AE0F39EB001112461507F4F4AE0A3
:102BA00050E0C8010E94BE3280E001C08FEF8093E8
:102BB000F7040E949E2103C08FEF8093F7040E94C8
:102BC0007E281092E504F3C886E290E00E948C32E1
:102BD0001092F9041092FA041092FB048093FC0402
:102BE000EECF809187018093F904E9CF80E090E0F7
:102BF0000E94F02980E090E00E94DA2910929E0362
:102C00000E94C82DEBEAF2E086E0DF011D928A9572
:102C1000E9F71092A5021092A4021092A6020C9459
:102C2000A724CF92DF92FF920F931F93CF93DF934E
:102C30006C010091170580917E01082BC7E0D0E060
:102C400010E0C8010C2E02C0959587950A94E2F712
:102C500080FD04C02197A8F7F12C09C0FC2EB60115
:102C60008C2F0E947A200E940A2B019799F38F2DB6
:102C7000DF91CF911F910F91FF90DF90CF9008953A
:102C8000CF93DF93EC010E941116BE010E947A20BF
:102C90000E940A2BDF91CF9108959E3F69F1292F61
:102CA000220F220F920F890F682F66956695669501
:102CB000982F977083E0689FB001112440E050E0A6
:102CC00080E0FB01E40FF51FE657FE4F208130E066
:102CD000092E02C0369527950A94E2F72170332712
:102CE000042E01C0220F0A94EAF7822B4F5F5F4F38
:102CF0004330510531F7089580E008959E3F59F122
:102D0000292F220F220F920F890FE82FE695E695C3
:102D1000E695877051E001C0550F8A95EAF783E088
:102D2000E89FF0011124E657FE4F20E030E070E00C
:102D30004081CB01022E02C0969587950A94E2F756
:102D40008170819584278523842781932F5F3F4F4E
:102D50002330310569F70895809317050C94F61513
:102D600021E030E001C0220F8A95EAF7209580919A
:102D7000170582230C94AC1621E030E001C0220F2D
:102D80008A95EAF780911705822B0C94AC168093F4
:102D90007E010C94F61592959F70963079F010F4A0
:102DA000925001C09A50923068F4803F69F018F454
:102DB000883E40F409C0843F29F406C0883E20F0D4
:102DC000813F11F080E0089581E00895FC01868143
:102DD0009781009719F00E940A2B04C0808191818D
:102DE0000E9440160E94CB16089510929D0186E025
:102DF000EFE8F1E0DF011D928A95E9F70C94F615F2
:102E0000882321F00E944B2D0C94C82D089588230F
:102E100039F090919E03892B80939E030C94C82DCA
:102E20000895882321F00E94522D0C94C82D0895F6
:102E3000882321F00E94592D0C94C82D08958823D1
:102E400079F19CEF980F913A30F4682F8DE891E07A
:102E50000E94B3290DC090E2980F983058F4877003
:102E600091E001C0990F8A95EAF7892F0E94522DAF
:102E70000C94C82D9BE5980F933020F480E090E0EF
:102E80000C94F02998E5980F973120F480E090E0B9
:102E90000C94DA29803F20F00E94D1240C94A724BE
:102EA0000895CF93882309F44EC0C82F8CEF8C0F60
:102EB000813A80F4EFE8F1E085E991E02191C217D1
:102EC000D1F18E179F07D1F76C2F8DE891E00E940A
:102ED000C0290CC080E28C0F883058F4C77081E0A4
:102EE00001C0880FCA95EAF70E94592DCF910C9422
:102EF000C82DEBE5EC0FE33040F4F0E0E65CFE4F6C
:102F0000808190E0CF910C94F029E8E5EC0FE73157
:102F100050F4F0E0EE0FFF1FE35CFE4F80819181E3
:102F2000CF910C94DA29C03F70F08C2F0E94DE25DF
:102F3000CF910C94A7246C2F8DE891E00E94B329C7
:102F40000E94C82DC1CFCF9108951F93CF93DF93D7
:102F5000182F893329F4C0919D02D0919E0204C09C
:102F6000C0919B02D0919C02812F0E945117209703
:102F700041F08FE99FE00197F1F700C00000219731
:102F8000F6CF812FDF91CF911F910C941F172F92B5
:102F90003F924F925F926F927F928F929F92AF92E9
:102FA000BF92CF92DF92EF92FF920F931F93CF9336
:102FB000DF93CDB7DEB765970FB6F894DEBF0FBECF
:102FC000CDBF8C0185E0F801DE01519601900D9294
:102FD0008A95E1F7D8014C9011965C901197129662
:102FE000EC9012971396CD90DC90149760E088E1F6
:102FF00095E00E949E2F88E1A82E85E0B82E809053
:103000001B0590901C05A40160911905809118057D
:103010000E94871DF82E8111E5C130901A05F60136
:10302000E819F9094F0160E0332009F469C1C501CD
:103030000E949E2F609095027090960220901D0530
:103040008614970408F014C140911B0550911C058B
:10305000B0901805A0901905822D807F6A2D09F087
:1030600097C08B2D0E94871D811124C0D801119615
:103070008C9111978A111EC08C918B111BC02091CD
:103080001E0530911F0516968D919C911797281754
:10309000390781F4E1100EC0822D8F70806180931A
:1030A0001D0588E195E00E94DE0380911D05F80171
:1030B0008583B4C1F4EF6F16F1E07F0620F48091B0
:1030C0009A0280FF21C0A601652D842D0E94871DD4
:1030D000811103C081E08E2502C080E090E080FF76
:1030E00013C04E2D652D842D0E94112E882361F072
:1030F00088E195E00E94DE03E8E1F5E088E0DF0189
:103100001D928A95E9F78AC1A601652D842D0E943A
:10311000871D811103C081E08E2502C080E090E010
:10312000B82FB170CB2E80FF2AC04E2D652D842D77
:103130000E94112ED82E811122C0498A5A8A89896B
:103140009A890E944016292F22952F70223018F05C
:10315000243078F405C09F7049F0811107C00DC07C
:103160009F7021F0F8019581907F39F0805E883062
:1031700020F0C8010E94DE03DC2CFD2C4FC1EE20A4
:1031800009F44BC180911D05816080931D0546C1E6
:103190008B2D0E94871D811124C0D80111968C911E
:1031A00011978A111EC08C918B111BC020911E0596
:1031B00030911F0516968D919C9117972817390706
:1031C00081F4E1100EC015962C92C8010E94DE0316
:1031D00088E0F801A8E1B5E001900D928A95E1F749
:1031E0006FC0C8010E94E6168823E1F1EE20D1F1FC
:1031F00020911D05822F82958F7090E00297A4F098
:1032000080911805909119059A8789871B86DD861C
:10321000CC862E8780911E0590911F05988B8F87F5
:10322000CE0109960E94DE0388E0F801A8E1B5E02E
:1032300001900D928A95E1F70E943B2E16C0F09006
:1032400018059090190540911B0550911C05692D9A
:103250008F2D0E94871D882399F0C8010E94E616D1
:10326000811130C0C8010E94DE03FF24F394D6C050
:10327000822D807F21F788E195E00E94DE03ACC0BB
:10328000D80111968C9111978911E7CF8C918F11EC
:10329000E4CF20911E0530911F0516968D919C91CB
:1032A000179728173907C9F6E110D7CF15962C9232
:1032B000C8010E94DE0388E0F50111928A95E9F7C2
:1032C000F32CACC0EE2071F220911D05822F829567
:1032D0008F7090E002970CF4A7CF80911805909121
:1032E00019059A8389831B82DD82CC822E8380918B
:1032F0001E0590911F0598878F83CE01019692CF6E
:1033000088E195E00E949E2F80919502909196020F
:103310008816990608F060C0FE2CEE2009F4A2CFB2
:10332000E0901805D090190540911B0550911C059F
:103330006D2D8E2D0E94871D811140C0D8011196E0
:103340008C9111978D113AC08C918E1137C02091BC
:103350001E0530911F0516968D919C911797281781
:10336000390761F580919A0282FD1FC080911D0589
:1033700080FD1BC082958F70482F50E0411551058C
:10338000A1F020911D0515962C9315974F305105EE
:1033900049F08F5F982F9295907F822F8F70892BA5
:1033A00015968C93C8010E94DE0388E0F801A8E11D
:1033B000B5E001900D928A95E1F730C0C8010E94F6
:1033C000E616811131CF80911D05816080931D0526
:1033D000C8010E94DE0322C088E0F50111928A959F
:1033E000E9F71CC0EE2009F43DCFC8010E94E616A3
:1033F000F82E882309F436CF88E0F801A8E1B5E07B
:1034000001900D928A95E1F7809118059091190528
:103410000E9440160E943B2E01C0F12C8F2D659614
:103420000FB6F894DEBF0FBECDBFDF91CF911F91D5
:103430000F91FF90EF90DF90CF90BF90AF909F9053
:103440008F907F906F905F904F903F902F90089556
:10345000EF92FF920F931F93CF93DF93CDB7DEB719
:1034600060970FB6F894DEBF0FBECDBF29873A87AD
:103470004B875C876D877E878F87988BCE010996F7
:103480000E94C71781114AC088E0FE013996DE010B
:10349000119601900D928A95E1F7E984FA840C85E2
:1034A0001D85A8016F2D8E2D0E94871D811136C0AC
:1034B000A0912005B0E0CD01019687709927209159
:1034C000610530E08217930781F1E982FA821D835A
:1034D0000C8393E0AA0FBB1F9A95E1F7AF5DBA4F3B
:1034E00098E0FE01319601900D929A95E1F7809354
:1034F00020050E94312E12C028E0829FC0011124B5
:103500008F5D9A4F0E94C7178823E1F08091610573
:1035100090E00196877099278093610580916105FD
:10352000909120058913E8CF0DC00E94F5161092E6
:10353000200510926105E8E1F5E088E0DF011D92C9
:103540008A95E9F760960FB6F894DEBF0FBECDBF3F
:10355000DF91CF911F910F91FF90EF900895AF925F
:10356000BF92CF92DF92EF92FF920F931F93CF9370
:10357000DF934430510508F46CC040919B0141FB3E
:10358000CC24C0F8D12CCC0CDD1C42FB882780F960
:10359000C82FE0E0DE2FCC0FDD1FCC0FDD1FCC2AC3
:1035A000DD2A40FBEE24E0F8F12CEC28FD2843FB5B
:1035B000AA27A0F9B0E023E0AA0FBB1F2A95E1F7E4
:1035C000EA2AFB2A44FBEE27E0F9F0E034E0EE0FB4
:1035D000FF1F3A95E1F7EE29FF2945FB222720F945
:1035E00030E055E0220F331F5A95E1F72E2B3F2B89
:1035F00046FB882780F990E0E6E0880F991FEA955E
:10360000E1F7822B932B47FB442740F950E0569576
:10361000542F442757954795842B952B20919C0137
:10362000322F3170132F00E0082B192B26952170B3
:10363000B22EBB0CA12C0A291B29012E000C220B37
:10364000330BFB01008311832283338380E090E0FE
:1036500002C08FEF9FEFDF91CF911F910F91FF90ED
:10366000EF90DF90CF90BF90AF900895EDE7F2E03C
:10367000848195812AE030E0B9010E94D6326093BE
:1036800016018681809315018285809314018485BB
:103690008093130186859785B9010E94D632609385
:1036A000120180898093110182898093100184899D
:1036B00080930F01089580917D0290917E029093F6
:1036C0001801809317010895CF92DF92EF92FF9235
:1036D0004430510508F46FC0FB01C080D180E28006
:1036E000F3800E94F51680919B01C0FA80F9B70122
:1036F000A601769567955795479540FB81F9B701E7
:10370000A60122E076956795579547952A95D1F7BA
:1037100040FB82F9B701A60133E07695679557958E
:1037200047953A95D1F740FB83F9B701A601E4E04C
:103730007695679557954795EA95D1F740FB84F9BB
:10374000B701A601F5E07695679557954795FA95E7
:10375000D1F740FB85F9B701A601A6E076956795FC
:1037600057954795AA95D1F740FB86F9B701A60171
:10377000B7E07695679557954795BA95D1F740FB91
:1037800087F980939B0180919C01D0FA80F999E0A0
:10379000F694E794D794C7949A95D1F7C0FA81F933
:1037A00080939C0180919B0190919C010E94A42C8C
:1037B00080E090E002C08FEF9FEFFF90EF90DF90EE
:1037C000CF9008959C01CA01F90132964591549118
:1037D0008417950750F0CB01F901349665917491E7
:1037E0000E940B3380E090E008958FEF9FEF0895E3
:1037F0000F931F93CF93DF930DE712E0CBE3D0E05D
:10380000CE010E948C32F80161918F01681719F086
:10381000CE010E949A322196CF35D10589F7DF91EA
:10382000CF911F910F910895DA019C012E5F3F4FB8
:10383000F90145915491F90125913491A217B307EB
:1038400058F0FC013496859194910E940B330E94AC
:10385000F81B80E090E008958FEF9FEF08950F939D
:103860001F93CF93DF93C42FD22FFC018281882333
:10387000C9F04093A3020E9455299093A20280931D
:10388000A10280E28C0F883008F05BC0C77081E035
:1038900001C0880FCA95EAF7DF91CF911F910F9170
:1038A0000C9418178091A302481334C08091A10290
:1038B0009091A2020E943A2920919502309196029D
:1038C0008217930738F510E21D0FCD17B9F080E28B
:1038D0008C0F883040F4C77081E001C0880FCA9512
:1038E000EAF70E941117183028F581E09D2F977094
:1038F00001C0880F9A95EAF70E941817802F0E943E
:10390000A5171830F0F4D77081E001C0880FDA9560
:10391000EAF70AC080E28C0F883098F4C77081E023
:1039200001C0880FCA95EAF7DF91CF911F910F91DF
:103930000C941117802FDF91CF911F910F910C9450
:10394000A517DF91CF911F910F910895CF93DF932A
:10395000EC01409172025091730260917402709177
:1039600075022FB7F8948091590490915A04A09150
:103970005B04B0915C042FBF841B950BA60BB70BA7
:10398000843F9140A105B105A8F480917202909105
:103990007302A0917402B091750280936E029093AD
:1039A0006F02A0937002B093710284EF91E0A0E0E7
:1039B000B0E00EC00E94492960936E0270936F02BE
:1039C000809370029093710282E390E0A0E0B0E0F7
:1039D00080936A0290936B02A0936C02B0936D0285
:1039E000D0937A02C0937902DF91CF910895FF922C
:1039F0000F931F93CF93DF9300917B0210917C0272
:103A00000115110509F45CC010927A021092790236
:103A10001092760210927702D80116966D917C91E1
:103A200017979B013A9521153F4108F4707EC62FE8
:103A3000D1E0611101C0D0E0F82ED8011996ED91C6
:103A4000FC911A97309739F01B966D917C911C97D9
:103A500080E00995D823DD2379F08CEF8C0F813A33
:103A600030F46C2F8DE891E00E94B32905C00E94CC
:103A7000C82D8C2F0E941F17E0917B02F0917C02D1
:103A800040815181FF2071F0808584FD0BC08091C1
:103A90007802882339F091E09A0121503109253AC2
:103AA0003D4508F090E090FF03C0CA010E94A61CAB
:103AB0000E94C82D10927C0210927B021092780214
:103AC000C801DF91CF911F910F91FF900895FC01E4
:103AD00084818623C1F492819923B9F0808569237A
:103AE00083FF04C081E0611111C00DC0892F8F7068
:103AF00092959F70982B862F8F7062956F70682BB0
:103B000081E0961719F080E0089581E00895452B33
:103B100041F06F3F41F491E08F3F09F090E0892F31
:103B200003C081E001C080E081700895BC01409134
:103B3000660280916702942F981729F1292F30E0AF
:103B4000F901EE0FFF1FE25AFD4F0190F081E02DC9
:103B5000E617F70799F487E0869FF001879FF00D3D
:103B60001124EA5DFD4F81E0848394130CC02F5F24
:103B70003F4F237033272093660208952F5F3F4FF6
:103B8000922F9370D9CF0895DF92EF92FF920F9307
:103B90001F93CF93DF938091C501882309F451C00F
:103BA0000091C401F12C8CE0E82E8091C50108172A
:103BB00008F043C0DD24D394D00ED092C40110E0AD
:103BC000E09EE001E19ED00D1124CA53DE4F4B81EF
:103BD0005C81698188810E94871D81112CC08E8142
:103BE0009F81892B21F488859985019651F428813C
:103BF00039814A815B816C817D818E819F810E94A8
:103C0000281AE09EF001E19EF00D1124EA53FE4FC8
:103C10001482138210929E03F1100DC0CE010E94F7
:103C2000E616811108C08FE39CE90197F1F700C007
:103C30000000FF24F3940D2DB8CF1092C50110920F
:103C4000C401DF91CF911F910F91FF90EF90DF9012
:103C500008951092C3011092C201E6E2F2E085815C
:103C6000811102C014821682379682E0EE35F80781
:103C7000B1F70895109269021092680210921A0129
:103C800080916702809366020E94291E0C94C41DD5
:103C90003F924F925F926F927F928F929F92AF92DC
:103CA000BF92CF92DF92EF92FF920F931F93CF9329
:103CB000DF93C091660297E0892E01E010E02CE0CE
:103CC000322E3EEF932E4424439480916702C8170E
:103CD00009F478C0D0E0FE01EE0FFF1FE25AFD4F5D
:103CE00080819181889ED001899EB00D1124AA5DAA
:103CF000BD4F14962C911497211161C05090C501AD
:103D0000E6ECF1E020E030E0712C5D01251508F0D3
:103D100054C0E284F384D501CD90DC906FEF7FEF47
:103D2000612C462D50E0DA01AA0FBB1FAC0DBD1D62
:103D30000D90BC91A02D109731F0EA16FB0609F406
:103D4000BA016394EECF6F3FBFEF7B0791F1D801CB
:103D500002C0AA0FBB1F6A95E2F77A2AB80102C017
:103D6000660F771F6A94E2F7AB0141505109672D46
:103D700070E046175707D9F4329EF001339EF00DDC
:103D80001124EA53FE4F889ED001899EB00D112464
:103D9000AA5DBD4F12962D913C91139737832683D0
:103DA000908291829187808715964C9206C01482EA
:103DB00013822F5F3F4F3C96A9CF0E94961D2196FC
:103DC000C37083CF0E94C41DDF91CF911F910F91CB
:103DD000FF90EF90DF90CF90BF90AF909F908F902B
:103DE0007F906F905F904F903F900C94291E809130
:103DF0001901877F8093190182E00E944B2D8091E9
:103E0000190184FF06C08F7E8093190182E00E9411
:103E1000592D8091190185FF06C08F7D809319016E
:103E200080E20E94592D0C94C82D662329F0209120
:103E30009E03226020939E039C013056211540E290
:103E4000340720F0305E2115304108F499270C9496
:103E50005A32009741F0EFE9FFE03197F1F700C0E7
:103E600000000197F6CF0895AF92BF92CF92DF92F4
:103E7000EF92FF920F931F93CF93DF935C017B012F
:103E8000C42E89018091190182FF8DC0C091C001AB
:103E9000D091C101CA15DB0521F0A114B10409F0CC
:103EA00082C0809119018B7F8093190181FD11C01F
:103EB0008091BE019091BF01A701481B590B81E081
:103EC00020911701309118014217530718F480E030
:103ED00001C081E08170D82E80911901D0FA81F95A
:103EE00080931901FE01FF2784E0F695E7958A95F6
:103EF000E1F79E012F703327EE0FFF1FE256FE4FB2
:103F000081E090E002C0880F991F2A95E2F7DD203A
:103F100029F020813181822B932B06C080959095CA
:103F200020813181822393239183808380919D011D
:103F300081FF08C08091190180618093190182E09E
:103F40000E94522D80919D0185FF08C0809119012A
:103F500080628093190180E20E94522DA8016D2D8C
:103F6000CE010E94151FCC2031F08091980285FF70
:103F700002C086FF36C080919B0290919C020E94F5
:103F8000291F8091C0019091C1019C0130562115DB
:103F900040E2340720F0305E2115304108F49927C3
:103FA0000E94403218C095013327C50190568115F3
:103FB00040E2940720F0905E8115904110F4C90111
:103FC00001C0C5010E9440328091C0019091C101A1
:103FD000A816B90611F40E94F71EF092BF01E092F4
:103FE000BE01DF91CF911F910F91FF90EF90DF9075
:103FF000CF90BF90AF9008950F931F93CF93DF930F
:104000000DE712E0CBE3D0E0CE010E948C32F80144
:1040100081938F012196CF35D105B1F7C0E0D0E073
:10402000FE01E457FE4F85919491009711F0FC0139
:1040300009952C96CC3FD10599F7DF91CF911F912F
:104040000F910895EDE7F2E0128E138E8FEA90E063
:104050009183808325E0248F88E893E19383828392
:104060008AE090E09583848344E150E0578346835F
:1040700068E070E071876087938782874EE150E047
:10408000558744879787868740E550E0518B408B62
:10409000738B628B68E270E0758B648B62E370E017
:1040A000778B668B68EC70E0718F608F158E978FC1
:1040B000868F51A340A322A30E94F81B0E94F516ED
:1040C00010929C0110929B0180E090E00E94A42C31
:1040D0000C94FC1FCF93DF93CFE4D1E060E0CE01DE
:1040E0000E949A322196C11584E0D807B9F7DF9172
:1040F000CF910895462F2091990130919A01232B59
:1041000091F47E3F39F46E3F71F480919701909164
:1041100098010895823038F4711105C0653018F4A3
:1041200060E00C94752180E090E00895BF92CF92FA
:10413000DF92EF92FF920F931F93CF93DF93CDB750
:10414000DEB76E970FB6F894DEBF0FBECDBFE0901E
:104150009501F090960181E090E090939601809314
:104160009501B12CC12CD12C00E010E0F801EC0D30
:10417000FD1DEE0FFF1FE259FE4F25913491402F98
:1041800060E08B2D0E9444210F5F1F4F0530110509
:1041900069F785E0C80ED11CB394E2E0BE12E4CF0B
:1041A0000E9422201A8219821C821B821E821D827A
:1041B00018861F8288EC90E09A8789870FE510E0C7
:1041C0004AE050E0B801CE0101960E94BE32065F7F
:1041D0001F4F0F3A1105A1F76E01FBE0CF0ED11C66
:1041E0008AE0F60111928A95E9F74AE050E0B801B9
:1041F000C6010E94BE32065F1F4F0F3F1105A9F78F
:104200006E01F5E1CF0ED11C8AE0F60111928A957C
:10421000E9F78FEF9FEF9A8F898F87E08E8F4AE0C3
:1042200050E0B801C6010E94BE32065F1F4F0F3436
:10423000F1E01F07A1F7F0929601E09295016E96CA
:104240000FB6F894DEBF0FBECDBFDF91CF911F91A7
:104250000F91FF90EF90DF90CF90BF90089588303E
:1042600080F49B01982F8AE0989FB0011124615A35
:104270007F4F4AE050E0C9010E947C3280E090E02C
:1042800008958FEF9FEF08950F931F93CF93DF93C0
:10429000823030F5611124C0453010F521159CE5C0
:1042A000390731F46091950170919601672BC1F047
:1042B0008901C42FD0E0CC0FDD1F9AE0899FC00D8B
:1042C000D11D1124612FCE0187960E949A32602F52
:1042D000CE018896DF91CF911F910F910C949A3265
:1042E000DF91CF911F910F9108950F931F93CF935B
:1042F000DF938230E0F461111AC04530C0F4C42F5E
:10430000D0E0CC0FDD1F2AE0829FC00DD11D11240B
:10431000CE0187960E948C3290E0182F0027CE01A4
:1043200088960E948C329801282BC90102C080E037
:1043300090E0DF91CF911F910F9108958F929F92FE
:10434000AF92BF92CF92DF92EF92FF920F931F93A3
:10435000CF93DF93CDB7DEB72A970FB6F894DEBFC1
:104360000FBECDBF06E213E084E1C82E83E0D82E55
:10437000EE24EA94F12C2FE0922E33E1A32E33E0C9
:10438000B32E88248394F601019311936F014AE0C0
:1043900050E0B701CE0101960E947C32F801892DD0
:1043A00011928A95E9F789819A81F8019183808336
:1043B0008F8182838D8183838885848389858583AA
:1043C0008B819C819783868310868A8587FF03C0B3
:1043D0001686158603C0F801B686A58680FF02C042
:1043E000F801808681FF04C0F80190859260908773
:1043F00082FF04C0F80190859460908783FF04C019
:10440000F80190859860908784FF04C0F80190853A
:104410009061908785FF04C0F80180858062808765
:10442000015F1F4FFAE0EF0EF11C8FE4E81681E008
:10443000F80609F0A8CF2A960FB6F894DEBF0FBE93
:10444000CDBFDF91CF911F910F91FF90EF90DF9043
:10445000CF90BF90AF909F908F900895CF92DF92B2
:10446000EF92FF920F931F93CF93DF93CDB7DEB7F9
:104470002A970FB6F894DEBF0FBECDBF80E5E3EC00
:10448000F2E0DF011D928A95E9F788E3E6E2F2E0C7
:10449000DF011D928A95E9F783ECC82E82E0D82EC1
:1044A0007F010FEA10E0F701D182C0824AE050E0BC
:1044B000B801CE0101960E947C3288E0FE0131965F
:1044C000D60101900D928A95E1F789859A85D701E9
:1044D00013969C938E931297BAE0CB0ED11CE7E013
:1044E000EE0EF11C065F1F4F0F3F1105E1F62A96F5
:1044F0000FB6F894DEBF0FBECDBFDF91CF911F91F5
:104500000F91FF90EF90DF90CF9008958F929F9240
:10451000AF92BF92CF92DF92EF92FF920F931F93D1
:10452000CF93DF93CDB7DEB72A970FB6F894DEBFEF
:104530000FBECDBF01EA13E0E12CF12C86EAC82EB4
:1045400083E2D82E91EDA92E93E2B92E2CE0822E93
:1045500023E2922EF801D182C082B382A282958298
:104560008482F58AE48ABE016F5F7F4F8E2D0E94A0
:104570002F21892B29F489859A85F801938B828BC9
:10458000FFEFEF1AFF0A0A5E1F4F88E0E816F104FA
:1045900009F72A960FB6F894DEBF0FBECDBFDF91A4
:1045A000CF911F910F91FF90EF90DF90CF90BF9030
:1045B000AF909F908F900895CF93DF9300D000D05D
:1045C0001F92CDB7DEB79093980180939701811524
:1045D00020E2920748F40F900F900F900F900F90E9
:1045E000DF91CF910C9440328EEF89838A831B82B6
:1045F0000E9455298160782F9D838C8349815A813F
:104600006B818D810E94AC2F0F900F900F900F90B7
:104610000F90DF91CF9108950F931F93CF93DF9366
:104620008C01EB0169EB72E08C2F0E942F21892B0A
:1046300009F046C080919B0290919C020E94291F24
:10464000DD27CF54DD4F8881F80110821882833036
:1046500079F048F4813041F1823091F58091BB02CC
:104660009091BC0209C0843051F08530E9F028C037
:104670008091BD029091BE020097B1F01BC0809165
:10468000BF029091C0020097A9F42091B902309125
:10469000BA028091BB029091BC022115310541F014
:1046A000009741F4C90106C08091B9029091BA0205
:1046B000009731F0DF91CF911F910F910C94DC2284
:1046C000DF91CF911F910F910895CF93DF9300D089
:1046D00000D01F92CDB7DEB79093980180939701D9
:1046E000811520E2920748F40F900F900F900F90E1
:1046F0000F90DF91CF910C945A328EEF89838A8389
:1047000081E08B830E9455298160782F9D838C8363
:1047100049815A816B818D810E94AC2F0F900F903F
:104720000F900F900F90DF91CF910895CF93DF936B
:10473000EC010E94652380919B0290919C020E9453
:10474000291FCE01DF91CF910C94DC220F931F9390
:10475000CF93DF938C01862F69EB72E00E942F21AB
:10476000892BD1F4C091B902D091BA022097A1F05F
:10477000F8018081833039F4CE010E949623CE0166
:104780000E94962302C0843038F0CE01DF91CF9191
:104790001F910F910C949623DF91CF911F910F9150
:1047A00008950F931F93CF93DF938C01EB0169EB77
:1047B00072E08C2F0E942F21892B09F06DC0DD271C
:1047C000F8018081813041F49185911115C0928565
:1047D000992391F082E010C0823049F4F80181857C
:1047E000811107C08285811106C083E005C086E083
:1047F00003C085E001C084E0CF54DD4F888383305F
:10480000B1F028F4813071F0823031F045C084304D
:10481000A9F0853079F140C08091BB029091BC0233
:104820000097A1F58091B9029091BA0220C08091C1
:10483000BD029091BE020097E9F028C08091BF02AE
:104840009091C002009711F58091B9029091BA023F
:10485000009749F00E9496238091BB029091BC0280
:10486000009781F013C08091BB029091BC02009729
:1048700099F00CC08091B9029091BA02009761F052
:104880000E9496238091B9029091BA02DF91CF9154
:104890001F910F910C946523DF91CF911F910F9180
:1048A000089581152CE5920759F480919501909116
:1048B0009601892B19F480E090E0089580E09CE552
:1048C000089586E290E00C949A32CF93C82F81111C
:1048D00002C06FEF01C066E783E290E00E949A3267
:1048E0006FEF84E290E00E949A32C11102C06FEF34
:1048F00001C063E685E290E0CF910C949A3280E0AB
:104900000E94652460E070E0CB010E9461240E9457
:1049100096200E946A2081E00C94652483E290E056
:104920000E948C32863781F484E290E00E948C32BF
:104930008F3F51F485E290E00E948C3291E0833603
:1049400009F090E0892F01C080E0817008950E94F5
:1049500055292091AD02211104C02091AE022223DD
:1049600021F09093AA028093A9022091AF02211115
:1049700004C02091B002222321F09093A8028093DA
:10498000A702E0915304F0915404309749F082E07B
:104990008093AB020480F581E02D8BEA92E00994CC
:1049A0000895803F39F48091AE0287FF6AC010926B
:1049B000AE0267C0813F29F48091AE021816BCF3A5
:1049C00060C09091AD02823F29F497FF5AC01092C7
:1049D000AD0257C0833F19F41916CCF352C0909121
:1049E000AF02893F31F419160CF04BC01092AF02A0
:1049F00048C08A3F19F497FF44C0F8CF8B3F39F481
:104A00008091B00287FF3DC01092B0023AC08C3F47
:104A100029F48091B0021816BCF333C0843F21F40E
:104A20008091AC028E7F17C0853F21F48091AC024B
:104A30008D7F11C0863F21F48091AC028B7F0BC02B
:104A4000873F21F48091AC02877F05C0883F31F415
:104A50008091AC028F7E8093AC0213C08D3F21F415
:104A60008091A6028E7F0BC08E3F21F48091A6021A
:104A70008D7F05C08F3F29F48091A6028B7F8093A4
:104A8000A6028091AD02811106C08091AE02811113
:104A900002C01092A5028091AF02811106C08091E0
:104AA000B002811102C01092A40208958091A60262
:104AB00080FF08C06091100170E07595679575954D
:104AC000679521C081FF06C06091100170E0759567
:104AD000679519C082FF04C06091100170E010C09A
:104AE0009091A402992399F060910F019617A0F775
:104AF00080911001899FC001112470E00E94EA3268
:104B00006038710540F46115710519F406C061E063
:104B100070E0862F08958FE7089581E008958091D1
:104B2000A602209185023091860280FF0CC0809100
:104B30001401829FB001839F700D112476956795B3
:104B4000769567952FC081FF0AC080911401829FDE
:104B5000B001839F700D11247695679523C082FF65
:104B600008C080911401829FB001839F700D1124B1
:104B700019C04091A502411102C0B90113C0609152
:104B80001301461770F780911401849FA00111242E
:104B9000429FC001439F900D529F900D112470E0E1
:104BA0000E94D6326038710528F46115710521F034
:104BB000862F08958FE7089581E00895803F21F4BE
:104BC0000E948F25819504C0813F29F40E948F2582
:104BD0008093AE020895823F21F40E948F25819533
:104BE00004C0833F29F40E948F258093AD0208956D
:104BF000893F19F40E94562505C08A3F31F40E946E
:104C0000562581958093AF0208958B3F21F40E9431
:104C10005625819504C08C3F29F40E945625809327
:104C2000B0020895843F21F48091AC02816017C0E6
:104C3000853F21F48091AC02826011C0863F21F44F
:104C40008091AC0284600BC0873F21F48091AC025C
:104C5000886005C0883F31F48091AC028061809308
:104C6000AC0208958D3F21F48091A60281600BC0B3
:104C70008E3F21F48091A602826005C08F3F29F407
:104C80008091A60284608093A6020895FC0193811E
:104C90009330E1F068F4913089F0923009F06FC000
:104CA0008DEA93E09093F6048093F5048BE50895E4
:104CB000913289F1923209F442C061C088E094E0F7
:104CC0009093F6048093F50482E108958281813007
:104CD00089F040F0823089F0833009F050C08BE5D4
:104CE00093E013C089EA93E09093F6048093F5046F
:104CF00084E008958BE893E008C089E793E09093FF
:104D0000F6048093F50480E108959093F60480936F
:104D1000F5048CE108958281813049F028F08230D9
:104D200071F588EF93E005C08FEB93E002C088ED4A
:104D300093E09093F6048093F50489E008958481CC
:104D400095818130910599F050F00297C1F48EE77A
:104D500092E09093F6048093F5048BE708958BE13D
:104D600093E09093F6048093F50480E4089589EF2E
:104D700092E09093F6048093F50482E2089580E037
:104D8000089508958091F00408951F93CF93DF93C1
:104D9000162FEA01288124FF05C0398128E823273E
:104DA000298302C02AE52883212FFC01CE01029627
:104DB000DC0131913D9321501216DCF3612F0E94EA
:104DC00099021C5F1883DF91CF911F910895209164
:104DD000AB0524FF05C04BEA55E066E00C94C52600
:104DE00008959091E404981307C02091E204309153
:104DF000E30426173707B9F08093E4047093E304C3
:104E00006093E2048093DF047093E1046093E00414
:104E10008091AB0584FF07C04BEA55E063E08FED5E
:104E200094E00C94C5260895BC0184E00C94F1260E
:104E3000BC0183E00C94F12680911705982F9670A1
:104E4000963011F4886001C0877F0C94AC16CF9324
:104E5000DF9380919305835087FDE4C09091920584
:104E6000CCE0D0E0C91BD109CB56DA4F9091910527
:104E70009031D0F4883019F01092E504D1C08091BF
:104E8000E504E82FF0E0E931F105B4F7E950FB4F14
:104E90009E01285F3F4F999191932C173D07D9F7B9
:104EA000885F8093E504BCC09D3209F0A0C08830C3
:104EB00009F0B6C083EC80936D058AE580931C01F0
:104EC0001092F40488818076D9F1803209F084C090
:104ED0008981813069F48C819D81892B09F07CC0A6
:104EE00087EE94E09093F6048093F50488E075C013
:104EF000823041F486EE94E09093F6048093F504BA
:104F000081E06BC08A3021F48B818093E60464C019
:104F1000893009F061C08A819B818115924009F036
:104F2000DCC08C819D81892B09F0D7C081E0809302
:104F3000F3048E819F819093F2048093F104CDC09D
:104F40009A81109276058981811106C010927705A9
:104F500026E735E082E03BC0853019F49093940554
:104F600033C08630B9F48B81813041F0823031F02A
:104F7000833021F0813211F0823221F4CE010E947F
:104F8000462601C080E090E49093F4048F3F09F43A
:104F9000A4C023C0883089F0893019F49093EF04BD
:104FA00013C08A3069F08B3079F48BE480937905F3
:104FB0008093AC058093850507C02FEE34E002C0D6
:104FC00026E735E081E003C026E735E080E0309356
:104FD000F6042093F50401C080E09F81911104C084
:104FE0009E81981708F4892F80931B0119C0809126
:104FF000F40487FF15C08091F1049091F204892B8D
:1050000009F475C08091F304813009F070C0888183
:105010008093F0041092F2041092F10410921B019C
:105020001092930580911C0184FF4CC080911B015C
:105030008F3F09F447C0C82F893008F0C8E08C1BA7
:1050400080931B0190916D0588E8892780936D05F9
:10505000CC2359F18091F5049091F6042091F40449
:1050600026FF12C0ADE6B5E02C2FAC014D565540E1
:10507000FA01EA0FFB1FE4911196EC93119721506E
:1050800011962111F5CF08C0EEE6F5E0DC012C2FDA
:105090003D9131932150E1F701962FEF2C0F820FB4
:1050A000911D9093F6048093F5046C2F8EE695E0A5
:1050B0000E949902CC5FCC3019F08FEF80931B01D6
:1050C000C0931C0184E199B19C70A9F48150D9F777
:1050D00010929405109290050EC0888187FF05C03C
:1050E0008E8190E89093F4047FCF8FEFFACF8EE11A
:1050F00080931C0195CFDF91CF910895CF93DF93DB
:10510000C7EFD4E08091840584FD03C00E94272767
:10511000F9CF44E855E068E0CE010E94C526289604
:1051200085E0C731D80771F78091840584FD03C0FD
:105130000E942727F9CF44E855E060E080E090E046
:10514000DF91CF910C94C526CF93DF93CAE0D0E0D6
:105150008091780584FF1AC08091DD049091DE046F
:105160009817F1F028E0829FC001112448E755E02C
:1051700068E0835A9B4F0E94C5268091DD0490E031
:1051800001968F7099278093DD040AC00E9427271B
:105190008FE99FE00197F1F700C000002197C1F669
:1051A000DF91CF910895CF93DF93EC01A091DE04BE
:1051B000B0E0CD0101968F7099272091DD0428176A
:1051C00079F093E0AA0FBB1F9A95E1F7A35ABB4F62
:1051D00098E0FE0101900D929A95E1F78093DE042C
:1051E0000E9427270E94A42888E0FE01A7EEB4E0D1
:1051F00001900D928A95E1F7DF91CF91089598E0A3
:1052000088E10FB6F894A895809360000FBE909344
:105210006000A895F894D8E0CEEF28E3299320E029
:10522000299314BEFFCF089578941F920F920FB662
:105230000F9211248F939F93AF93BF938091590442
:1052400090915A04A0915B04B0915C040196A11D59
:10525000B11D8093590490935A04A0935B04B093BA
:105260005C04BF91AF919F918F910F900FBE0F90F3
:105270001F9018959C014FB7F89480915904909114
:105280005A04A0915B04B0915C044FBF821B930B46
:1052900008952FB7F8946091590470915A04809141
:1052A0005B0490915C042FBF08952FB7F894809110
:1052B000590490915A04A0915B04B0915C042FBFF3
:1052C000089580915804882321F11092570420E416
:1052D00088E190E00FB6F894A895809360000FBE27
:1052E0002093600083B7817F846083BF83B7816030
:1052F00083BF7894889583B78E7F83BF0FB6F89469
:10530000A895809160008861809360001092600091
:105310000FBE08951F920F920FB60F9211248F9314
:105320009F93AF93BF9380915704811113C08091D5
:10533000590490915A04A0915B04B0915C04419689
:10534000A11DB11D8093590490935A04A0935B044E
:10535000B0935C04BF91AF919F918F910F900FBE5E
:105360000F901F9018959C012A5F3F4FFC014281CE
:10537000461301C01282019682179307B9F7089568
:105380009C01FC0132969FEF80E04191461789F025
:105390009F3F19F4411101C0982F8F5F8630A9F704
:1053A0009F3F39F0F901E90FF11D97FDFA956283EE
:1053B000089508952091550430915604281739070F
:1053C00071F09093560480935504E0915304F0914A
:1053D0005404309721F00084F185E02D099408955C
:1053E00020915104309152042817390771F090939D
:1053F000520480935104E0915304F0915404309787
:1054000021F00680F781E02D09940895E09153047E
:10541000F0915404309721F00190F081E02D09942F
:1054200080E00895EF92FF920F931F93CF93DF9345
:10543000FC012285211136C0EC01E380F480F7E500
:10544000FF1A26E12E9DC0012F9D900D1124DC0135
:10545000AF55BC4F1496ED91FC91159789559C4F13
:10546000309729F054966D917C915597099586E176
:105470008E9D80018F9D100D11240F551C4FF8013A
:1054800087810E94522DF80180850E944B2D0E9439
:10549000C82D188219861B861E821D821092A003B9
:1054A00010929F03DF91CF911F910F91FF90EF908A
:1054B0000895CF93DF93FC012189211119C0EC01DC
:1054C00081E0818B87810E94592D90919E03888570
:1054D000892B80939E030E94C82DEA81FB81CE0117
:1054E0000696309729F06C897D89DF91CF910994D8
:1054F000DF91CF91089580E0089590919B0192FFF4
:105500000DC0282F2871283019F4877F846006C0C9
:10551000282F2471243011F48B7F886093FF0DC0F5
:10552000282F2871283119F4877E846106C0282F1E
:105530002471243111F48B7E886120919C0120FF1D
:105540000DC0382F3871383019F4877F816006C05C
:10555000382F3171313011F48E7F886021FF0DC0FA
:10556000282F2871283119F4877E816106C0282FE1
:105570002171213111F48E7E886194FD877E08951A
:10558000CF93E5E2F1E06AE271E080E041E09191E1
:105590009F3FA1F0A92FA295AF70B0E090962C91FB
:1055A00030E09F7002C0359527959A95E2F720FD6F
:1055B00002C0242F02C020E030E0822B440F6E177F
:1055C0007F0729F790917301C1E0981301C0C0E0F3
:1055D000981759F08093730181E080936B050E94C6
:1055E000552990936A058093690580916B058823FE
:1055F00071F08091690590916A050E943A2905979A
:1056000030F0809173018093870110926B058C2F8D
:10561000CF910895CF93DF938238910569F1B0F46B
:105620008133910509F46FC048F48932910509F47A
:1056300065C08A32910509F46BC08AC08533910533
:1056400009F457C089339105B9F082C0833E9105B2
:1056500071F138F4803E9105B1F0823E910511F16F
:1056600077C0863E9105B9F1873E9105C9F1843E28
:10567000910509F06DC024C020919B0120FD53C00D
:1056800021FD51C065C080919B0180FD46C0809185
:105690009C0180FF48C080919B0184FD50C183EE36
:1056A00090E04FC180919B0182FF3AC0F4CF80917E
:1056B0009B0182FD35C080919C0180FD34C0EBCF01
:1056C00080919C0181FF35C080919B0184FD37C191
:1056D00087EE90E036C180919B0183FF27C0F4CF15
:1056E00080919B0183FD22C080919C0181FD21C09E
:1056F000EBCF80919B0185FD1FC021C080919B0154
:1057000085FD1DC019C080919B0186FD1BC01DC079
:1057100080919B0186FD19C015C089E390E011C1FD
:1057200082EE90E00EC180EE90E00BC186EE90E03C
:1057300008C184EE90E005C189E290E002C185E3F2
:1057400090E0FFC08AE290E0FCC081E390E0F9C005
:10575000811531E5930708F069C0811540E594078C
:10576000F0F09C0174E0369527957A95E1F7922F39
:105770009370482F437021E030E002C0220F331FA6
:105780004A95E2F73C68392B982F9F70969596952D
:1057900040E2949FC0011124822B932BD2C0883EFB
:1057A000910568F5803E910508F0CBC0883A9105D7
:1057B000B8F4853A910548F0855AE82FF0E0E65CA8
:1057C000FE4F808190E09064BCC08130910509F467
:1057D000B3C008F4B4C08430910508F4B0C0B1C0BF
:1057E0008F3B910508F0ABC0885AE82FF0E0EE0F30
:1057F000FF1FE35CFE4F808191819464A2C08115FC
:1058000020E2920758F4811531E0930708F099C01F
:10581000803F910508F493C0906593C0811540E4E2
:10582000940708F48CC09F70906A8BC0811525E5A1
:10583000920708F042C0811534E5930728F0982FAD
:105840008827846F906A7DC0811543E59407B0F086
:105850009C012370332741E050E002C0440F551FE4
:105860002A95E2F7282F2695269580E2289F900119
:105870001124CA01822B932B9A6863C0811522E5FB
:10588000920728F4982F8827816F906A5AC09C014C
:105890002370332741E050E002C0440F551F2A9582
:1058A000E2F7282F2695269580E2289F9001112463
:1058B000CA01822B932B9C6844C0EC01811539E509
:1058C0009307A8F48115984528F09C2F8827806FAE
:1058D000906A37C0C11586E5D80788F58C2F0E94DD
:1058E0007D2A8F7190E0982F882790622AC08115B9
:1058F0002AE5920790F48C2F8F700E947D2A94E005
:10590000D695C7959A95E1F7CF70D0E0DC2FCC27DC
:10591000D0699E01282BC90114C090568115904270
:1059200070F48D2F8F710E947D2A282F2F71CE0148
:1059300099279062922B05C081E090E002C080E040
:1059400090E0DF91CF910895CF93C92F682F84E025
:1059500090E00E949A326C2F82E290E0CF910C94FA
:105960009A32CF9384E090E00E948C32C82F82E27A
:1059700090E00E948C322C2F30E0A901582BCA01F4
:10598000CF91089569EE7EEF80E090E00E94B832FA
:1059900060E082E090E00E949A3260E083E090E074
:1059A0000E949A3210927E0160E084E090E00E94B2
:1059B0009A3260E082E290E00E949A3260E085E0F4
:1059C00090E00E949A3260E086E090E00E949A3275
:1059D0006FEF87E090E00E949A3240E050E0BA0119
:1059E00088E090E00E94AC3260E08DE090E00E94A0
:1059F0009A3240E050E0BA0188E190E00E94AC3277
:105A000060E087E190E00E949A3240E050E0BA0105
:105A10008CE190E00E94AC3260E070E080E290E0C7
:105A20000E94B83240E050E0BA0188E190E00E9464
:105A3000AC3280E00E9465240E947F2440E050E068
:105A4000BA018FE090E00E94AC3240E050E0BA0131
:105A500083E190E00C94AC3280916805882331F0AA
:105A60001092680510926705109266050895CF930D
:105A700090919C0192FD0DC090916805981749F096
:105A8000C82F0E9455299093670580936605C0939F
:105A90006805CF910895809590919E038923809306
:105AA0009E030895809590919D01892380939D0187
:105AB000089590919D01892B80939D0108951092E6
:105AC000650510926405109263050895209165059F
:105AD0008095822380936505982F977099F430E024
