:100000000C9473020C9490020C94AB020C9490022A
:100010000C9490020C9490020C94722A0C9490020E
:100020000C9490020C9490020C9490020C94900208
:100030000C9490020C9490020C94FC290C94900265
:100040000C9490020C9490020C9490020C949002E8
:100050000C9490020C9490020C9490020C949002D8
:100060000C9490020C9490026B0B6B0B9B0B9B0BF4
:10007000340C520C980D980D5D0CD00CE30CE30C75
:10008000A913BF13C913021419142C1443145214C6
:1000900092149714C014E41419151C15291535155C
:1000A0004B1583159415BA15DC15FD377A585A008F
:1000B0000004E6D6B4460200210116000000742FA9
:1000C000E5A3E000D4008E5D003D8889C65436C3A8
:1000D000174FE4E46873BE9BC85ADE4DB47AB16131
:1000E000AF4BA30DF1A3877D1E59F9471A03ADE667
:1000F0006DBE1B698AA17B81EC5B92F466887205F8
:10010000E07ED03D2496ACBFE5961B86D98CC232EA
:10011000EF058BB41FCEB4EB56184F863DB38F7DE1
:100120008524FB1AED6363531F209F9A2FE4669E7C
:10013000544E9B82319812FB230E275BF127CD1D75
:10014000C73582BA3E454FFA44B165857324C72D41
:10015000EB382C6967B502000000D568B32C23CFBB
:10016000949E0001AA01D501000079ECFA56B1C4B1
:1001700067FB020000000004595AA900AA00BB0056
:10018000BC000153AC00AE00AB0049000000000011
:100190000153AC00AE00AB004900000000000100BC
:1001A00001009802041C361C0000020002009402A8
:1001B000041C361C0000030001009902041C361CBC
:1001C0000000040002007E02041C361C7D1B05009A
:1001D00001009A02041C361C000006000200800286
:1001E000041C361C0000070002009602041C361C8A
:1001F0000000080001009B02041C361C00000900DE
:1002000002008202041C361C581B0A0002008402F1
:10021000041C361C581B0B0002008602041C361CF2
:10022000581B0C0002008802041C361C581B0D00D1
:1002300002008A02041C361C581B0E0002008C02AD
:10024000041C361C581B0F0002008E02041C361CB6
:10025000581B100002009002041C361C581B110091
:1002600002009202041C361C581B120002009C0261
:10027000041C361C0000130002009E02041C361CE5
:10028000000014000100A002041C361C0000150030
:1002900000000000D11A861B000005010902A1011F
:1002A00085020901A1000509190129081500250188
:1002B0009508750181020501093009311581257FF5
:1002C00095027508810609381581257F9501750805
:1002D0008106050C0A38021581257F950175088174
:1002E00006C0C005010980A101850319012AB700D4
:1002F000150126B700950175108100C0050C090194
:10030000A101850419012AA002150126A002950168
:1003100075108100C00660FF0961A1010962150026
:1003200026FF009520750881020963150026FF004D
:10033000952075089102C005010906A1010507195C
:10034000E029E715002501950875018102950175E1
:100350000881030507190029FF150026FF009506EF
:100360007508810005081901290595057501910297
:10037000950175039103C01C037600690061006C50
:10038000003A006600360034006300320062003339
:100390000063000000100350006C006100790065EC
:1003A000007200210000001C036A006F0068006EEC
:1003B0000062006F00790073006D006F006F0074C1
:1003C00000680000000403090409025B0003010047
:1003D000A0FA090400000103010100092101010044
:1003E0000122400007058103080001090401000201
:1003F00003000000092101010001222200070584F9
:1004000003080001070504030800010904020001B4
:1004100003000000092101010001227B0007058380
:10042000030800011201100100000008A020E242B0
:1004300010010102030100000000000000000000A4
:1004400000000000000000000000000000000000AC
:10045000000000000000000000007E0F00D4FFFF3D
:10046000FFC70000007800000000000000002A2BF9
:100470002800000000000000000000000000000054
:100480000029000000002C1E3420212224342627BD
:10049000252E362D3738271E1F20212223242526DE
:1004A0003333362E37381F0405060708090A0B0CAC
:1004B0000D0E0F101112131415161718191A1B1CF4
:1004C0001D2F3130232D350405060708090A0B0CB2
:1004D0000D0E0F101112131415161718191A1B1CD4
:1004E0001D2F3130354C11241FBECFEFD8E0DEBFB9
:1004F000CDBF11E0A0E0B1E0E2EEF7E602C005906A
:100500000D92AE36B107D9F725E0AEE6B1E001C0F5
:100510001D92AA3BB207E1F70E94020E0C94EF3342
:100520000C940000A82FB92F80E090E041E050EA41
:10053000609530E009C02D9182279795879510F03E
:1005400084279527305EC8F36F5FA8F30895EADF2C
:100550008D939D930895CF93CFB7CF93DF93C3959A
:100560004B9BE9F74B9B10C04B9B0EC04B9B0CC0A9
:100570004B9B0AC04B9B08C04B9B06C0C0916E05AD
:10058000C395C0936E058EC06F93C0919405DD270F
:10059000C956DA4F2F9365E54B9B03C02F916F919E
:1005A000E1CF0F931F934F9320E040E15F9309B198
:1005B0000C7003FB27F93F9350E03BE039C01C70FF
:1005C00040642F77012F5F5F1EC0406819B11C7017
:1005D0002F7752501FC0406409B12F770C70D1F1B2
:1005E0005F5F00C023C0406219B12F771C7091F18A
:1005F0005F5F00C025C00C701027515012F45D5F82
:100600000000115027952C3F19B1C8F61C70012726
:10061000015027952C3FC8F64227499309B10C7029
:1006200010274F73115027952C3FA8F646954695F5
:1006300019B11C7079F00127015027952C3F98F6CD
:100640006B5A60F3315009B1B0F600C012E01CBB28
:1006500000271CC03B503195C31BD04012E01CBB8F
:100660000881033C21F10B3411F12091920519818D
:10067000110F1213EDCF4A81441F093679F10D3263
:1006800011F0013E29F74F7009F0042F0093B905CE
:100690003F915F914F911F910F912F916F91CCB32B
:1006A000C1FD5DCFDF91CF91CFBFCF911895209144
:1006B000B905222369F310919505112309F049C06A
:1006C00034300AF448C03093950520939305109177
:1006D00094053BE0311B309394053DC00091950596
:1006E0000130BCF50AE54F7049F430911C0134FD2E
:1006F00033C000931C01CFE6D5E032C0433059F03F
:10070000443091F030917A0534FD26C000937A058B
:10071000CBE7D5E025C03091AD0534FD1DC0009379
:10072000AD05CEEAD5E01CC03091860534FD14C07D
:1007300000938605C7E8D5E013C0052710E000C088
:1007400000000BB91AC0052710E0221F1DC010E0E1
:1007500021C04AE502C032ED432FC4E1D0E032E0CF
:100760001AB11C605B9A0BB11AB95CE020E865E332
:1007700020FF05270BB9279517951C3FF0F66695C6
:10078000B8F7B1F720FF05270BB9279517951C3F40
:10079000D0F62795179517FF052700001C3F0BB9CA
:1007A000B0F629913A9519F7037F10919605110F2C
:1007B000C651D0400BB911F01093920512E01CBB4A
:1007C00008601AB1137F402F437F54E05A95F1F728
:1007D0000BB91AB94BB95CCF2F923F924F925F92EF
:1007E0006F927F928F929F92AF92BF92CF92DF9241
:1007F000EF92FF920F931F93CF93DF93CDB7DEB7A6
:100800002C970FB6F894DEBF0FBECDBF7C01DC0184
:1008100013964D915C91149711966C9111978C9150
:100820000E94A91D81110C94E90D61E0C7010E948D
:1008300072308C01F7018281811106C0D7011296B6
:100840003C9031103EC083C680910D0190910E0105
:100850000196A1F373EAC72E73E0D72EA12CB12C19
:100860009924939480910D0190910E018A159B0516
:100870002CF3F60186818823E9F08185928508179B
:10088000190739F48091A1039091A2030817190761
:1008900089F0D6011F969C921F971C961C930E936D
:1008A0001B97C6010E94412BC60106960E94FA2A98
:1008B0001092A003BFEFAB1ABB0AE6E1CE0ED11C2B
:1008C000D1CFC80182519F45409708F0AFC08FEF4C
:1008D00093E00E946033811127C602516FE5A62E76
:1008E000BB24B394002379F0A114F4E0BF0609F40B
:1008F0001BC6C5010E946033811101C001502FEF5A
:10090000A21AB20AEFCF19821A821B821C82CC244F
:10091000CA9485010F5F1F4FC5010E946033898310
:100920001A82882309F400C6813009F07AC0450193
:1009300032E0830E911CC8010E946033D82E8A8356
:10094000882309F4F1C58FEF8D0D833050F40E5FCD
:100950001F4FC4010E9460338B83811162C0580114
:10096000D8CF8BEF8D0D833070F5350143E0640EE9
:10097000711CC4010E9460338B83811102C083010A
:10098000EECF85010C5F1F4FC3010E9460338C8343
:10099000882329F32B813C8121305FEF350718F044
:1009A000922F80E001C0C901A6E0DA1631F0B7E06D
:1009B000DB1631F00E947A24D2CF0E94F523CFCFEC
:1009C0000E946C23CCCFE4E0DE1611F08401C7CF87
:1009D000C4010E946033D82E85010C5F1F4FC501F2
:1009E00003960E946033DD2009F49EC5882309F434
:1009F0009BC5282F30E021503109C29EA001C39E23
:100A0000500D11248D2D90E00197840F951F0197B3
:100A100008F4A5CFAFE9BFE01197F1F700C00000DF
:100A2000F6CFCE0101960E94962F99CF0031EFE5C7
:100A30001E0731F00131FFE51F07A9F482E001C074
:100A400081E00E94DE160E9404286EC5680127E539
:100A5000D21A3FEFC316D10409F008F487C5F70195
:100A600032803320D1F00F35FDE51F0761F00036ED
:100A70002DE5120761F00E353DE5130771F4809105
:100A80000001811104C081E0809300014DC51092E6
:100A9000000180E00E94191D47C58091000181116D
:100AA00008C0C80197558F3F910509F008F47AC135
:100AB000CDC1480140EE841A910820906A058091CA
:100AC0006405282A80919E01282A58E08516910401
:100AD00080F498012770332781E090E001C0880FEF
:100AE0002A95EAF7332011F0282A18C08095282289
:100AF00015C0332009F416C11093710100937001E1
:100B00000E94312A6093730270937402809375027D
:100B10009093760210927B0210927A02D7018D9107
:100B20009C910E94711621E030E0F90102C0EE0FA5
:100B3000FF1F8A95E2F7FC87EB8720917C023091BA
:100B40007D0238872F8340917001509171015A873F
:100B500049871D82432C512C5D81E52FF0E0EE0F7B
:100B6000FF1FEA5EFC4FC080D180C114D10409F49C
:100B7000F0C0211005C0D60112968C918111CEC013
:100B8000F601838190E02B853C8582239323892B7A
:100B900009F4C4C08085982F977009F487E038E085
:100BA0008316910440F4332019F081FD09C0B6C0CA
:100BB00082FD06C0B3C0332009F4B0C080FFAEC0D0
:100BC000D601AD90BC900A151B0519F4332009F429
:100BD000A5C0EF81F885CE16DF0609F49FC0D601C7
:100BE0001D96ED91FC911E97309721F0808188230E
:100BF00009F494C0622DC6010E94891D882309F45E
:100C00008DC00A151B0511F4320102C0612C712C34
:100C1000B62DB170BE8381E0A114B10441F0B111D1
:100C200006C0E985FA85AE16BF0609F080E080FFB0
:100C300075C080E00E94191DD0927D02C0927C0296
:100C400081E080937902D60115968C91809377028A
:100C5000BE81B11113C0AB2889F0F601808191816A
:100C60009C0124503109213A310530F4682F8EE877
:100C700091E00E949B2A02C00E944117D60116965D
:100C8000AD90BC901797C5019A9581159F4110F4BE
:100C9000E0EEBE2255245394C5010197853A9D4547
:100CA00008F0512CD6011996ED91FC911A973097C6
:100CB00039F01B966D917C911C9781E00995582223
:100CC000552029F1F601868197810E94E7328093B1
:100CD0007802C501F8E08F16910418F40E94C81C30
:100CE00016C00497813A910530F46A2D8EE891E0A0
:100CF0000E94A82A0EC00E94B02E8FE39CE90197A3
:100D0000F1F700C000008A2D0E94731702C00E94F4
:100D1000B02E91E0692660FE79C1C3CEAD81AF5F90
:100D2000AD831ACF80917001909171010817190756
:100D300081F410927101109270011092730210925E
:100D40007402109275021092760210927B02109239
:100D50007A0280917C0290917D02009709F4A1CEE5
:100D6000B8E08B16910438F4622D0E94891D811120
:100D700098CE81E014C0FC01208131810217130755
:100D800029F4311006C01092790208C0332009F40A
:100D900088CEDC0118968C9185FD83CE80E00E9480
:100DA000191D7FCE20910D0130910E0128173907B2
:100DB00024F490930E0180930D01F701228136E116
:100DC000389F5001399FB00C1124A5014D555C4F3F
:100DD0006A01DA0150962C935097928116968C9165
:100DE0001697992341F11A961C930E9319978F5FCA
:100DF00016968C930E943D2AF601968785878091EE
:100E00006A0587839091A00380919E01892B80873A
:100E10000190F081E02D309749F0D60154966D9104
:100E20007C915597C50187559C4F09951093A20356
:100E30000093A1030BC0882349F0FA01818988231C
:100E400029F0C50187559C4F0E94FA2A809199028A
:100E500080FF9DC00E943D2A6C01D70112968C91A3
:100E60008823D9F18091190182FF08C028E731E079
:100E700040E0B60180E090E00E94561F0B31BCE5D7
:100E80001B0779F00C31ECE51E0789F00A31FCE50F
:100E90001F07A1F480911901982F909590FB80F97C
:100EA00009C08091190181608093190107C0809168
:100EB00019018E7F809319010E94191FC801905655
:100EC000811520E2920720F0905E8115904180F517
:100ED0001092C2011092C1015AC0013E110521F4C5
:100EE000809119018F7E06C0053E110531F4809175
:100EF00019018F7D809319011BC0C801905681157F
:100F000040E2940720F0905E8115904188F4809132
:100F1000190182FF3CC080919B0281FD38C028E707
:100F200031E040E0B60180E090E00E94561F2FC003
:100F30008091190180FF2BC0D70112968C91083245
:100F4000110538F40E311105B8F40430110578F4A8
:100F50001CC00933110538F40D32110590F40B3221
:100F6000110579F012C00436110559F00EC09091A8
:100F7000990294FD0AC04DC09091990293FD05C05D
:100F800048C09091990292FF44C08111EFC0033F85
:100F9000FCE51F0709F417C108F01BC1083D3CE53B
:100FA000130709F40AC1093D4CE5140709F42DC1E2
:100FB000073D5CE5150709F4FAC0D70112962C919C
:100FC00021112CC10631BCE51B0709F08EC28091AE
:100FD0009E01982F9A7A3091980230FD5FC231FDC0
:100FE00063C232FD67C233FD6BC2222309F471C2B2
:100FF00081E0911101C080E080937201992309F48E
:1010000066C265E38EE891E00E94A82A0E94B02E95
:101010008BC2882309F4A3C020919E0180916A05A8
:10102000982F922B392F3D7F79F11092C2011092A7
:10103000C1013091990231FD27C0F80143E0F695D6
:10104000E7954A95E1F7EE71FF27E156FE4F9801CB
:101050002F70332781E090E002C0880F991F2A95F6
:10106000E2F78095909520813181822393239183AB
:101070008083A70160E0C8010E94371F80916A0544
:101080008D7F0E941F2E67C038E0F701A8E7B1E00E
:1010900001900D923A95E1F710927A0110927C013D
:1010A00010927B014091C1015091C20104171507B4
:1010B000D1F53091990235FF36C04091190141FFB9
:1010C00002C036FF30C04091BF015091C001B6014F
:1010D000641B750B40919602509197026417750737
:1010E00010F521FF08C080911901806180931901DA
:1010F00082E00E943A2E80919E0185FF08C0809177
:10110000190180628093190180E20E943A2E609159
:10111000190166956170A7018091C1019091C2018A
:101120000E94371F01C2969591702091190190FB82
:1011300021F9209319018D7F0E941F2E1093C20167
:101140000093C101D092C001C092BF0180911901EA
:1011500084608093190182E00E944E2EE5C19701C0
:1011600040E0B601C8010E94561FDEC11092C201C4
:101170001092C101033FBCE51B0729F170F4083D43
:10118000FCE51F07D1F0093D2CE51207F1F1073D01
:101190003CE5130709F042C00AC0053F4CE51407BF
:1011A00019F1E0F0063F8CE5180749F137C006E277
:1011B00021EE41EE67ED7CE52DC007E225EE45EE20
:1011C00068ED7CE527C006E221EE40EE63EF7CE5AA
:1011D00021C0053F8CE5180739F060F407E225EEE1
:1011E00044EE64EF7CE516C006E221EE42EE65EFC8
:1011F0007CE510C0063FACE51A0709F0DECE07E239
:1012000025EE46EE66EF7CE505C008E221E045EEFE
:1012100069ED7CE5C7010E94511C86C11092A402B1
:101220000330BDE51B0758F40A3FECE51E0780F4C8
:10123000C80182509C45449708F02EC109C0013670
:10124000FDE51F0729F0053A2DE5120709F024C135
:101250000E94992D90939D0180939C0101313CE562
:10126000130709F4C6C008F042C009305CE5150751
:1012700009F49BC000F505309CE5190709F485C009
:1012800078F40330BCE51B0709F478C008F07AC095
:1012900002301C4509F0F7C080919C018160F1C0CB
:1012A00007302CE5120709F478C008F07AC0809165
:1012B0009C018061E6C00D304CE5140709F487C03D
:1012C00058F40B308CE5180709F479C008F07BC09E
:1012D00080919C0188606FC00F30ACE51A0709F45B
:1012E00080C008F082C080919C01877FCAC00D3FFA
:1012F000ECE51E0709F471C000F505312CE5120775
:1013000009F485C068F403314CE5140709F475C08D
:1013100008F095C00E94171780919C018F77B1C08B
:101320000B3F8CE51807A9F108F054C00A3F1C4593
:1013300009F0A9C080919D0140C00130BDE51B07A7
:1013400009F489C058F40F3FFCE51F0709F45AC09F
:1013500008F069C080919D0182602FC001363DE593
:10136000130709F47EC0053A4DE5140709F483C05C
:1013700002301D4509F087C060E06EC080919C017D
:1013800082607FC080919C0116C080919C01886022
:1013900078C080919D0182604FC080919C018062E5
:1013A00070C080919C0180646CC00E94171780916E
:1013B0009C01806866C0846064C081603DC080918B
:1013C0009C018E7F5EC080919C018D7F5AC0809170
:1013D0009C0116C080919D0118C080919D018D7F58
:1013E0002BC080919C018F7E4CC080919C018F7D91
:1013F00048C080919C018F7B44C080919C01877F75
:101400008B7F3FC080919D018D7F8E7F15C0809125
:101410009C0182FB222720F991E0922790FB82F920
:1014200090FB83F92EC080919D01982F909591702B
:101430008E7F892B90FB81F980939D0124C00E94AF
:10144000171780919C0187FB222720F991E09227B2
:1014500090FB87F916C061E08EE090E00E946E3349
:1014600012C080919C0184FB222720F991E09227F1
:1014700090FB84F906C080919C01982F909590FB79
:1014800080F980939C0180919C0190919D010E9424
:101490008C2D0E94171748C021E094CD482F44742A
:1014A00009F49DCD90E09BCD482F417109F499CD71
:1014B00090E097CD482F487809F495CD90E093CDF2
:1014C000827209F492CD222321F01092720169E216
:1014D00099CD80917201882311F065E301C069E222
:1014E0008EE891E00E949B2A91CDD70112968C91B3
:1014F000882309F49CC00A358DE5180709F492C0C9
:1015000008F081C00115ACE51A0709F076C00E9409
:1015100017172FEF34E34CE0215030404040E1F703
:1015200000C000000E94E72980916705877009F4D8
:1015300050C3D70112968C91882309F44AC3809135
:101540009D0182FD46C382E00E944E2E42C30031BF
:10155000FFE51F0721F481E00E94D21674CA013111
:101560002FE5120709F072CA82E0F6CF6BEB72E04A
:101570008C2D0E946E21892B09F071CA86E18C9D09
:10158000F0018D9DF00D1124ED55FC4F86818130C9
:10159000E1F48091BB029091BC02892B09F45FCAEF
:1015A0008091BD029091BE02892B09F458CA8091A6
:1015B000BF029091C002892B09F051CA8091C102EB
:1015C0009091C202892B59F04ACA823009F047CA69
:1015D0008091BF029091C002892B09F440CA26E194
:1015E0002C9DC0012D9D900D11248D559C4FDC012B
:1015F00050961C920E94412B32CA0E3D1C45B9F4F4
:101600000E94AA2D91CF0B35EDE51E0769F00C3530
:101610001D4569F480919D0182FB882780F991E046
:10162000892703C081E001C080E00E946B2EF70192
:10163000868197810097B9F4F70182810081118139
:10164000882349F0C8010E943516D82E682FC8019A
:101650000E94A11604C0C8010E947116D82EB801BC
:101660008D2D0E949C200E94F22B182F092FD7014C
:101670001296BC9012971596CC90C2943FE0C3226C
:10168000809167058770B9F0BB20A9F0892F807F12
:10169000803421F080E2810F883068F080919D01D4
:1016A00082FD09C082E00E944E2E809167058770FE
:1016B000AA24A3948111A12C902E92942FE092221F
:1016C000892D90E08C30910508F032C2FC01EC5C71
:1016D000FF4F0C94D233902F9F70802F807FD92E94
:1016E00019F0D29490EFD922BB20A9F0DD2009F4A3
:1016F000FFC180E2810F883010F0111104C08D2DE0
:101700000E94412E05C08091A003D82AD092A00348
:101710000E94B02EEDC1812F0E944117DD2009F4F7
:1017200007C280E2810F883068F1112359F18D2DB5
:101730000E94332E2AC0902F9F70802F807FD92E39
:10174000803219F0D29480EFD822112321F0113089
:1017500009F45CC067C080919D0182FF19C0BB2065
:1017600059F0DD2029F08D2D0E94412E0E94B02ECF
:1017700080E00E947317DCC180E00E944117DD20E9
:1017800009F4D6C18D2D0E943A2E0E94B02ED0C1F0
:10179000BB2001F1CC20D1F0B1E0CB1206C080918A
:1017A0006A058D290E941F2EC3C180919A02823042
:1017B00068F0C8120BC00E94142E80916405D812E4
:1017C000D09264058D2D0E943A17B2C180916A05AE
:1017D0008D29F9CFCC2079F080919A02E1E0CE12E8
:1017E00010C0823008F4A4C180919E018D2109F4BB
:1017F0009FC10E94F32E0E94142E8D2D0E9433173C
:1018000097C18230C0F3C812F6CF92C18091A00276
:10181000BB2021F08C1508F48BC1D4CFC81608F07A
:1018200087C1EBCFBB20E9F0CC2061F220E0D701EB
:101830004C9111965C91119712966C911297139698
:101840007C91139714968C910E94493080919B0251
:1018500081FD4EC1F701858180FF4AC18F7085836C
:10186000B1CFC1104EC1C9CF802F869586958370A8
:1018700019F0813061F05CC1BB2021F0812F902FE5
:10188000937002C080E090E00E94D82A57C1BB202C
:1018900021F0812F902F937002C080E090E00E9491
:1018A000C22A4CC1812FBB2019F00E94C62602C05B
:1018B0000E94B9250E948F2541C1802F8370A1F518
:1018C000B1103AC1412F429546954770440F440FDD
:1018D000212F2F7030E0C901042E01C0880F0A9417
:1018E000EAF714FF08C02FE030E001C0220F4A954C
:1018F000EAF7209501C020E0302F369536953370F9
:10190000323069F040F44091B202313019F0822B4C
:10191000842302C0842B822B0E94E9160DC1282B40
:101920008091B2028227F8CFBB2019F0802F8170FE
:1019300001C08695882309F4FFC0412F4295469542
:101940004770440F440F212F2F7030E0C901042E3F
:1019500001C0880F0A94EAF714FF08C02FE030E0B6
:1019600001C0220F4A95EAF7209501C020E0302FF0
:10197000369536953370323051F070F44091190538
:10198000313019F0822B842308C0842B05C0282B0A
:1019900080911905822701C0822B0E94CE16CCC0EF
:1019A000F02FFF70DF2EBB2039F08F2F0E94DE1644
:1019B000812F0E943A17C0C0812F0E9433178D2DAE
:1019C0000E94D216B9C0123F11F128F4103F41F025
:1019D000113FA9F189C0133F01F1143F61F184C0A7
:1019E0008091A002BB2021F0C81608F0A1C003C05E
:1019F0008C1508F49DC0202F2F7181E090E001C06C
:101A0000880F2A95EAF79091190589270FC0802F32
:101A10008F71BB2009F470C087C0BB2051F081E0FA
:101A2000902F9F7101C0880F9A95EAF70E94CE16F9
:101A30007FC080E0FBCF80919D0182FF06C0802F98
:101A40008F71BB2009F470C057C080919A02823018
:101A5000A0F180916405BB20E1F00E943A2E8091B4
:101A600067058770843039F40E94472E802F8F716C
:101A70000E94D2165CC080919A02C81608F057C026
:101A8000202F2F71D22E822F0E94DE1663E08D2D23
:101A90000DC00E94412E80919A02C81650F00E94FB
:101AA000472E0E94F32E64E0802F8F710E94802EBB
:101AB0003EC081E00E944E2E3AC0BB2059F0302F2C
:101AC0003F71D32E832F0E94DE1663E08D2D0E947E
:101AD000802E2EC081E00E944E2E41E04C1540F534
:101AE00082E00E944E2E24C0BB2049F0CC2011F091
:101AF000812F3FCE802F8F710E94DE1619C0CC201F
:101B000089F0193329F480919E0290919F0204C0BC
:101B100080919C0290919D020E944B1F812F0E94F8
:101B2000411706C0802F8F710E94D21601C0A12CD0
:101B300088EF890D843010F40E94EE2A812F902FB7
:101B40000E94ED16811105C010927401109273016C
:101B500025C0BB2019F0C110F7CF20C0C110F4CFB1
:101B600020E0D7014C9111965C91119712966C91DF
:101B7000129713967C91139714968C910E9449307A
:101B800080919B0283FFE0CF80917301909174015B
:101B90000297D1F6812F0E94C717D6CFAA20A9F0AD
:101BA0008091670580FD11C0F701128285958595AA
:101BB00085950E94DE16C7010E94EC03809167059F
:101BC0008595859585950E94D21660E0C7010E9493
:101BD00072302C960FB6F894DEBF0FBECDBFDF91EA
:101BE000CF911F910F91FF90EF90DF90CF90BF901A
:101BF000AF909F908F907F906F905F904F903F90AD
:101C00002F900895CF93DF93CDB7DEB76A970FB6C5
:101C1000F894DEBF0FBECDBF0E943D2A90938A018B
:101C20008093890190E080E80FB6F894809361007A
:101C3000909361000FBE83E69BE290936F018093C7
:101C40006E010E9416230E94BD220E942C220E9437
:101C50001E2080916900886080936900E99A8BE476
:101C600080937B058093AE05809387058AE58093FA
:101C70007A058093AD0580938605539A80E0815064
:101C800041F0A895EFE9FFE03197F1F700C00000BF
:101C9000F6CF5398789482E084BD93E095BD9AEF97
:101CA00097BD80936E000E947625811102C00E942C
:101CB0006725A5E2B1E06CE271E041E050E08D9172
:101CC0008F3F21F46A177B07D1F715C0E82FE29503
:101CD000EF70F0E021A18F708A0102C0000F111F88
:101CE0008A95E2F7C801902F9095922391A392A133
:101CF000892B82A3E7CF109288011092750180E0B2
:101D000090E00E946833893E9E4F21F40E94762520
:101D1000811102C00E94AA2D82E090E00E946033EF
:101D2000809376010E94992D90939D0180939C0150
:101D30000E94A82B8FE39CE90197F1F700C00000F7
:101D40000E94A82B8091880180FF08C06FEF7FEF71
:101D500080E090E00E948C330E94E72983E090E0CD
:101D60000E9460330E94E9162198299A22982A9AA3
:101D7000EFE8F1E03197F1F700C0000083B18695FC
:101D800081701A9B02C092E001C090E0892B809381
:101D9000820181E091E09093560480935504FFEF17
:101DA00000E712E0F15000401040E1F700C00000F1
:101DB00022242394312C8E010F5F1F4F2AE9422EDB
:101DC00022E0522E32E3632E712C80916E0588231F
:101DD000A1F010926E050E943D2A90938A01809393
:101DE000890180915A04882309F441C010925A0451
:101DF0000E9417170E94EE2A11C080915A04811187
:101E000011C08091890190918A010E94222A06972F
:101E100028F081E080935A040E94492A80915A0454
:101E2000882329F181E080935A040E94492A0E9464
:101E3000A82B80918801882341F2F8942AB15B9AFB
:101E4000822F8C608AB99BB18CE098279BB94FE7B1
:101E500098E3E1E041509040E040E1F700C000002D
:101E60009BB189278BB92AB95B987894AECF0E9431
:101E70000F288091F104882309F466C280917A05C5
:101E800084FF62C20E94A82B81110E94312A2091F6
:101E9000880190917701922719F180E0FF24F39453
:101EA000392F3F21C9F08B871C862F2181E009F44F
:101EB00080E08D870E943D2A8160782F9F878E87E2
:101EC0004B855C856D858F850E9480308091770180
:101ED000F826F092770114C08F5FFF0C873001F76E
:101EE0008FEF888B898B1A8A0E943D2A8160782F18
:101EF0009C8B8B8B488959896A898C890E94803098
:101F000080917A0290917B02892B09F43EC0409126
:101F10006F025091700260917102709172022FB73E
:101F2000F89480915B0490915C04A0915D04B09161
:101F30005E042FBF841B950BA60BB70B40916B0261
:101F400050916C0260916D0270916E02841795073A
:101F5000A607B707D0F080917A0290917B020E9489
:101F60002E3310927B0210927A0210926F0210921E
:101F70007002109271021092720210926B02109213
:101F80006C0210926D0210926E0280910D01909180
:101F90000E01019659F1912C20C036E1389FF001D5
:101FA000399FF00D1124ED55FC4FC288D388C11420
:101FB000D10421F4C0909602D090970246E1489F48
:101FC0005001499FB00C1124C5018D559C4F7C01D7
:101FD000FC01868181110FC09394892D90E020919E
:101FE0000D0130910E0128173907BCF680911A01B6
:101FF000811111C038C0858596850E94222AC81695
:10200000D90650F7C7010E94412BC50187559C4F47
:102010000E94FA2AE1CF8091690290916A020097AA
:1020200011F10E94222A2091C3013091C401281786
:102030003907C8F49091670280916802981759F0A7
:102040000E946A1E1092C4011092C30110926A028B
:102050001092690208C00E94E61D10926A02109256
:1020600069020E944B1E8091990280FF1EC08091E0
:10207000190182FF1AC00E943D2A2091BF013091B0
:10208000C001AC01421B530B209117013091180184
:102090004217530750F028E731E041E0BC0180913E
:1020A000C1019091C2010E94561F80918201E82FC8
:1020B000EE0FEE0FE093820183B1869581708D8BD8
:1020C0001E8A1A9B03C082E090E002C080E090E08C
:1020D0002D893E89822B932B8E2B809382018F70CA
:1020E000E82FF0E0E45DFE4F908180918101890F3F
:1020F0008093810184305CF0809180018F5F8093B8
:10210000800160E080E00E94262421E001C020E000
:10211000809181018D3F54F48091800181508093A2
:10212000800161E080E00E94262421E0809181010D
:10213000082E000C990B64E070E00E94BE3380937F
:10214000810121110E94312A86E0ECEAF2E0D801F7
:1021500001900D928A95E1F7C090AE02D090AF0247
:10216000E090B002F090B1021092AE021092AF0275
:102170001092B0021092B102C11003C0DD2009F428
:102180005DC08091AA029091AB020E94222AAC010C
:102190009091A602992339F02091150130E024177F
:1021A000350758F04BC0209116018AE0289F900116
:1021B00011242417350718F041C09F3F19F09F5F85
:1021C0009093A602CC2061F00E9477261C1414F490
:1021D00091E001C09FEF899F802D11248093AE0272
:1021E000DD2061F00E9477261D1414F491E001C0F7
:1021F0009FEF899F802D11248093AF023091AE0212
:102200003323E1F02091AF022223C1F045EB3403E8
:10221000C0011124992319F09093AE0203C081E00C
:102220008093AE0235EB2303C0011124992319F0EA
:102230009093AF0203C081E08093AF02E11003C02E
:10224000FF2009F45DC08091A8029091A9020E942C
:10225000222AAC019091A502992339F02091110115
:1022600030E02417350758F04BC0209112018AE066
:10227000289F900111242417350718F041C09F3F73
:1022800019F09F5F9093A502EE2061F00E943E2618
:102290001E1414F491E001C09FEF899F802D11243A
:1022A0008093B002FF2061F00E943E261F1414F4B8
:1022B00091E001C09FEF899F802D11248093B1028E
:1022C0003091B0023323E1F02091B1022223C1F01A
:1022D00045EB3403C0011124992319F09093B00207
:1022E00003C081E08093B00235EB2303C0011124C9
:1022F000992319F09093B10203C081E08093B10259
:102300008091AE0281110BC08091AF02811107C094
:102310008091B002811103C08091B10281110E94AD
:102320008F25CB82DC82ED82FE8286E0F801ACEA6A
:10233000B2E001900D928A95E1F70E94EE2A909109
:1023400083018913809383010E948C290E940F28A6
:102350008091F104882309F438CD8091AD0584FF84
:1023600034CD8091E704803209F02FCDE0909A01BE
:10237000F0909B018091F904E114F10469F08E3F23
:1023800009F043C48091FA04833008F4D5C1855024
:10239000833008F03AC4D0C18B3009F4B8C138F5A5
:1023A000853009F46FC0D8F48230E9F138F4813017
:1023B00009F028C41092FA0489E0B1C2833009F40C
:1023C0004FC0843009F01EC44091FC046091FB04AE
:1023D0008091FA040E9403229093FD0425C4873063
:1023E00009F410C408F00EC40E94B8200EC4803155
:1023F00009F4C3C060F48D3009F456C008F452C02B
:102400008E3009F456C08F3009F483C0FBC382318B
:1024100009F4BAC008F4B4C0833109F4E3C08E3FB4
:1024200009F48AC1EFC38091FA04823009F4F2C33F
:10243000833071F0813009F0E5C30E94312A909316
:10244000FB048093FC047093FD046093FE04DDC3E1
:102450008091960190919701892B09F0E8C3D5C32B
:102460008091FA04823009F0CDC36091FB04709131
:10247000FC048091FD049091FE040E94D8330E94D8
:102480004525C3C32091FD043091FE043227232744
:1024900032274091FC046091FB048091FA040E9471
:1024A000D221B3C380E16DC082E08093FA0481EA57
:1024B00036C2E090FA04F090FB04FE24EF24FE24E0
:1024C000A090FC04B12C4DE1A416B10408F09DC30A
:1024D00089EFC82E84E0D82EC701815A9E4F9601FD
:1024E000295F34402A153B0508F08FC3E1EAEE1658
:1024F000E2E0FE0628F40E946033F601848302C005
:10250000F6011482FFEFEF1AFF0A2FEFC21AD20A68
:10251000E3CF8091960190919701892B09F475C3BF
:10252000E090FA04F090FB04FE24EF24FE24C09017
:10253000FC04D12C3DE1C316D10408F066C3B9EF09
:10254000AB2EB4E0BB2EC701815A9E4F9501295F87
:1025500034402C153D0508F058C341EAE41642E02A
:10256000F40620F4F50164810E946E33FFEFEF1A48
:10257000FF0A2FEFA21AB20AE6CF0E948C2045C3B1
:1025800082E08093FA0441C3E090FA04F090FB04E7
:10259000FE24EF24FE24A090FC04B12C3DE1A31600
:1025A000B10408F032C3A9EFCA2EA4E0DA2EC701A5
:1025B00087969601295F34402A153B0508F025C30C
:1025C0004CE1E416F10428F40E946033F6018483A0
:1025D00002C0F6011482FFEFEF1AFF0A2FEFC21AB2
:1025E000D20AE5CFE090FA04F090FB04FE24EF2439
:1025F000FE24A090FC04B12C3DE1A316B10408F028
:1026000004C34CE1E416F10408F0FFC28CE190E051
:102610008E199F098A159B0508F4F7C2C701879692
:102620009A8F898F8091960190919701892B29F03B
:10263000F9EFCF2EF4E0DF2E61C0E0FE11C0C7013C
:1026400086960E94603390E0982F88272091FD04A1
:10265000822B81159C4539F48FEF8093FD0403C0D4
:10266000C12CD12C03C0CC24C394D12CC7018A0D1A
:102670009B1D450180FF1CC0F1E08F1A9108940159
:1026800023503B4F388F2F8B898D9A8D8A0D9B1D40
:102690000E946033EF89F88D208130E0322F2227AD
:1026A000282B21153C4521F48FEFEF89F88D80838D
:1026B000F601E750FB4F2FEFCF01895F944088155B
:1026C000990508F0B5CF848190E0982F882735814F
:1026D000832B81159C4511F4248325833296ECCFFE
:1026E0004CE1E416F10420F4F60164810E946E339B
:1026F000FFEFEF1AFF0A2FEFC21AD20AC70187961F
:102700009601295F34402A153B0550F37EC2809123
:10271000960190919701892B09F477C20E9466294E
:102720003FEF41EE84E0315040408040E1F700C08F
:1027300000000E94E72969C2E091FA048E2F90E020
:102740008E30910508F061C2FC01E05CFF4F0C94F3
:10275000D23388E0EDE1F1E0D80101900D928A9545
:10276000E1F780E2E9EFF4E011928A95E9F785E07C
:102770008093F90488E0F801ADEFB4E018C280ED71
:102780008093F9041092FA041092FB041092FC0456
:102790003CC28091FC0490E0982F88272091FB0494
:1027A000820F911D092E000CAA0BBB0B45E0880F70
:1027B000991FAA1FBB1F4A95D1F7AC01BD01405E0E
:1027C0005F4F6F4F7F4F481759076A077B0708F421
:1027D0001CC2803D9105A105B10508F016C2413D1E
:1027E00051056105710520F040ED50E060E070E0BA
:1027F000481B590BBC0166557F4F89EF94E00E943E
:10280000473303C2F090FB04E090FC0440E06E2DDF
:102810008F2D0E94A8219093F9048093FA0441E03F
:102820006E2D8F2D0E94A8219093FB048093FC04B1
:10283000ECC18091FE049091FF0498278927982786
:102840000E9435259C014091FD046091FC0480911B
:10285000FB040E948321D9C140E250E06FEF70E099
:1028600089EF94E00E94E833809196018093F90407
:10287000E092FA041092FB0481E08093FC04109231
:10288000FD0484E0D1C130929B0120929A017092A4
:102890008701609286010E943D2A90938501809372
:1028A0008401B3C1EF2889F18091880184FBFF2462
:1028B000F0F886958170F8228091840190918501CD
:1028C0000E94222A85369105E0F0FF20D1F00E9477
:1028D0003D2A909385018093840180918601909197
:1028E000870101979093870180938601892B69F472
:1028F00010929B0110929A013092970120929601BA
:1029000004C0709287016092860180919601809345
:10291000F90480919A018093FA0480918601809352
:10292000FB0473C110929701109296016EC1E09062
:10293000FB04F090FC0440E250E06FEF70E089EFA0
:1029400094E00E94E8332EE931E080E090E0AC01B1
:102950004E5F5F4F4132510508F057C1F901659153
:102960007491E616F70630F4FC01E750FB4F7183D3
:102970006083CA01245F3F4F4216530641F745C1A9
:102980002091FB043091FC048EE991E0FC0145911B
:1029900054912417350731F00C96F2E08A399F07DD
:1029A000A9F730C1009709F42DC1FC013696259195
:1029B00034912115310509F425C14FE150E06AEF4A
:1029C00074E0F90109951FC18091FB049091FC040A
:1029D0002EE9E22E21E0F22EF701259134918217A3
:1029E000930739F0FCE0EF0EF11C4E145F04A1F7E1
:1029F00009C1E114F10409F405C1F70138962591E4
:102A000034912115310509F4FDC04CE150E06DEF22
:102A100074E0C701F9010995009709F0F4C0F701C6
:102A20003A9685919491009711F0FC01099580E008
:102A3000EAC00E944420E9C0E091FB048E2F90E0A0
:102A40008730910508F0E1C0FC01E25BFF4F0C9478
:102A5000D23380E2E9EFF4E011928A95E9F788E059
:102A60008093F9048093FA045ACF8091FC049AE091
:102A7000F92EF8012F2D11922A95E9F7B8010E943D
:102A80006E218093F904F801AAEFB4E001900D9251
:102A9000FA94E1F7BAC0F090FC048AE0EDEFF4E0BC
:102AA000D80101900D928A95E1F789819A810E945F
:102AB00035259A8389838B819C810E9435259C834F
:102AC0008B838D819E810E9435259E838D838F818E
:102AD00098850E94352598878F8337E03F1568F0E9
:102AE0004AE0F49EB001112461597F4F4AE050E062
:102AF000C8010E94923380E001C08FEF8093F904F7
:102B00000E94162382C06091FC048AE0F8011192B1
:102B10008A95E9F7683008F043C0FAE06F9FB0018A
:102B2000112461547F4F35C0F090FC048AE0EDEF32
:102B3000F4E0D80101900D928A95E1F789859A8594
:102B40000E9435259A87898727E02F1568F03AE09B
:102B5000F39EB001112461547F4F4AE050E0C80158
:102B60000E94923380E001C08FEF8093F9040E94AD
:102B7000BD224BC06091FC048AE0F80111928A9555
:102B8000E9F7683068F4FAE06F9FB0011124615FE3
:102B90007E4F4AE050E0C8010E94503380E001C0FF
:102BA0008FEF8093F9048AE0F801AAEFB4E0019076
:102BB0000D928A95E1F729C0F090FC048AE0EDEFD0
:102BC000F4E0D80101900D928A95E1F78B819C8108
:102BD0000E9435259C838B8327E02F1568F03AE00F
:102BE000F39EB0011124615F7E4F4AE050E0C801BE
:102BF0000E94923380E001C08FEF8093F9040E941D
:102C00002C2203C08FEF8093F9040E946629109252
:102C1000E704DBC886E290E00E9460331092FB0478
:102C20001092FC041092FD048093FE04EECF80917C
:102C3000880175CE80E090E00E94D82A80E090E084
:102C40000E94C22A1092A0030E94B02EECEAF2E089
:102C500086E0DF011D928A95E9F71092A602109294
:102C6000A5021092A7020C948F25CF92DF92FF92BB
:102C70000F931F93CF93DF936C01009119058091FF
:102C8000B202082BC7E0D0E010E0C8010C2E02C051
:102C9000959587950A94E2F780FD04C02197A8F7DF
:102CA000F12C09C0FC2EB6018C2F0E949C200E94A2
:102CB000F22B019799F38F2DDF91CF911F910F91F7
:102CC000FF90DF90CF900895CF93DF93EC010E94A7
:102CD0003516BE010E949C200E94F22BDF91CF91FD
:102CE00008959E3F61F127E0929F800D1124682F87
:102CF000669566956695982F977083E0689FB001FA
:102D0000112440E050E080E0FB01E40FF51FE5579F
:102D1000FE4F208130E0092E02C0369527950A9497
:102D2000E2F721703327042E01C0220F0A94EAF73C
:102D3000822B4F5F5F4F4330510531F7089580E09C
:102D400008959E3F51F127E0929F800D1124E82FB6
:102D5000E695E695E695877051E001C0550F8A9596
:102D6000EAF783E0E89FF0011124E557FE4F20E0E9
:102D700030E070E04081CB01022E02C0969587952D
:102D80000A94E2F7817081958427852384278193B3
:102D90002F5F3F4F2330310569F708958093190560
:102DA0000C941A1621E030E001C0220F8A95EAF750
:102DB00020958091190582230C94CE1621E030E0F5
:102DC00001C0220F8A95EAF780911905822B0C9495
:102DD000CE168093B2020C941A1692959F7096307C
:102DE00079F010F4925001C09A50923068F4803F0C
:102DF00069F018F4883E40F409C0843F29F406C005
:102E0000883E20F0813F11F080E0089581E0089530
:102E1000FC0186819781009719F00E94F22B04C073
:102E2000808191810E9464160E94ED16089510928F
:102E30009E0186E0E0E9F1E0DF011D928A95E9F765
:102E40000C941A16882321F00E94332E0C94B02E75
:102E50000895882339F09091A003892B8093A003D3
:102E60000C94B02E0895882321F00E943A2E0C94E1
:102E7000B02E0895882321F00E94412E0C94B02E8C
:102E80000895882379F19CEF980F913A30F4682FD8
:102E90008EE891E00E949B2A0DC090E2980F983036
:102EA00058F4877091E001C0990F8A95EAF7892F4D
:102EB0000E943A2E0C94B02E9BE5980F933020F48C
:102EC00080E090E00C94D82A98E5980F973120F490
:102ED00080E090E00C94C22A803F20F00E94B92547
:102EE0000C948F250895CF93882309F44EC0C82FE2
:102EF0008CEF8C0F813A80F4E0E9F1E086E991E013
:102F00002191C217D1F18E179F07D1F76C2F8EE850
:102F100091E00E94A82A0CC080E28C0F883058F4FF
:102F2000C77081E001C0880FCA95EAF70E94412E60
:102F3000CF910C94B02EEBE5EC0FE33040F4F0E0D1
:102F4000E45CFE4F808190E0CF910C94D82AE8E5B4
:102F5000EC0FE73150F4F0E0EE0FFF1FE15CFE4FA5
:102F600080819181CF910C94C22AC03F70F08C2F48
:102F70000E94C626CF910C948F256C2F8EE891E08D
:102F80000E949B2A0E94B02EC1CFCF9108951F931B
:102F9000CF93DF93182F893329F4C0919E02D091EB
:102FA0009F0204C0C0919C02D0919D02812F0E947B
:102FB0007317209741F08FE99FE00197F1F700C068
:102FC00000002197F6CF812FDF91CF911F910C94B4
:102FD00041172F923F924F925F926F927F928F9202
:102FE0009F92AF92BF92CF92DF92EF92FF920F9398
:102FF0001F93CF93DF93CDB7DEB765970FB6F894E5
:10300000DEBF0FBECDBF8C0185E0F801DE01519619
:1030100001900D928A95E1F7D8014C9011965C9041
:1030200011971296EC9012971396CD90DC9014970E
:1030300060E08AE195E00E9472308AE1A82E85E086
:10304000B82E80901D0590901E05A40160911B056F
:1030500080911A050E94A91DF82E8111E5C13090BA
:103060001C05F601E819F9094F0160E0332009F465
:1030700069C1C5010E9472306090960270909702FB
:1030800020901F058614970408F014C140911D0577
:1030900050911E05B0901A05A0901B05822D807FCF
:1030A0006A2D09F097C08B2D0E94A91D811124C0A3
:1030B000D80111968C9111978A111EC08C918B1199
:1030C0001BC0209120053091210516968D919C9171
:1030D00017972817390781F4E1100EC0822D8F70E1
:1030E000806180931F058AE195E00E94EC03809146
:1030F0001F05F8018583B4C1F4EF6F16F1E07F0678
:1031000020F480919B0280FF21C0A601652D842DB3
:103110000E94A91D811103C081E08E2502C080E0BC
:1031200090E080FF13C04E2D652D842D0E94F92E56
:10313000882361F08AE195E00E94EC03EAE1F5E082
:1031400088E0DF011D928A95E9F78AC1A601652D05
:10315000842D0E94A91D811103C081E08E2502C02B
:1031600080E090E0B82FB170CB2E80FF2AC04E2DAA
:10317000652D842D0E94F92ED82E811122C0498AF6
:103180005A8A89899A890E946416292F22952F705C
:10319000223018F0243078F405C09F7049F0811176
:1031A00007C00DC09F7021F0F8019581907F39F024
:1031B000805E883020F0C8010E94EC03DC2CFD2CDE
:1031C0004FC1EE2009F44BC180911F0581608093AF
:1031D0001F0546C18B2D0E94A91D811124C0D80155
:1031E00011968C9111978A111EC08C918B111BC066
:1031F000209120053091210516968D919C9117976D
:103200002817390781F4E1100EC015962C92C801D9
:103210000E94EC0388E0F801AAE1B5E001900D926C
:103220008A95E1F76FC0C8010E9408178823E1F171
:10323000EE20D1F120911F05822F82958F7090E0B2
:103240000297A4F080911A0590911B059A878987AF
:103250001B86DD86CC862E878091200590912105E6
:10326000988B8F87CE0109960E94EC0388E0F801C5
:10327000AAE1B5E001900D928A95E1F70E94232F13
:1032800016C0F0901A0590901B0540911D055091B5
:103290001E05692D8F2D0E94A91D882399F0C80154
:1032A0000E940817811130C0C8010E94EC03FF245E
:1032B000F394D6C0822D807F21F78AE195E00E94A9
:1032C000EC03ACC0D80111968C9111978911E7CF0E
:1032D0008C918F11E4CF2091200530912105169615
:1032E0008D919C91179728173907C9F6E110D7CF10
:1032F00015962C92C8010E94EC0388E0F50111920A
:103300008A95E9F7F32CACC0EE2071F220911F05ED
:10331000822F82958F7090E002970CF4A7CF809156
:103320001A0590911B059A8389831B82DD82CC82CA
:103330002E83809120059091210598878F83CE015F
:10334000019692CF8AE195E00E94723080919602B8
:10335000909197028816990608F060C0FE2CEE2026
:1033600009F4A2CFE0901A05D0901B0540911D05ED
:1033700050911E056D2D8E2D0E94A91D811140C0FA
:10338000D80111968C9111978D113AC08C918E11A4
:1033900037C0209120053091210516968D919C9182
:1033A00017972817390761F580919B0282FD1FC08E
:1033B00080911F0580FD1BC082958F70482F50E0C3
:1033C00041155105A1F020911F0515962C931597D5
:1033D0004F30510549F08F5F982F9295907F822F43
:1033E0008F70892B15968C93C8010E94EC0388E09E
:1033F000F801AAE1B5E001900D928A95E1F730C09D
:10340000C8010E940817811131CF80911F0581608A
:1034100080931F05C8010E94EC0322C088E0F501DB
:1034200011928A95E9F71CC0EE2009F43DCFC8013E
:103430000E940817F82E882309F436CF88E0F80197
:10344000AAE1B5E001900D928A95E1F780911A0505
:1034500090911B050E9464160E94232F01C0F12C3D
:103460008F2D65960FB6F894DEBF0FBECDBFDF91EE
:10347000CF911F910F91FF90EF90DF90CF90BF9071
:10348000AF909F908F907F906F905F904F903F9004
:103490002F900895EF92FF920F931F93CF93DF9396
:1034A000CDB7DEB760970FB6F894DEBF0FBECDBFC5
:1034B00029873A874B875C876D877E878F87988BB4
:1034C000CE0109960E94E91781114AC088E0FE01E9
:1034D0003996DE01119601900D928A95E1F7E98403
:1034E000FA840C851D85A8016F2D8E2D0E94A91DC3
:1034F000811136C0A0912205B0E0CD010196877000
:1035000099272091630530E08217930781F1E982C2
:10351000FA821D830C8393E0AA0FBB1F9A95E1F7F3
:10352000AD5DBA4F98E0FE01319601900D929A95EB
:10353000E1F7809322050E94192F12C028E0829F94
:10354000C00111248D5D9A4F0E94E9178823E1F094
:103550008091630590E001968770992780936305B9
:1035600080916305909122058913E8CF0DC00E94D8
:1035700017171092220510926305EAE1F5E088E042
:10358000DF011D928A95E9F760960FB6F894DEBFC9
:103590000FBECDBFDF91CF911F910F91FF90EF90A4
:1035A0000895AF92BF92CF92DF92EF92FF920F9366
:1035B0001F93CF93DF934430510508F46CC04091C2
:1035C0009C0141FBCC24C0F8D12CCC0CDD1C42FB6F
:1035D000882780F9C82FE0E0DE2FCC0FDD1FCC0F4D
:1035E000DD1FCC2ADD2A40FBEE24E0F8F12CEC288C
:1035F000FD2843FBAA27A0F9B0E023E0AA0FBB1FD8
:103600002A95E1F7EA2AFB2A44FBEE27E0F9F0E0ED
:1036100034E0EE0FFF1F3A95E1F7EE29FF2945FB55
:10362000222720F930E055E0220F331F5A95E1F7A9
:103630002E2B3F2B46FB882780F990E0E6E0880F91
:10364000991FEA95E1F7822B932B47FB442740F91A
:1036500050E05695542F442757954795842B952B2A
:1036600020919D01322F3170132F00E0082B192B70
:1036700026952170B22EBB0CA12C0A291B29012EE4
:10368000000C220B330BFB01008311832283338355
:1036900080E090E002C08FEF9FEFDF91CF911F910C
:1036A0000F91FF90EF90DF90CF90BF90AF90089573
:1036B000EEE7F2E0848195812AE030E0B9010E94D2
:1036C000AA336093160186818093150182858093C9
:1036D000140184858093130186859785B9010E9422
:1036E000AA336093120180898093110182898093AB
:1036F0001001848980930F01089580917E0290913A
:103700007F0290931801809317010895CF92DF9262
:10371000EF92FF924430510508F46FC0FB01C08066
:10372000D180E280F3800E94171780919C01C0FA3B
:1037300080F9B701A601769567955795479540FBA7
:1037400081F9B701A60122E07695679557954795CF
:103750002A95D1F740FB82F9B701A60133E07695AF
:103760006795579547953A95D1F740FB83F9B7018F
:10377000A601E4E07695679557954795EA95D1F7C8
:1037800040FB84F9B701A601F5E07695679557955A
:103790004795FA95D1F740FB85F9B701A601A6E058
:1037A0007695679557954795AA95D1F740FB86F989
:1037B000B701A601B7E07695679557954795BA95F5
:1037C000D1F740FB87F980939C0180919D01D0FA4D
:1037D00080F999E0F694E794D794C7949A95D1F735
:1037E000C0FA81F980939D0180919C0190919D0187
:1037F0000E948C2D80E090E002C08FEF9FEFFF9041
:10380000EF90DF90CF9008959C01CA01F9013296A4
:10381000459154918417950750F0CB01F9013496E6
:10382000659174910E94DF3380E090E008958FEFFE
:103830009FEF08950F931F93CF93DF930EE712E04E
:10384000CBE4D0E0CE010E946033F80161918F019A
:10385000681719F0CE010E946E332196CF36D1053C
:1038600089F7DF91CF911F910F910895DA019C01A3
:103870002E5F3F4FF90145915491F9012591349103
:10388000A217B30758F0FC013496859194910E94D9
:10389000DF330E941A1C80E090E008958FEF9FEFC5
:1038A00008950F931F93CF93DF93C42FD22FFC0162
:1038B00082818823C9F04093A4020E943D2A9093FC
:1038C000A3028093A20280E28C0F883008F05BC0D4
:1038D000C77081E001C0880FCA95EAF7DF91CF91E8
:1038E0001F910F910C943A178091A402481334C091
:1038F0008091A2029091A3020E94222A2091960216
:10390000309197028217930738F510E21D0FCD17FB
:10391000B9F080E28C0F883040F4C77081E001C0BC
:10392000880FCA95EAF70E943317183028F581E00E
:103930009D2F977001C0880F9A95EAF70E943A1759
:10394000802F0E94C7171830F0F4D77081E001C0B3
:10395000880FDA95EAF70AC080E28C0F883098F475
:10396000C77081E001C0880FCA95EAF7DF91CF9157
:103970001F910F910C943317802FDF91CF911F91DE
:103980000F910C94C717DF91CF911F910F9108955C
:10399000CF93DF93EC0140917302509174026091D8
:1039A0007502709176022FB7F89480915B04909124
:1039B0005C04A0915D04B0915E042FBF841B950B45
:1039C000A60BB70B843F9140A105B105A8F48091E7
:1039D000730290917402A0917502B0917602809367
:1039E0006F0290937002A0937102B093720284EF01
:1039F00091E0A0E0B0E00EC00E94312A60936F0217
:103A000070937002809371029093720282E390E04F
:103A1000A0E0B0E080936B0290936C02A0936D02E3
:103A2000B0936E02D0937B02C0937A02DF91CF9164
:103A30000895FF920F931F93CF93DF9300917C0221
:103A400010917D020115110509F45CC010927B02F2
:103A500010927A021092770210927802D80116968C
:103A60006D917C9117979B013A9521153F4108F480
:103A7000707EC62FD1E0611101C0D0E0F82ED801D0
:103A80001996ED91FC911A97309739F01B966D912C
:103A90007C911C9780E00995D823DD2379F08CEF89
:103AA0008C0F813A30F46C2F8EE891E00E949B2AB3
:103AB00005C00E94B02E8C2F0E944117E0917C021D
:103AC000F0917D0240815181FF2071F0808584FD5D
:103AD0000BC080917902882339F091E09A0121503E
:103AE0003109253A3D4508F090E090FF03C0CA0136
:103AF0000E94C81C0E94B02E10927D0210927C027F
:103B000010927902C801DF91CF911F910F91FF9020
:103B10000895FC0184818623C1F492819923B9F030
:103B20008085692383FF04C081E0611111C00DC04D
:103B3000892F8F7092959F70982B862F8F7062952A
:103B40006F70682B81E0961719F080E0089581E08E
:103B50000895452B41F06F3F41F491E08F3F09F00C
:103B600090E0892F03C081E001C080E0817008955A
:103B7000BC014091670280916802942F981729F147
:103B8000292F30E0F901EE0FFF1FE15AFD4F0190A0
:103B9000F081E02DE617F70799F487E0869FF001A2
:103BA000879FF00D1124E95DFD4F81E0848394131C
:103BB0000CC02F5F3F4F2370332720936702089577
:103BC0002F5F3F4F922F9370D9CF0895DF92EF92DE
:103BD000FF920F931F93CF93DF938091C6018823A9
:103BE00009F451C00091C501F12C8CE0E82E8091C0
:103BF000C601081708F043C0DD24D394D00ED0923C
:103C0000C50110E0E09EE001E19ED00D1124C953F2
:103C1000DE4F4B815C81698188810E94A91D8111E1
:103C20002CC08E819F81892B21F4888599850196EE
:103C300051F4288139814A815B816C817D818E813B
:103C40009F810E944A1AE09EF001E19EF00D11242E
:103C5000E953FE4F148213821092A003F1100DC09D
:103C6000CE010E940817811108C08FE39CE90197DB
:103C7000F1F700C00000FF24F3940D2DB8CF10928F
:103C8000C6011092C501DF91CF911F910F91FF9056
:103C9000EF90DF9008951092C4011092C301E7E203
:103CA000F2E08581811102C014821682379682E08B
:103CB000EF35F807B1F7089510926A021092690281
:103CC00010921A0180916802809367020E944B1E35
:103CD0000C94E61D3F924F925F926F927F928F926B
:103CE0009F92AF92BF92CF92DF92EF92FF920F938B
:103CF0001F93CF93DF93C091670297E0892E01E075
:103D000010E02CE0322E3EEF932E44244394809119
:103D10006802C81709F478C0D0E0FE01EE0FFF1F5B
:103D2000E15AFD4F80819181889ED001899EB00D1E
:103D30001124A95DBD4F14962C911497211161C0D7
:103D40005090C601E7ECF1E020E030E0712C5D011D
:103D5000251508F054C0E284F384D501CD90DC90A1
:103D60006FEF7FEF612C462D50E0DA01AA0FBB1FE9
:103D7000AC0DBD1D0D90BC91A02D109731F0EA1631
:103D8000FB0609F4BA016394EECF6F3FBFEF7B07E8
:103D900091F1D80102C0AA0FBB1F6A95E2F77A2AF7
:103DA000B80102C0660F771F6A94E2F7AB01415079
:103DB0005109672D70E046175707D9F4329EF0017C
:103DC000339EF00D1124E953FE4F889ED001899E49
:103DD000B00D1124A95DBD4F12962D913C91139702
:103DE00037832683908291829187808715964C92A3
:103DF00006C0148213822F5F3F4F3C96A9CF0E94CA
:103E0000B81D2196C37083CF0E94E61DDF91CF912C
:103E10001F910F91FF90EF90DF90CF90BF90AF90E8
:103E20009F908F907F906F905F904F903F900C94F9
:103E30004B1E80911901877F8093190182E00E94B7
:103E4000332E8091190184FF06C08F7E8093190163
:103E500082E00E94412E8091190185FF06C08F7D6E
:103E60008093190180E20E94412E0C94B02E6623AB
:103E700029F02091A00322602093A0039C013056DA
:103E8000211540E2340720F0305E2115304108F45E
:103E900099270C942E33009741F0EFE9FFE031971A
:103EA000F1F700C000000197F6CF0895AF92BF92DE
:103EB000CF92DF92EF92FF920F931F93CF93DF93F6
:103EC0005C017B01C42E89018091190182FF8DC0A4
:103ED000C091C101D091C201CA15DB0521F0A11426
:103EE000B10409F082C0809119018B7F8093190180
:103EF00081FD11C08091BF019091C001A701481BB5
:103F0000590B81E020911701309118014217530796
:103F100018F480E001C081E08170D82E80911901F1
:103F2000D0FA81F980931901FE01FF2784E0F6950C
:103F3000E7958A95E1F79E012F703327EE0FFF1F5B
:103F4000E156FE4F81E090E002C0880F991F2A954C
:103F5000E2F7DD2029F020813181822B932B06C0EE
:103F60008095909520813181822393239183808352
:103F700080919E0181FF08C080911901806180932A
:103F8000190182E00E943A2E80919E0185FF08C0AF
:103F90008091190180628093190180E20E943A2E7B
:103FA000A8016D2DCE010E94371FCC2031F08091E9
:103FB000990285FF02C086FF36C080919C029091D5
:103FC0009D020E944B1F8091C1019091C2019C01F2
:103FD0003056211540E2340720F0305E2115304183
:103FE00008F499270E94143318C095013327C5019E
:103FF0009056811540E2940720F0905E8115904123
:1040000010F4C90101C0C5010E9414338091C1019F
:104010009091C201A816B90611F40E94191FF092DE
:10402000C001E092BF01DF91CF911F910F91FF90EE
:10403000EF90DF90CF90BF90AF9008950F931F93B4
:10404000CF93DF930EE712E0CBE4D0E0CE010E94E5
:104050006033F80181938F012196CF36D105B1F7F6
:10406000C0E0D0E0FE01E855FE4F859194910097A5
:1040700011F0FC0109952C96CC3FD10599F7DF9101
:10408000CF911F910F910895EEE7F2E0128E138EFB
:104090008FEA90E09183808325E0248F88E893E184
:1040A000938382838AE090E09583848344E150E0A7
:1040B0005783468368E070E07187608793878287C3
:1040C0004EE150E0558744879787868740E550E06A
:1040D000518B408B738B628B68E270E0758B648BC5
:1040E00062E370E0778B668B68EC70E0718F608FB5
:1040F000158E978F868F51A340A322A30E941A1C6E
:104100000E94171710929D0110929C0180E090E090
:104110000E948C2D0C941E20CF93DF93CFE5D1E02D
:1041200060E0CE010E946E332196C11584E0D8076D
:10413000B9F7DF91CF910895462F20919A013091E0
:104140009B01232B91F47E3F39F46E3F71F48091F3
:104150009801909199010895823038F4711105C049
:10416000673018F460E00C94032280E090E008953A
:104170009F92AF92BF92CF92DF92EF92FF920F93F6
:104180001F93CF93DF93CDB7DEB76E970FB6F8943A
:10419000DEBF0FBECDBFC0909601D090970181E0E9
:1041A00090E090939701809396019AE7E92E91E031
:1041B000F92EA12CB12C912C00E010E0F801EA0DB1
:1041C000FB1DEE0FFF1FEE57FE4F25913491402F40
:1041D00060E0892D0E94D2210F5F1F4F073011052B
:1041E00069F7F7012591349140E060E0892D0E9444
:1041F0008321F70132962591349141E060E0892DC9
:104200000E94832184E0E80EF11C9394E7E0AE0E57
:10421000B11CF2E09F12D0CF0E9444201A82198272
:104220001C821B821E821D8218861F8288EC90E0F1
:104230009A8789870FE610E04AE050E0B801CE0186
:1042400001960E949233065F1F4F0F3B1105A1F7A5
:104250007E018BE0E80EF11C8AE0F70111928A954D
:10426000E9F74AE050E0B801C7010E949233065FC7
:104270001F4F0F30F1E01F07A1F77E0185E1E80E27
:10428000F11C8AE0F70111928A95E9F78FEF9FEF11
:104290009A8F898F87E08E8F4AE050E0B801C7017E
:1042A0000E949233065F1F4F0F35F1E01F07A1F701
:1042B000D0929701C09296016E960FB6F894DEBF29
:1042C0000FBECDBFDF91CF911F910F91FF90EF9067
:1042D000DF90CF90BF90AF909F900895883080F48A
:1042E0009B01982F8AE0989FB001112461597F4F5C
:1042F0004AE050E0C9010E94503380E090E0089508
:104300008FEF9FEF08951F93CF93DF938230E0F4F8
:1043100061111AC04230C0F4632F122FC42FD0E0B5
:10432000CC0FDD1F94E0899FC00DD11D1124CD5B02
:10433000DF4FCE010E946E33612FCE010196DF91D7
:10434000CF911F910C946E33DF91CF911F910895FF
:104350000F931F93CF93DF938230E8F461111BC05A
:104360004230C8F4C42FD0E0CC0FDD1F24E0829F80
:10437000C00DD11D1124CD5BDF4FCE010E946033F3
:1043800090E0182F0027CE0101960E94603398011B
:10439000282BC90102C080E090E0DF91CF911F91EE
:1043A0000F9108950F931F93CF93DF93823030F5D1
:1043B000611124C0473010F521159CE5390731F40F
:1043C0006091960170919701672BC1F08901C42F0C
:1043D000D0E0CC0FDD1F9EE0899FC00DD11D1124C0
:1043E000612FCE0187960E946E33602FCE01889692
:1043F000DF91CF911F910F910C946E33DF91CF918C
:104400001F910F9108950F931F93CF93DF938230E5
:10441000E0F461111AC04730C0F4C42FD0E0CC0FD3
:10442000DD1F2EE0829FC00DD11D1124CE01879685
:104430000E94603390E0182F0027CE0188960E94DA
:1044400060339801282BC90102C080E090E0DF9121
:10445000CF911F910F9108958F929F92AF92BF922B
:10446000CF92DF92EF92FF920F931F93CF93DF9340
:10447000CDB7DEB72A970FB6F894DEBF0FBECDBF1B
:1044800008E213E086E1C82E83E0D82E9FE0E92EF3
:10449000FF24F3942FE0922E35E1A32E33E0B32EC8
:1044A00088248394F601019311936F014AE050E050
:1044B000B701CE0101960E945033F801892D119267
:1044C0008A95E9F789819A81F801918380838F81A8
:1044D00082838D81838388858483898585838B818D
:1044E0009C819783868310868A8587FF03C0168602
:1044F000158603C0F801B686A58680FF02C0F801C4
:10450000808681FF04C0F80190859260908782FFC9
:1045100004C0F80190859460908783FF04C0F8017F
:1045200090859860908784FF04C0F8019085906121
:10453000908785FF04C0F801808580628087015FD5
:104540001F4FFAE0EF0EF11C8FE5E81681E0F80648
:1045500009F0A8CF2A960FB6F894DEBF0FBECDBFE4
:10456000DF91CF911F910F91FF90EF90DF90CF904F
:10457000BF90AF909F908F900895CF92DF92EF926F
:10458000FF920F931F93CF93DF93CDB7DEB72A9798
:104590000FB6F894DEBF0FBECDBF80E5E5ECF2E0CC
:1045A000DF011D928A95E9F788E3E7E2F2E0DF0197
:1045B0001D928A95E9F785ECC82E82E0D82E7F01FE
:1045C0000FEB10E0F701D182C0824AE050E0B80161
:1045D000CE0101960E94503388E0FE013196D6014B
:1045E00001900D928A95E1F789859A85D7011396F6
:1045F0009C938E931297BAE0CB0ED11CE7E0EE0E9F
:10460000F11C065F1F4F0F30F1E01F07D9F62A9605
:104610000FB6F894DEBF0FBECDBFDF91CF911F91D3
:104620000F91FF90EF90DF90CF9008958F929F921F
:10463000AF92BF92CF92DF92EF92FF920F931F93B0
:10464000CF93DF93CDB7DEB72A970FB6F894DEBFCE
:104650000FBECDBF03EA13E0E12CF12C8AE8C82E8F
:1046600084E2D82E95EBA92E94E2B92E2CE9822E65
:1046700023E2922EF801D182C082B382A282958277
:104680008482F58AE48ABE016F5F7F4F8E2D0E947F
:104690006E21892B29F489859A85F801938B828B69
:1046A000FFEFEF1AFF0A0A5E1F4F88E0E816F104D9
:1046B00009F72A960FB6F894DEBF0FBECDBFDF9183
:1046C000CF911F910F91FF90EF90DF90CF90BF900F
:1046D000AF909F908F900895CF93DF9300D000D03C
:1046E0001F92CDB7DEB79093990180939801811501
:1046F00020E2920748F40F900F900F900F900F90C8
:10470000DF91CF910C9414338EEF89838A831B82BF
:104710000E943D2A8160782F9D838C8349815A8134
:104720006B818D810E9480300F900F900F900F90C1
:104730000F90DF91CF9108950F931F93CF93DF9345
:104740008C01EB016BEB72E08C2F0E946E21892BA8
:1047500009F046C080919C0290919D020E944B1FDF
:10476000DD27CD54DD4F8881F80110821882833017
:1047700079F048F4813041F1823091F58091BD02A9
:104780009091BE0209C0843051F08530E9F028C014
:104790008091BF029091C0020097B1F01BC0809140
:1047A000C1029091C2020097A9F42091BB023091FE
:1047B000BC028091BD029091BE022115310541F0ED
:1047C000009741F4C90106C08091BB029091BC02E0
:1047D000009731F0DF91CF911F910F910C946C23D2
:1047E000DF91CF911F910F910895CF93DF9300D068
:1047F00000D01F92CDB7DEB79093990180939801B6
:10480000811520E2920748F40F900F900F900F90BF
:104810000F90DF91CF910C942E338EEF89838A8392
:1048200081E08B830E943D2A8160782F9D838C8359
:1048300049815A816B818D810E9480300F900F9049
:104840000F900F900F90DF91CF910895AF92BF928C
:10485000CF92DF92EF92FF920F931F93CF93DF934C
:10486000B82EA62EC09019058091B202C82AC7E0C2
:10487000D0E0D12CE12CF12CD701C6010C2E04C0C4
:10488000B695A795979587950A94D2F780FF13C0A0
:104890004A2D6B2D8C2F0E94A8218C01813091050F
:1048A00051F00E94F5238FE39CE90197F1F700C0D6
:1048B0000000C80111C02197F8F64A2D6B2D80E049
:1048C0000E94A821EC010E94F5238FE39CE9019747
:1048D000F1F700C00000CE010E946C2381E0DF915F
:1048E000CF911F910F91FF90EF90DF90CF90BF90ED
:1048F000AF900895CF93DF93EC010E94F523809150
:104900009C0290919D020E944B1FCE01DF91CF919E
:104910000C946C230F931F93CF93DF938C01862FFE
:104920006BEB72E00E946E21892BD1F4C091BB0227
:10493000D091BC022097A1F0F8018081833039F436
:10494000CE010E947A24CE010E947A2402C08430D3
:1049500038F0CE01DF91CF911F910F910C947A2402
:10496000DF91CF911F910F9108950F931F93CF93D4
:10497000DF938C01EB016BEB72E08C2F0E946E21B8
:10498000892B09F06DC0DD27F8018081813041F469
:104990009185911115C09285992391F082E010C004
:1049A000823049F4F8018185811107C08285811127
:1049B00006C083E005C086E003C085E001C084E056
:1049C000CD54DD4F88838330B1F028F4813071F00D
:1049D000823031F045C08430A9F0853079F140C093
:1049E0008091BD029091BE020097A1F58091BB021B
:1049F0009091BC0220C08091BF029091C0020097AC
:104A0000E9F028C08091C1029091C202009711F58F
:104A10008091BB029091BC02009749F00E947A24D9
:104A20008091BD029091BE02009781F013C08091E9
:104A3000BD029091BE02009799F00CC08091BB021C
:104A40009091BC02009761F00E947A248091BB0291
:104A50009091BC02DF91CF911F910F910C94F5239F
:104A6000DF91CF911F910F91089581152CE5920749
:104A700059F48091960190919701892B19F480E067
:104A800090E0089580E09CE5089586E290E00C9423
:104A90006E33CF93C82F811102C06FEF01C068E25F
:104AA00083E290E00E946E33C11102C06FEF01C03B
:104AB0006DE384E290E00E946E33C11102C06FEF9B
:104AC00001C069E685E290E0CF910C946E3380E0FE
:104AD0000E94492560E070E0CB010E9445250E94BC
:104AE000B8200E948C2081E00C94492583E290E05C
:104AF0000E946033883281F484E290E00E94603347
:104B00008D3351F485E290E00E94603391E0893664
:104B100009F090E0892F01C080E0817008950E9423
:104B20003D2A2091AE02211104C02091AF02222320
:104B300021F09093AB028093AA022091B002211140
:104B400004C02091B102222321F09093A902809306
:104B5000A802E0915504F0915604309749F082E0A4
:104B60008093AC020480F581E02D8CEA92E00994F8
:104B70000895803F39F48091AF0287FF6AC0109298
:104B8000AF0267C0813F29F48091AF021816BCF3D1
:104B900060C09091AE02823F29F497FF5AC01092F4
:104BA000AE0257C0833F19F41916CCF352C090914E
:104BB000B002893F31F419160CF04BC01092B002CC
:104BC00048C08A3F19F497FF44C0F8CF8B3F39F4AF
:104BD0008091B10287FF3DC01092B1023AC08C3F74
:104BE00029F48091B1021816BCF333C0843F21F43C
:104BF0008091AD028E7F17C0853F21F48091AD0278
:104C00008D7F11C0863F21F48091AD028B7F0BC058
:104C1000873F21F48091AD02877F05C0883F31F442
:104C20008091AD028F7E8093AD0213C08D3F21F441
:104C30008091A7028E7F0BC08E3F21F48091A70246
:104C40008D7F05C08F3F29F48091A7028B7F8093D1
:104C5000A7028091AE02811106C08091AF0281113E
:104C600002C01092A6028091B002811106C080910C
:104C7000B102811102C01092A50208958091A7028D
:104C800080FF08C06091100170E07595679575957B
:104C9000679521C081FF06C06091100170E0759595
:104CA000679519C082FF04C06091100170E010C0C8
:104CB0009091A502992399F060910F019617A0F7A2
:104CC00080911001899FC001112470E00E94BE33C1
:104CD0006038710540F46115710519F406C061E092
:104CE00070E0862F08958FE7089581E00895809100
:104CF000A702209186023091870280FF0CC080912C
:104D00001401829FB001839F700D112476956795E1
:104D1000769567952FC081FF0AC080911401829F0C
:104D2000B001839F700D11247695679523C082FF93
:104D300008C080911401829FB001839F700D1124DF
:104D400019C04091A602411102C0B90113C060917F
:104D50001301461770F780911401849FA00111245C
:104D6000429FC001439F900D529F900D112470E00F
:104D70000E94AA336038710528F46115710521F08D
:104D8000862F08958FE7089581E00895803F21F4EC
:104D90000E947726819504C0813F29F40E947726DE
:104DA0008093AF020895823F21F40E947726819577
:104DB00004C0833F29F40E9477268093AE020895B1
:104DC000893F19F40E943E2605C08A3F31F40E94B3
:104DD0003E2681958093B00208958B3F21F40E9476
:104DE0003E26819504C08C3F29F40E943E26809384
:104DF000B1020895843F21F48091AD02816017C013
:104E0000853F21F48091AD02826011C0863F21F47C
:104E10008091AD0284600BC0873F21F48091AD0288
:104E2000886005C0883F31F48091AD028061809335
:104E3000AD0208958D3F21F48091A70281600BC0DF
:104E40008E3F21F48091A702826005C08F3F29F434
:104E50008091A70284608093A7020895FC0193814A
:104E60009330E1F068F4913089F0923009F06FC02E
:104E700089EC93E09093F8048093F7048BE5089510
:104E8000913289F1923209F442C061C084E294E027
:104E90009093F8048093F70482E108958281813031
:104EA00089F040F0823089F0833009F050C087E704
:104EB00093E013C085EC93E09093F8048093F7049B
:104EC00084E0089587EA93E008C085E993E0909331
:104ED000F8048093F70480E108959093F804809398
:104EE000F7048CE108958281813049F028F0823006
:104EF00071F584E194E005C08BED93E002C084EF8E
:104F000093E09093F8048093F70489E008958481F6
:104F100095818130910599F050F00297C1F48AE9AA
:104F200092E09093F8048093F7048BE7089587E369
:104F300093E09093F8048093F70480E4089585E16A
:104F400093E09093F8048093F70482E2089580E060
:104F5000089508958091F20408951F93CF93DF93ED
:104F6000162FEA01288124FF05C0398128E823276C
:104F7000298302C02AE52883212FFC01CE01029655
:104F8000DC0131913D9321501216DCF3612F0E9418
:104F9000A7021C5F1883DF91CF911F910895209184
:104FA000AD0524FF05C04DEA55E066E00C94AD2741
:104FB00008959091E604981307C02091E40430917D
:104FC000E50426173707B9F08093E6047093E504EB
:104FD0006093E4048093E1047093E3046093E2043B
:104FE0008091AD0584FF07C04DEA55E063E081EE96
:104FF00094E00C94AD270895BC0184E00C94D9276B
:10500000BC0183E00C94D92780911905982F9670E4
:10501000963011F4886001C0877F0C94CE16CF9330
:10502000DF9380919505835087FDE4C090919405AE
:10503000CCE0D0E0C91BD109C956DA4F9091930555
:105040009031D0F4883019F01092E704D1C08091EB
:10505000E704E82FF0E0E931F105B4F7E750FB4F42
:105060009E01285F3F4F999191932C173D07D9F7E7
:10507000885F8093E704BCC09D3209F0A0C08830EF
:1050800009F0B6C083EC80936F058AE580931C011C
:105090001092F60488818076D9F1803209F084C0BC
:1050A0008981813069F48C819D81892B09F07CC0D4
:1050B00089EE94E09093F8048093F70488E075C03B
:1050C000823041F488EE94E09093F8048093F704E2
:1050D00081E06BC08A3021F48B818093E80464C046
:1050E000893009F061C08A819B818115924009F065
:1050F000DCC08C819D81892B09F0D7C081E0809331
:10510000F5048E819F819093F4048093F304CDC0C5
:105110009A81109278058981811106C010927905D3
:1051200028E735E082E03BC0853019F4909396057E
:1051300033C08630B9F48B81813041F0823031F058
:10514000833021F0813211F0823221F4CE010E94AD
:105150002E2701C080E090E49093F6048F3F09F47D
:10516000A4C023C0883089F0893019F49093F104E9
:1051700013C08A3069F08B3079F48BE480937B051F
:105180008093AE058093870507C021EF34E002C00D
:1051900028E735E081E003C028E735E080E0309380
:1051A000F8042093F70401C080E09F81911104C0AE
:1051B0009E81981708F4892F80931B0119C0809154
:1051C000F60487FF15C08091F3049091F404892BB5
:1051D00009F475C08091F504813009F070C08881B0
:1051E0008093F2041092F4041092F30410921B01C5
:1051F0001092950580911C0184FF4CC080911B0189
:105200008F3F09F447C0C82F893008F0C8E08C1BD5
:1052100080931B0190916F0588E8892780936F0523
:10522000CC2359F18091F7049091F8042091F60471
:1052300026FF12C0AFE6B5E02C2FAC014F5655400B
:10524000FA01EA0FFB1FE4911196EC93119721509C
:1052500011962111F5CF08C0E0E7F5E0DC012C2F15
:105260003D9131932150E1F701962FEF2C0F820FE2
:10527000911D9093F8048093F7046C2F80E795E0DC
:105280000E94A702CC5FCC3019F08FEF80931B01F6
:10529000C0931C0184E199B19C70A9F48150D9F7A5
:1052A00010929605109292050EC0888187FF05C066
:1052B0008E8190E89093F6047FCF8FEFFACF8EE146
:1052C00080931C0195CFDF91CF910895CF93DF9309
:1052D000C9EFD4E08091860584FD03C00E940F28A9
:1052E000F9CF46E855E068E0CE010E94AD27289648
:1052F00085E0C931D80771F78091860584FD03C028
:105300000E940F28F9CF46E855E060E080E090E089
:10531000DF91CF910C94AD27CF93DF93CAE0D0E01B
:1053200080917A0584FF1AC08091DF049091E00497
:105330009817F1F028E0829FC00111244AE755E058
:1053400068E0815A9B4F0E94AD278091DF0490E076
:1053500001968F7099278093DF040AC00E940F285E
:105360008FE99FE00197F1F700C000002197C1F697
:10537000DF91CF910895CF93DF93EC01A091E004EA
:10538000B0E0CD0101968F7099272091DF04281796
:1053900079F093E0AA0FBB1F9A95E1F7A15ABB4F92
:1053A00098E0FE0101900D929A95E1F78093E00458
:1053B0000E940F280E948C2988E0FE01A9EEB4E02B
:1053C00001900D928A95E1F7DF91CF91089598E0D1
:1053D00088E10FB6F894A895809360000FBE909373
:1053E0006000A895F894D8E0CEEF28E3299320E058
:1053F000299314BEFFCF089578941F920F920FB691
:105400000F9211248F939F93AF93BF9380915B046E
:1054100090915C04A0915D04B0915E040196A11D81
:10542000B11D80935B0490935C04A0935D04B093E2
:105430005E04BF91AF919F918F910F900FBE0F901F
:105440001F9018959C014FB7F89480915B04909140
:105450005C04A0915D04B0915E044FBF821B930B6E
:1054600008952FB7F89460915B0470915C0480916B
:105470005D0490915E042FBF08952FB7F89480913A
:105480005B0490915C04A0915D04B0915E042FBF19
:10549000089580915A04882321F11092590420E440
:1054A00088E190E00FB6F894A895809360000FBE55
:1054B0002093600083B7817F846083BF83B781605E
:1054C00083BF7894889583B78E7F83BF0FB6F89497
:1054D000A8958091600088618093600010926000C0
:1054E0000FBE08951F920F920FB60F9211248F9343
:1054F0009F93AF93BF9380915904811113C0809102
:105500005B0490915C04A0915D04B0915E044196AF
:10551000A11DB11D80935B0490935C04A0935D0476
:10552000B0935E04BF91AF919F918F910F900FBE8A
:105530000F901F9018959C012A5F3F4FFC014281FC
:10554000461301C01282019682179307B9F7089596
:105550009C01FC0132969FEF80E04191461789F053
:105560009F3F19F4411101C0982F8F5F8630A9F732
:105570009F3F39F0F901E90FF11D97FDFA9562831C
:105580000895089520915704309158042817390739
:1055900071F09093580480935704E0915504F09172
:1055A0005604309721F00084F185E02D0994089588
:1055B00020915304309154042817390771F09093C7
:1055C000540480935304E0915504F09156043097AD
:1055D00021F00680F781E02D09940895E0915504AB
:1055E000F0915604309721F00190F081E02D09945C
:1055F00080E00895EF92FF920F931F93CF93DF9374
:10560000FC012285211136C0EC01E380F480F7E52E
:10561000FF1A26E12E9DC0012F9D900D1124DC0163
:10562000AD55BC4F1496ED91FC91159787559C4F45
:10563000309729F054966D917C915597099586E1A4
:105640008E9D80018F9D100D11240D551C4FF8016A
:1056500087810E943A2EF80180850E94332E0E9495
:10566000B02E188219861B861E821D821092A203FC
:105670001092A103DF91CF911F910F91FF90EF90B6
:105680000895CF93DF93FC012189211119C0EC010A
:1056900081E0818B87810E94412E9091A0038885B3
:1056A000892B8093A0030E94B02EEA81FB81CE015A
:1056B0000696309729F06C897D89DF91CF91099406
:1056C000DF91CF91089580E0089590919C0192FF21
:1056D0000DC0282F2871283019F4877F846006C0F8
:1056E000282F2471243011F48B7F886093FF0DC024
:1056F000282F2871283119F4877E846106C0282F4D
:105700002471243111F48B7E886120919D0120FF4A
:105710000DC0382F3871383019F4877F816006C08A
:10572000382F3171313011F48E7F886021FF0DC028
:10573000282F2871283119F4877E816106C0282F0F
:105740002171213111F48E7E886194FD877E089548
:10575000CF93E5E2F1E06CE271E080E041E091910D
:105760009F3FA1F0A92FA295AF70B0E090962C9129
:1057700030E09F7002C0359527959A95E2F720FD9D
:1057800002C0242F02C020E030E0822B440F6E17AD
:105790007F0729F790917501C1E0981301C0C0E01F
:1057A000981759F08093750181E080936D050E94F0
:1057B0003D2A90936C0580936B0580916D0588233D
:1057C00071F080916B0590916C050E94222A0597DB
:1057D00030F0809175018093880110926D058C2FB7
:1057E000CF910895CF93DF938238910569F1B0F49A
:1057F0008133910509F46FC048F48932910509F4A9
:1058000065C08A32910509F46BC08AC08533910561
:1058100009F457C089339105B9F082C0833E9105E0
:1058200071F138F4803E9105B1F0823E910511F19D
:1058300077C0863E9105B9F1873E9105C9F1843E56
:10584000910509F06DC024C020919C0120FD53C03A
:1058500021FD51C065C080919C0180FD46C08091B2
:105860009D0180FF48C080919C0184FD50C183EE62
:1058700090E04FC180919C0182FF3AC0F4CF8091AB
:105880009C0182FD35C080919D0180FD34C0EBCF2D
:1058900080919D0181FF35C080919C0184FD37C1BD
:1058A00087EE90E036C180919C0183FF27C0F4CF42
:1058B00080919C0183FD22C080919D0181FD21C0CA
:1058C000EBCF80919C0185FD1FC021C080919C0180
:1058D00085FD1DC019C080919C0186FD1BC01DC0A7
:1058E00080919C0186FD19C015C089E390E011C12B
:1058F00082EE90E00EC180EE90E00BC186EE90E06B
:1059000008C184EE90E005C189E290E002C185E320
:1059100090E0FFC08AE290E0FCC081E390E0F9C033
:10592000811531E5930708F069C0811540E59407BA
:10593000F0F09C0174E0369527957A95E1F7922F67
:105940009370482F437021E030E002C0220F331FD4
:105950004A95E2F73C68392B982F9F70969596955B
:1059600040E2949FC0011124822B932BD2C0883E29
:10597000910568F5803E910508F0CBC0883A910505
:10598000B8F4853A910548F0855AE82FF0E0E45CD8
:10599000FE4F808190E09064BCC08130910509F495
:1059A000B3C008F4B4C08430910508F4B0C0B1C0ED
:1059B0008F3B910508F0ABC0885AE82FF0E0EE0F5E
:1059C000FF1FE15CFE4F808191819464A2C081152C
:1059D00020E2920758F4811531E0930708F099C04E
:1059E000803F910508F493C0906593C0811540E411
:1059F000940708F48CC09F70906A8BC0811525E5D0
:105A0000920708F042C0811534E5930728F0982FDB
:105A10008827846F906A7DC0811543E59407B0F0B4
:105A20009C012370332741E050E002C0440F551F12
:105A30002A95E2F7282F2695269580E2289F900147
:105A40001124CA01822B932B9A6863C0811522E529
:105A5000920728F4982F8827816F906A5AC09C017A
:105A60002370332741E050E002C0440F551F2A95B0
:105A7000E2F7282F2695269580E2289F9001112491
:105A8000CA01822B932B9C6844C0EC01811539E537
:105A90009307A8F48115984528F09C2F8827806FDC
:105AA000906A37C0C11586E5D80788F58C2F0E940B
:105AB000652B8F7190E0982F882790622AC08115FE
:105AC0002AE5920790F48C2F8F700E94652B94E04A
:105AD000D695C7959A95E1F7CF70D0E0DC2FCC270B
