:100000000C9474010C9491010C94AC010C9491012A
:100010000C9491010C9491010C94F01A0C949101A0
:100020000C9491010C9491010C9491010C94910108
:100030000C9491010C9491010C94791B0C949101F6
:100040000C9491010C9491010C9491010C949101E8
:100050000C9491010C9491010C9491010C949101D8
:100060000C9491010C9491014A064A067606760694
:10007000D306F106DD07DD07FC0664077507750783
:1000800067156A157C158D159515A015E515E515EF
:10009000E515E515E515A315A615AA15B715C4159B
:1000A000C715CB15D8150153AC00AE00AB00490005
:1000B00001530100010001000100000000000000E8
:1000C00000002A2B280000000000000000000000B3
:1000D000000000000029000000002C1E3420212216
:1000E00024342627252E362D3738271E1F2021227F
:1000F000232425263333362E37381F0405060708F8
:10010000090A0B0C0D0E0F101112131415161718E7
:10011000191A1B1C1D2F3130232D35040506070825
:10012000090A0B0C0D0E0F101112131415161718C7
:10013000191A1B1C1D2F3130354C00000000000027
:1001400000000000000000000000000000000000AF
:1001500000000000000000000000000000007E0F12
:1001600000D4FFFFFFC70000007809025B00030115
:1001700000A0FA09040000010301010009210101A6
:100180000001224000070581030800010904010065
:1001900002030000000921010100012222000705DD
:1001A0008403080001070504030800010904020094
:1001B0000103000000092101010001227B00070565
:1001C00083030800011201100100000008A020E2D2
:1001D00042100101020001100350006C006100791F
:1001E0000065007200210000001C036A006F0068B7
:1001F000006E0062006F00790073006D006F006F89
:1002000000740068000000040309040660FF09612F
:10021000A1010962150026FF0095207508810209D9
:1002200063150026FF00952075089102C00501099D
:1002300002A10185020901A100050919012908157A
:100240000025019508750181020501093009311564
:1002500081257F95027508810609381581257F95CE
:100260000175088106050C0A38021581257F950164
:1002700075088106C0C005010980A1018503190127
:100280002AB700150126B700950175108100C00539
:100290000C0901A101850419012AA002150126A05B
:1002A00002950175108100C005010906A10105072D
:1002B00019E029E7150025019508750181029501CE
:1002C000750881030507190029FF150026FF009511
:1002D0000675088100050819012905950575019124
:1002E00002950175039103C011241FBECFEFD8E022
:1002F000DEBFCDBF11E0A0E0B1E0E4EFFFE302C05C
:1003000005900D92A039B107D9F723E0A0E9B1E03B
:1003100001C01D92AB31B207E1F70E9430120C947C
:10032000F81F0C940000A82FB92F80E090E041E066
:1003300050EA609530E009C02D9182279795879506
:1003400010F084279527305EC8F36F5FA8F30895F7
:10035000EADF8D939D930895CF93CFB7CF93DF932B
:10036000C3954B9BE9F74B9B10C04B9B0EC04B9B1F
:100370000CC04B9B0AC04B9B08C04B9B06C0C09156
:10038000F202C395C093F2028EC06F93C091F10246
:10039000DD27C750DD4F2F9365E54B9B03C02F91A1
:1003A0006F91E1CF0F931F934F9320E040E15F9354
:1003B00009B10C7003FB27F93F9350E03BE039C0D3
:1003C0001C7040642F77012F5F5F1EC0406819B119
:1003D0001C702F7752501FC0406409B12F770C70EA
:1003E000D1F15F5F00C023C0406219B12F771C704C
:1003F00091F15F5F00C025C00C701027515012F4BE
:100400005D5F0000115027952C3F19B1C8F61C7094
:100410000127015027952C3FC8F64227499309B17F
:100420000C7010274F73115027952C3FA8F6469556
:10043000469519B11C7079F00127015027952C3F82
:1004400098F66B5A60F3315009B1B0F600C012E073
:100450001CBB00271CC03B503195C31BD04012E091
:100460001CBB0881033C21F10B3411F12091EE02F9
:100470001981110F1213EDCF4A81441F093679F10A
:100480000D3211F0013E29F74F7009F0042F00934F
:10049000F7023F915F914F911F910F912F916F91B3
:1004A000CCB3C1FD5DCFDF91CF91CFBFCF91189578
:1004B0002091F702222369F31091F502112309F02C
:1004C00049C034300AF448C03093F5022093F0025A
:1004D0001091F1023BE0311B3093F1023DC00091DD
:1004E000F5020130BCF50AE54F7049F4309117016F
:1004F00034FD33C000931701CBECD2E032C043305F
:1005000059F0443091F03091D60234FD26C000936A
:10051000D602C7EDD2E025C030910F0334FD1DC0D7
:1005200000930F03C0E1D3E01CC03091E20234FD20
:1005300014C00093E202C3EED2E013C0052710E01E
:1005400000C000000BB91AC0052710E0221F1DC013
:1005500010E021C04AE502C032ED432FC4E1D0E0F3
:1005600032E01AB11C605B9A0BB11AB95CE020E86A
:1005700065E320FF05270BB9279517951C3FF0F67B
:100580006695B8F7B1F720FF05270BB927951795A2
:100590001C3FD0F62795179517FF052700001C3F35
:1005A0000BB9B0F629913A9519F7037F1091F6022D
:1005B000110FC651D0400BB911F01093EE0212E0AA
:1005C0001CBB08601AB1137F402F437F54E05A953B
:1005D000F1F70BB91AB94BB95CCFCF93DF93D82F92
:1005E000C62F9091970180919801892B0E94D30486
:1005F000882341F0D1110FC0CC2311F08AEA09C041
:1006000089EA07C0D11107C0CC2311F08CEB01C0DF
:100610008BEB0E94F90580E0DF91CF91089581E096
:10062000089581E008950E941103089508950E949D
:1006300016030895A5E0B0E0E0E2F3E00C946D1F2E
:1006400049835A833091930189819A81311114C071
:10065000662359F0222349F00E947D09182F682F44
:1006600089819A810E94640903C00E947109182F30
:1006700069817A81812F04C00E947D0969817A8114
:100680000E94F2172596E3E00C94891FFC01262FA7
:10069000408151816281738184810E941A0308958F
:1006A00081E00895CF93DF93EC0160E00E94460360
:1006B000BE010E941703DF91CF910895E1E0F0E0C1
:1006C000DF0102C0AA0FBB1F6A95E2F7BD01DF017F
:1006D00002C0AA0FBB1F4A95E2F7AD01462B01C02D
:1006E000EE0F2A95EAF7942F9823491302C08E2B18
:1006F0000895E0958E230895242F462F682F80912A
:1007000097010E945E030E94C30808950E945E1133
:1007100008950E945811089508950E9460080E944B
:100720008C032FEF84E39CE0215080409040E1F760
:1007300000C0000008950E948D030E949F1B089531
:100740000E948D030E94B41B08950F931F93CF93B3
:10075000DF938C0161E00E944603EC01B8010E9426
:100760001915882309F447C0B801CE010E9413036C
:10077000882309F440C0B801CE010E94C91988231A
:10078000D1F1B801CE010E94F4158823A1F1B8017E
:10079000CE010E942F19882371F1F80182818823EC
:1007A00031F1CA358DE5D807E9F050F4C115FCE503
:1007B000DF0779F0CE3DDC45D1F40E945C0E0CC021
:1007C000CC35EDE5DE0759F080F0C73ADD4521F084
:1007D0000EC00E949B030FC00E94A0030CC00E9489
:1007E000930D05C00E949D0D02C00E94A10DC8017D
:1007F0000E940F0301C080E0DF91CF911F910F9104
:1008000008950E94D41A0E94FA0408950E94FE04DA
:100810000E94DD1A0895A0E0B0E0E1E1F4E00C945C
:10082000691FE82FF0E0E654FF4FD490282F26955B
:100830002695269530E0F901E65AFE4F049187701F
:1008400010E0082E02C0159507950A94E2F7017092
:100850001127F901E65BFE4FE490F12C082E02C04F
:10086000F594E7940A94E2F791E0E922FF24F90174
:10087000E65CFE4FC491D0E002C0D595C7958A953D
:10088000E2F7C170DD270115110519F081EE0E9414
:100890005505E114F10419F086EE0E9455058D2DE1
:1008A0000E94F905E114F10419F086EE0E94AA05F0
:1008B0000115110519F081EE0E94AA05CD2B19F042
:1008C0008CE20E94F905CDB7DEB7E7E00C94851FF6
:1008D000EF92FF920F931F93CF93DF93EC01162FAC
:1008E0000AE08881882309F455C0813009F043C0AB
:1008F0008981813041F47E0182E0E80EF11C8A8119
:100900000E94F90509C0823049F47E01E2E0EE0E52
:10091000F11C8A810E945505E7012FC0833041F404
:100920007E01F2E0EF0EF11C8A810E94AA05F4CF4D
:10093000843011F0219621C02A81229680E090E037
:1009400030E0205331092A30310558F4089FA001C6
:10095000099F500D1124C901840F951F21962881EC
:10096000EFCF009751F0EFE9FFE03197F1F700C0CA
:1009700000000197F6CF0E940B042196812F882357
:1009800009F4AFCFEFE9FFE03197F1F700C00000C5
:100990008150F5CFCDB7DEB7E6E00C94861F60E05E
:1009A0000E9468040895982F92959F7019F0892FDE
:1009B00024E001C020E0982F9695969511F02E5FC7
:1009C000892F982F969509F02F5F822F089508950B
:1009D0000E94E704089581E008950E94EB040895C1
:1009E0000895CF93C82F0E94E8048C2F0E94ED0435
:1009F000CF91089580E00E94F10408950E94251A85
:100A00000E94F10408950E94251A9091920189177D
:100A100021F0809392010E94F1040895ABE0B0E0D0
:100A2000E4E1F5E00C946E1F4F83588769877A875D
:100A30008B8761110E94F10C9E012F5F3F4F86E072
:100A4000F90111928A95E9F785E0FE013796D901FF
:100A500001900D928A95E1F789819A814C815D819F
:100A6000452B31F09F3F31F491E08F3F19F403C0E3
:100A700091E001C090E090FF09C049815A816B81EB
:100A80007C818D819E810E941D0C05C0C9010E9440
:100A900050038111F2CF2B96E2E00C948A1FFC01E7
:100AA000808191810E94AA090895CF93882309F437
:100AB0004FC0C82F8CEF8C0F813AD0F46C2F8091EF
:100AC0000001909101010E94831A882349F06C2F44
:100AD00080910001909101010E94BC1A0E94150DA5
:100AE0006C2F80910001909101010E94B91A0CC0F5
:100AF00080E28C0F883058F4C77081E001C0880F05
:100B0000CA95EAF70E94D40C0E94150D21C0EBE5AE
:100B1000EC0FE33040F4F0E0EA5BFE4F808190E0C0
:100B20000E944B1A15C0E8E5EC0FE73150F4F0E0F5
:100B3000EE0FFF1FE85EFE4F808191810E94611AD7
:100B400007C0C03F28F08C2F0E94B5120E94871367
:100B5000CF9108958823A1F19CEF980F913A40F42A
:100B6000682F80910001909101010E94BC1A0DC074
:100B700090E2980F983060F4877091E001C0990F6F
:100B80008A95EAF7892F0E94DA0C0E94150D0895C4
:100B90009BE5980F933028F480E090E00E944B1A78
:100BA000089598E5980F973128F480E090E00E942E
:100BB000611A0895803F20F00E9410130E9487134D
:100BC00008951F93CF93DF93182FEB010E945505D3
:100BD000209741F08FE99FE00197F1F700C00000F6
:100BE0002197F6CF812F0E94AA05DF91CF911F9107
:100BF0000895893319F06AE070E002C060E570E0A2
:100C00000E94E1050895882321F00E94D40C0E94DF
:100C1000150D0895882321F00E94DA0C0E94150D0D
:100C20000895A0E0B0E0E7E1F6E00C94681F7C01D5
:100C3000162FC72FFC01D281058102950F700E94EB
:100C4000CA0C8823B9F0DD23A9F08C2F807F803473
:100C500021F080E2810F883068F08091C40282FF29
:100C600009C082E00E94610D0E94CA0C91E0D82E5A
:100C7000D92601C0D12CCC2EC2948FE0C8228C2D55
:100C800090E08C30910508F098C1FC01EC5CFF4FBE
:100C90000C94511F8C2F807FCF70882311F0C29548
:100CA000C07FDD2399F0CC2309F46EC180E2810F6F
:100CB000883010F0111104C08C2F0E94D40C03C096
:100CC0008C2F0E94E40C0E94150D5EC1812F0E94A2
:100CD000AA05CC2309F471C180E2810F883038F174
:100CE000112329F18C2F0E94EA0C24C08C2F807FC5
:100CF000CF70803211F0C295C07F112319F01130EE
:100D0000A1F13DC08091C40282FD17C0DD2349F0EE
:100D1000CC2329F08C2F0E94D40C0E94150D80E06A
:100D200034C180E00E94AA05CC2309F446C18C2F6F
:100D30000E94DA0C0E94150D40C1DD2371F00023E2
:100D400041F0013031F40E94F40C8C2B0E94FE0C17
:100D500034C10E94F40C8C2B1DC0002319F001300B
:100D600009F42BC10E940B0D1AC0DD2321F00630BF
:100D700008F023C10EC0053008F01FC110C0DD23EC
:100D800061F0002331F0F701858180FFFDC08F7095
:100D900085838C2F0E94030610C10111FBC08C2F8C
:100DA0000E940A060AC18C2F86958695837019F0D9
:100DB000813061F002C1DD2321F0812F9C2F9370DF
:100DC00002C080E090E00E944B1AFFC0DD2321F0BA
:100DD000812F9C2F937002C080E090E00E94611AE6
:100DE000F4C0812FDD2319F00E94B51202C00E94C9
:100DF00010130E948713E9C08C2F837079F5D111ED
:100E0000E0C0412F429546954770440F440F212F73
:100E10002F70042E01C0220F0A94EAF714FF08C0B5
:100E20008FE090E001C0880F4A95EAF7809501C0F5
:100E300080E0C695C695C370822BC23049F058F445
:100E4000C13019F00E94B408BCC00E94AE08B9C0FD
:100E50000E94BA08B6C00E94AB08B3C0DD2319F0E7
:100E60008C2F817001C08695882309F4AAC0412F78
:100E7000429546954770440F440F212F2F70042E42
:100E800001C0220F0A94EAF714FF08C08FE090E037
:100E900001C0880F4A95EAF7809501C080E0C695A9
:100EA000C695C370822BC23049F058F4C13019F096
:100EB0000E94020986C00E94FC0883C00E940809A3
:100EC00080C00E94C3087DC0CF70DD2339F08C2F15
:100ED0000E94D708812F0E94030673C0812F0E94B1
:100EE0000A068C2F0E94E3086CC0123F21F128F4FF
:100EF000103F41F0113FC1F043C0133F19F1143FBF
:100F000079F03EC0DD2341F0053008F056C08C2F4B
:100F10008F710E94F00851C0063008F04EC0F7CF24
:100F20008091C40282FD18C0DD2339F08C2F8F71AF
:100F30000E94D70842C0DD23C9F38C2F8F710E9415
:100F4000E3083BC0DD2329F08C2F8F710E94CE086F
:100F500034C00E94CA0831C0DD2349F0CF718C2F04
:100F60000E94D70863E08C2F0E94430D26C081E0C9
:100F70000E94610D023008F182E00E94610D1DC0E7
:100F8000DD2331F0002391F2812F0E94550515C019
:100F9000002399F2193341F4FFEF27EE83E0F1507B
:100FA00020408040E1F704C0EFE3FCE93197F1F71E
:100FB00000C00000812F0E94AA0588EF8C0D8430AC
:100FC00020F40E94251A0E94F104DD2089F00E947D
:100FD000C60C80FD0DC0F70112820E94C00C0E9459
:100FE000D708C7010E9415080E94C00C0E94E308A0
:100FF000CDB7DEB7E8E00C94841F0F931F93CF9317
:10100000DF93EC01688179818A810E94B5098C01A6
:101010000E940E090E949C08B801CE010E94110690
:10102000DF91CF911F910F910895CF93DF93EC0142
:10103000988189812B813C81232B31F08F3F31F4C2
:1010400081E09F3F19F403C081E001C080E080FD92
:101050001AC0CE010E94A50381110FC00E94CA0CC4
:10106000882389F08A81882371F08091C40282FFED
:101070000AC082E00E94610D06C0CE010E94FD07F9
:10108000CE010E945203DF91CF91089580E090E05D
:101090000E944B1A80E090E00E94611A0E94F10CBD
:1010A0000E94150D0E94A0140E948713089580913C
:1010B0000001909101010E94BF1A0E944608089504
:1010C0000E94E10C0E945708089592959F709630F7
:1010D00079F010F4925001C09A50923068F4803F39
:1010E00069F018F4883E40F409C0843F29F406C032
:1010F000883E20F0813F11F080E0089581E008955E
:10110000FC01808191810E94AA090E9465080895CE
:10111000A5E0B0E0EEE8F8E00C946E1F2596E2E062
:101120000C948A1FA6E0B0E0E8E9F8E00C946E1F8A
:101130002696E2E00C948A1F089508950E949D0867
:1011400008950E949E0808950E94A1088093980126
:101150000E94460808950E94A4080895909198015D
:10116000892B0E94A40808959091980189230E94D8
:10117000A40808959091980189270E94A4080895D1
:101180000E949D0808950E94C008809397010E94C4
:101190004608089580E00E94C308089591E001C0C8
:1011A000990F8A95EAF7892F0E94C308089521E0D4
:1011B00030E001C0220F8A95EAF780919701822BD7
:1011C0000E94C308089521E030E001C0220F8A95F3
:1011D000EAF720958091970182230E94C308089521
:1011E00021E030E001C0220F8A95EAF78091970153
:1011F00082270E94C308089590919701892B0E942D
:10120000C30808959091970189230E94C308089507
:101210009091970189270E94C30808950895962FF9
:101220009770A1E001C0AA0F9A95EAF793E076952E
:1012300067959A95E1F7FB01EE0FFF1F6E0F7F1F79
:10124000FA01E60FF71F40E050E0682F70E0908150
:101250009B01042E02C0369527950A94E2F721706F
:10126000219529272A23292721934F5F5F4F433058
:10127000510569F708959B01782F777043E09695A3
:1012800087954A95E1F7FC01EE0FFF1F8E0F9F1F18
:10129000F901E80FF91F40E050E080E0219130E0D3
:1012A000072E02C0369527950A94E2F7217033275E
:1012B000042E01C0220F0A94EAF7822B4F5F5F4F82
:1012C0004330510559F70895282F911109C08530F1
:1012D00038F4862F622F70E044E951E00E940F0934
:1012E0000895911108C0853030F464E971E090E010
:1012F0000E943B09089580E00895CF92DF92FF920B
:101300000F931F93CF93DF936C010091970180910E
:101310009801082BC7E0D0E010E0C8010C2E02C0F5
:10132000959587950A94E2F780FD04C02197A8F768
:10133000F12C07C0FC2EB6018C2F0E943A100197A9
:10134000A9F38F2DDF91CF911F910F91FF90DF9027
:10135000CF900895CF93DF93EC010E947D09BE01E9
:101360000E943A10DF91CF9108951F93CF93DF939E
:10137000EB0190919301992321F0CB010E94AA09DE
:1013800013C0882349F0CB010E947D09182F682FD4
:10139000CE010E94640904C0CB010E947109182F7C
:1013A000BE01812F0E943A10DF91CF911F910895C5
:1013B0001F93CF93DF93C091990116E080919A011A
:1013C000C81799F0D0E01C9FF0011D9FF00D11246B
:1013D000E556FE4F40815181628173818481958100
:1013E0000E9492082196C770E9CFDF91CF911F919B
:1013F00008954091CB015091CC016091CD01709145
:10140000CE018091CF019091D0010E949208089561
:101410000F931F93CF93DF938091D00182958F70AC
:1014200009F05AC08091CD01882309F455C08091FC
:10143000990110919A016091CB017091CC01C091FA
:10144000CE01D091CF0191E06F3F09F090E0292FBC
:1014500006E0811709F440C0209721F07F3F21F07A
:1014600030E003C031E001C0322F90E030FD31C0E8
:10147000089FF001099FF00D1124DF01A556BE4F12
:1014800011963C911197371324C03C91361321C01B
:1014900012963C91129731111CC013964D915C919C
:1014A00014974C1B5D0B483C510598F48091D0017A
:1014B0008F7080618093D001E056FE4F80818F70E5
:1014C000806180838BEC91E00E9415080E94D8090E
:1014D00003C001968770BDCFDF91CF911F910F910F
:1014E0000895A1E1B0E0E7E7FAE00C94651F8C01F4
:1014F00085E0F801DE011D9601900D928A95E1F7D5
:10150000F801E2809091CB016091CC012091CE0155
:101510003091CF012115310531F06F3F31F481E079
:101520009F3F19F403C081E001C080E0F82FF17003
:101530009F2E80FD40C1F80140815181A380B4807D
:101540008BECC82E81E0D82EF090CD01F501E21B86
:10155000F30BFF2009F4DAC08091D001E83CF105DB
:1015600008F096C0282F207F09F053C0561313C0EF
:10157000491311C0FE2CE1100EC08F708061809362
:10158000D0010E94F909C6010E9415088091D0017E
:10159000F80185834DC1A114B10431F05F3F31F4EE
:1015A00081E04F3F19F403C081E001C080E080FD7D
:1015B00003C081E08E2502C080E090E0F82FF1703A
:1015C000FF2E80FF1CC08091990120919A0136E086
:1015D000821709F40BC190E0389FF001399FF00D9C
:1015E0001124E556FE4F6181561306C060814613F3
:1015F00003C06281E61203C001968770E9CFFE2C1A
:10160000EE2009F415C18091D00181608093D00152
:1016100054C0561306C0491304C0E11002C0F801BB
:1016200099C0C8010E948008882361F1EE2051F121
:101630002091D001822F82958F7090E0029774F0F4
:101640008091CB019091CC0198878F831986BB86BE
:10165000AA862C87CE0107960E94150886E0F8011D
:10166000ABECB1E001900D928A95E1F70E94080A77
:101670000E94F9090AC0561711F1C8010E9480089A
:1016800081112CC0C8010E941508FF24F394D0C01A
:10169000282F207F81F77A2DB98AA88A6E2D898913
:1016A0000E9488088BEC91E00E94150886E0F60104
:1016B00011928A95E9F70E94F909F12CB9C04913F2
:1016C000DCCFE110DACFF8018583C8010E9415084C
:1016D00086E0F60111928A95E9F7AAC0EE2091F210
:1016E0002091D001822F82958F7090E002970CF4A8
:1016F000B5CF8091CB019091CC019A8389831B82D5
:10170000BD82AC822E83CE010196A6CFE83CF105C6
:1017100008F044C0FE2CEE2009F4B4CF561330C0BC
:1017200049132EC02091D00120FD21C0822F829527
:101730008F70482F50E041155105C9F0F8012583FD
:101740004F30510541F08F5F982F9295907F822FF7
:101750008F70892B8583C8010E94150886E0F801E7
:10176000ABECB1E001900D928A95E1F73CC086E0C8
:10177000F801ABECB1E001900D928A95E1F758C009
:10178000C8010E948008811169CF8091D0018160D9
:101790008093D001C8010E9415084AC07A2DB98AE9
:1017A000A88A6E2D89890E94880886E0F601119228
:1017B0008A95E9F718C0EE2009F464CFC8010E94A9
:1017C0008008F82E882309F45DCF86E0F801ABECA1
:1017D000B1E001900D928A95E1F78BEC91E00E94C7
:1017E0004F050E94080A0E94F90922C04D875E87B2
:1017F0008D859E850E94AA09292F22952F7022305F
:1018000028F49F7039F0811105C00BC0243028F4F2
:101810009F7049F4805E883020F0C8010E9415084E
:101820009F2CF92C05C0F8019581907F99F7F9CF8D
:101830008F2D6196EBE00C94811FACE0B0E0E3E209
:10184000FCE00C946D1F4F83588769877A878B87DC
:101850009C87CE0107960E94710A8823D1F09F8150
:1018600088852A853B85232B31F08F3F31F481E039
:101870009F3F19F403C081E001C080E080FD47C0B4
:101880004F81588569857A858B859C850E94920851
:101890003EC086E0FE013796DE01119601900D9262
:1018A0008A95E1F7FF81E8856A857B856115710579
:1018B00031F0EF3F31F481E0FF3F19F403C081E0E4
:1018C00001C080E080FD23C020919A0130E0C90171
:1018D0000196877099274091990150E084179507E8
:1018E000F1F1F983EA837D836C8396E0929FD001C6
:1018F000939FB00D1124A556BE4FFE013196019065
:101900000D929A95E1F780939A010E94D80916E00A
:101910008091990190919A01891771F1189FC001E6
:10192000112485569E4F0E94710A882329F1E09167
:1019300099011E9FF0011124E556FE4F408151810F
:1019400062817381848195810E94920880919901BE
:1019500090E001968770992780939901D9CF0E94D2
:10196000600810929A0110929901EBECF1E086E088
:10197000DF011D928A95E9F72C96E3E00C94891F0C
:101980008091D10185958595859508958091D101A6
:10199000877008959091D101977081E009F480E0FB
:1019A00008958091DC0108959091DC01892B80934A
:1019B000DC01089580959091DC0189238093DC01FE
:1019C00008951092DC0108959091DB01892B80939A
:1019D000DB01089580959091DB0189238093DB01E1
:1019E00008951092DB0108958091D2010895089521
:1019F0000E94F70C08950E94F80C08959091C4027B
:101A000092FF08C09091D201981721F08093D201E3
:101A10000E94FB0C08958091D201882329F0109236
:101A2000D20180E00E94FB0C0895E0910001F0914A
:101A300001018091DC018083E0910001F0910101BE
:101A400090818091DB01892B80838091D201882352
:101A500081F0E0910001F09101019081892B808358
:101A600080910001909101010E94771A81110E94DA
:101A70000B0D80910001909101010E94321A08958E
:101A80000E94F70C08959091C40292FF11C098E053
:101A9000899F90011124262B2093D1010E94D70801
:101AA0008091D1018595859585950E94400D089579
:101AB0000E94D70808951092D10180E00E94400D45
:101AC00008952091D101809582238093D101982F90
:101AD000977099F430E0482F082E000C550B24170E
:101AE000350759F09091C40292FF07C085958595FE
:101AF00085950E94E3080E945B0D08959091C402B1
:101B000092FB222720F9281769F080FB92F9909325
:101B1000C4028091C3029091C4020E94D30D82E05E
:101B20000E94610D08958091C40282FB882780F98C
:101B300091E089270E947E0D089581E00E947E0D2C
:101B4000089580E00E947E0D08956FEF7FEF80E0A2
:101B500090E00E94E21F089580E090E00E94BE1F86
:101B6000883E9E4F19F40E94AE14089580E00895B7
:101B700082E090E00E94B61F089583E090E00E940A
:101B8000B61F0895CF9384E090E00E94B61FC82F3F
:101B900082E290E00E94B61F2C2F30E0A901582B62
:101BA000CA01CF910895CF93C92F682F84E090E0A8
:101BB0000E94C41F6C2F82E290E00E94C41FCF914C
:101BC0000895AB01BC018FE090E00E94D61F0895FC
:101BD000AB01BC0183E190E00E94D61F089560E054
:101BE00070E0CB010E94E80D089560E070E0CB0149
:101BF0000E94E10D0E94EF0D089568EE7EEF80E0F7
:101C000090E00E94E21F60E082E090E00E94C41F2A
:101C100060E083E090E00E94C41F1092980160E0B1
:101C200084E090E00E94C41F64E082E290E00E94A1
:101C3000C41F60E085E090E00E94C41F60E086E081
:101C400090E00E94C41F6FEF87E090E00E94C41FE5
:101C500040E050E0BA0188E090E00E94D61F60E0CA
:101C60008DE090E00E94C41F40E050E0BA0188E19E
:101C700090E00E94D61F60E087E190E00E94C41FC0
:101C800040E050E0BA018CE190E00E94D61F60E095
:101C900070E080E290E00E94E21F40E050E0BA0174
:101CA00088E190E00E94D61F80E00E94C7140E9445
:101CB000FC140E94F50D08950E94FD0D0895682FF3
:101CC0008EE090E00E94C41F08950E945E1B609306
:101CD000E6017093E7018093E8019093E901609336
:101CE000E2017093E3018093E4019093E50108958C
:101CF0000E945E1B6093E6017093E7018093E80108
:101D00009093E9016093DE017093DF018093E0011D
:101D10009093E101089581E008950E948B0E08954B
:101D200008950E94900E08950E94900E08950E94BA
:101D3000940E08950E94900E08950E949A0E0895A0
:101D40000E94900E089586E191E10E941B1A0E9464
:101D5000A00E0E949D0E08950E94910E0E94900E6A
:101D600008950E9432110E94F00408950E94491BB8
:101D70000E940C150E94C2110E94B10E0E94AC1864
:101D80000E94970E0895AAE0B0E0E9ECFEE00C9402
:101D9000691F0E94CE11D82E81110E94650E80E02D
:101DA0000E944D11F82EE090DD01E82689F48FEFB6
:101DB00089838A831B820E94521B8160782F9D83B6
:101DC0008C8349815A816B818D810E940E052CC0C4
:101DD0008091EA0181FD0E94531100E011E08E2DF7
:101DE0008123E9F00E948D0E882399F00E831F82D3
:101DF000F12281E009F480E088870E94521B816013
:101E0000782F9A8789874E815F8168858A850E94AD
:101E10000E058091DD0118271093DD0105C00F5FCD
:101E2000110F0530E1F6C3CF81E0D11001C080E091
:101E30002A96E7E00C94851F0E94C30E0E94C918E1
:101E400081110E94780E0E94A6130E940305089536
:101E5000CF93DF930E943F10EC01811521E592079B
:101E600008F045C0811530E5930708F094C0883E1E
:101E7000910528F5803E910508F0F8C0883A910553
:101E800070F4853A910508F07CC08130910509F421
:101E900075C008F4E8C0049708F0E8C0E4C08F3BC0
:101EA000910508F0E0C0C85AD0E0CC0FDD1FC75B39
:101EB000DE4F0990D881C02DCE019464D8C0811521
:101EC00040E2940758F4811551E0950708F0CEC020
:101ED000803F910508F4C7C09065C9C0C11580E472
:101EE000D80708F4C0C0DF70CE01906AC0C0811569
:101EF00025E59207A8F4811534E5930708F095C00D
:101F0000811543E5940708F07BC0811552E59507DC
:101F100008F061C0D82FCC27CE01816F906AA7C08E
:101F2000C11589E5D807A0F4C11528E5D20708F046
:101F300082C0C11536E5D30708F095C08C2F0E94EA
:101F4000D3108F7190E0D82FCC27CE0190628FC034
:101F5000C1154AE5D40708F474C0CE019056811526
:101F6000904208F080C08D2F8F710E94D310DD2722
:101F7000D0628F71AE01582BCA0179C081E090E028
:101F800076C0C55AD0E0C958DE4F8881C82FD0E04E
:101F9000CE0190646CC074E0969587957A95E1F7D0
:101FA000282F23703C2F337081E090E002C0880F0F
:101FB000991F3A95E2F79C68AC01522B9A019C2F2D
:101FC0009F709695969550E2959FE0011124C90166
:101FD0008C2B9D2B4CC08370992721E030E002C0F0
:101FE000220F331F8A95E2F79C2F9695969580E2F3
:101FF000989FE0011124C22BD32BCE019C6837C0DF
:102000008370992721E030E002C0220F331F8A95A8
:10201000E2F79C2F9695969540E2949FE00111245B
:10202000C22BD32BCE019A6822C0D82FCC27CE0149
:10203000846F906A1CC0DC2FCC27CE01806F906A21
:1020400016C08C2F8F700E94D31094E0D695C79540
:102050009A95E1F7CF70D0E0DC2FCC27D0699E01B4
:10206000282BC90104C080E090E001C0CE01DF91BF
:10207000CF9108950E94F2170E94280F0895823888
:10208000910569F1B0F48133910509F46DC048F40C
:102090008932910509F463C08A32910509F469C057
:1020A00008958533910509F455C089339105B9F038
:1020B0000895833E910569F138F4803E9105B1F0B1
:1020C000823E910509F10895863E9105A9F1873E6A
:1020D0009105B9F1843E910509F064C023C02091B7
:1020E000C30220FD4FC021FD4DC008958091C30261
:1020F00080FD44C08091C40280FF44C08091C3022F
:1021000084FD42C083EE4DC08091C30282FF38C07F
:10211000F5CF8091C30282FD33C08091C40280FD5F
:1021200031C0ECCF8091C40281FF32C08091C302E4
:1021300084FD2AC087EE35C08091C30283FF26C08C
:10214000F5CF8091C30283FD21C08091C40281FD3F
:102150001FC0ECCF8091C30285FD1CC01DC08091C3
:10216000C30285FD19C016C08091C30286FD16C04A
:1021700017C08091C30286FD13C010C089E311C04F
:1021800082EE0FC080EE0DC080E00BC086EE09C06D
:1021900084EE07C089E205C085E303C08AE201C07E
:1021A00081E390E008959091C30292FF0DC0282F23
:1021B0002871283019F4877F846006C0282F247185
:1021C000243011F48B7F886093FF0DC0282F287175
:1021D000283119F4877E846106C0282F24712431A8
:1021E00011F48B7E88612091C40220FF0DC0382F2E
:1021F0003871383019F4877F816006C0382F31710B
:10220000313011F48E7F886021FF0DC0282F287196
:10221000283119F4877E816106C0282F2171213170
:1022200011F48E7E886194FD877E089580E0089584
:102230000E94A50D08950E94CE118FE39CE901979D
:10224000F1F700C000000E94CE1180E00E944D1105
:1022500080FF04C00E9418110E949F1B08950E94D5
:102260001B1108950E94AC0D811102C00E945C0EEA
:102270000E94B80D8093EA010E94C20D9093C4029F
:102280008093C3020E942F110E94BD0D0E94AB08D3
:10229000809197010E94C0080895E82FF0E0EA536A
:1022A000FD4F80810895089508950E945411089566
:1022B0000E94551108950E94541108950E945B11C7
:1022C0000895CF93DF93AAE7B1E06FE771E041E0B3
:1022D00050E08D918F3F31F46A177B07D1F7DF9182
:1022E000CF910895E82FE295EF70F0E021A18F7073
:1022F000EA0102C0CC0FDD1F8A95E2F7CE019C2FC8
:102300009095922391A392A1892B82A3E5CF0F935D
:102310001F93CF93DF93EC01062F10E085E0689FB9
:10232000B001112440E050E0B1E0A0E0CA01860F06
:10233000971F86589E4FFC0190819F3FA1F0292F47
:1023400022952F7030E0F90120A130E09F7002C08B
:10235000359527959A95E2F720FD02C08B2F02C094
:1023600080E090E0A82BBB0F4F5F5F4F45305105D9
:10237000E9F6F801EC0FFD1FA083DF91CF911F91CB
:102380000F9108950E9461111092C6021092C50229
:1023900081E00E94F3110E9486030895A1E0B0E05D
:1023A000E4EDF1E10C946D1F198260E0CE0101961D
:1023B0000E9487119091C502898111E0981301C094
:1023C00010E098138093C502212F41E066EC72E083
:1023D00085EC92E00E94F4110E948903812F2196DE
:1023E000E3E00C94891F0895FF920F931F93CF93FE
:1023F000DF938C01F62ED72FC42F222349F081E0E2
:102400008093ED010E94521B9093EC018093EB01AD
:102410008091ED018823C1F08091EB019091EC0156
:102420000E946A1B059780F0EF2DFD2FD8014C2FDD
:1024300050E0CD01801B910B841795071CF48D9102
:102440008193F7CF1092ED01CDB7DEB7E5E00C94A4
:10245000871F0E94CF1B0E94B60E0E94E01B0895AA
:102460000E94EF1A0E94BF1B0E94A30E0E94291215
:102470000E94EE1B0E94AC0EFBCF8091F40180FF06
:1024800006C06091070170E0660F771F26C081FFCC
:1024900004C06091070184E005C082FF07C060911D
:1024A000070188E0689FB001112417C09091F301E3
:1024B0009923D1F060910601961788F720910701C2
:1024C00088E0289F90011124929FA001939F500DB6
:1024D000112470E0CA010E943D1F6038710540F46C
:1024E0006115710519F406C068E070E0862F089543
:1024F0008FE7089581E008958091F40180FF08C07E
:102500006091030170E0759567957595679521C099
:1025100081FF06C06091030170E07595679519C051
:1025200082FF04C06091030170E010C09091F2013D
:10253000992399F0609102019617A0F78091030109
:10254000899FC001112470E00E943D1F6038710511
:1025500040F46115710519F406C061E070E0862F42
:1025600008958FE7089581E00895803F21F40E9447
:102570003D12819504C0813F29F40E943D12809351
:10258000F8010895823F21F40E943D12819504C014
:10259000833F29F40E943D128093F7010895893FFB
:1025A00019F40E947C1205C08A3F31F40E947C120B
:1025B00081958093F90108958B3F21F40E947C124C
:1025C000819504C08C3F29F40E947C128093FA010B
:1025D00008959CE0980F953078F421E030E0A9014F
:1025E00002C0440F551F9A95E2F7CA019091F60177
:1025F000892B8093F60108958D3F21F48091F40199
:1026000081600BC08E3F21F48091F401826005C08F
:102610008F3F29F48091F40184608093F401089540
:10262000803F39F49091F80197FF35C01092F8017E
:1026300059C0813F29F49091F8011916BCF32BC0C1
:102640009091F701823F29F497FF25C01092F7017E
:1026500049C0833F19F41916CCF31DC09091F901BC
:10266000893F29F41916BCF41092F9013BC08A3F46
:1026700019F497FF10C0F8CF8B3F39F49091FA010D
:1026800097FF09C01092FA012DC08C3F21F4909160
:10269000FA011916BCF39CE0980F953080F421E004
:1026A00030E0A90102C0440F551F9A95E2F7CA0114
:1026B00080959091F60189238093F60113C08D3F98
:1026C00021F48091F4018E7F0BC08E3F21F4809124
:1026D000F4018D7F05C08F3F29F48091F4018B7F39
:1026E0008093F4018091F701811106C08091F80177
:1026F000811102C01092F3018091F901811106C08D
:102700008091FA01811102C01092F20108950E9495
:10271000521B2091F701211104C02091F8012223BE
:1027200021F09093F1018093F0012091F9012111A2
:1027300004C02091FA01222321F09093EF018093AD
:10274000EE0185EF91E00E943D1A0895A6E0B0E009
:10275000ECEAF3E10C946D1F86E0E5EFF1E0DE01B9
:10276000119601900D928A95E1F71092F70110925F
:10277000F8011092F9011092FA018B81811104C0C5
:102780008C81882309F45FC08091F0019091F10160
:102790000E946A1BAC019091F301992339F02091BA
:1027A000080130E02417350758F04DC02091090189
:1027B0008AE0289F900111242417350718F043C0A0
:1027C0009F3F19F09F5F9093F3011B81112361F0EC
:1027D0000E943D12111614F09FEF01C091E0989FE6
:1027E000902D11249093F7011C81112361F00E9418
:1027F0003D12111614F09FEF01C091E0989F902DAB
:1028000011249093F8013091F7013323E1F02091E6
:10281000F8012223C1F045EB3403C00111249923B0
:1028200019F09093F70103C081E08093F70135EB35
:102830002303C0011124992319F09093F80103C0D8
:1028400081E08093F8018D81811104C08E818823FD
:1028500009F45FC08091EE019091EF010E946A1B24
:10286000AC019091F201992339F02091040130E0FC
:102870002417350758F04DC0209105018AE0289FA4
:10288000900111242417350718F043C09F3F19F019
:102890009F5F9093F2011D81112361F00E947C12D1
:1028A000111614F09FEF01C091E0989F902D112414
:1028B0009093F9011E81112361F00E947C12111680
:1028C00014F09FEF01C091E0989F902D11249093F8
:1028D000FA013091F9013323E1F02091FA0122232A
:1028E000C1F045EB3403C0011124992319F09093F2
:1028F000F90103C081E08093F90135EB2303C001A6
:102900001124992319F09093FA0103C081E0809378
:10291000FA01BE016F5F7F4F85EF91E00E94C61AFA
:1029200081110E94871386E0FE013196A5EFB1E088
:1029300001900D928A95E1F72696E3E00C94891FA9
:10294000E5EFF1E086E0DF011D928A95E9F710924C
:10295000F3011092F2011092F401089583E290E0E5
:102960000E94B61F823281F484E290E00E94B61F7A
:10297000863051F485E290E00E94B61F91E08930E4
:1029800009F090E0892F01C080E081700895CF9315
:10299000C82F811102C06FEF01C062E283E290E0B4
:1029A0000E94C41FC11102C06FEF01C066E084E243
:1029B00090E00E94C41FC11102C06FEF01C069E026
:1029C00085E290E00E94C41FCF910895089586E2A9
:1029D00090E00E94B61F682F70E080E090E00895BC
:1029E0000895CF93C62F0E94F0146C2F86E290E0DA
:1029F0000E94C41FCF91089580E00E94C71460E038
:102A000070E0CB010E94F1140E948B170E944718BE
:102A100081E00E94C71408950E94E6140E94E71402
:102A20000E94F0140E94AE14811102C00E94FC1496
:102A30000895CF93FB01C281CC23E9F09C01225180
:102A40003F452031310520F482510E9457180CC0B7
:102A50008031FFE59F0751F481E00E94D70843E0F1
:102A600062E081E00E947C03C0E018C081319F4594
:102A7000A9F482E0F2CF8031EFE59E0711F481E006
:102A800004C081319F4549F482E00E94E30843E09D
:102A900062E081E00E947C0301C0C1E08C2FCF91F5
:102AA00008952FEFFC01208308951F93CF93DF93A8
:102AB000EC01162FE8818E2F90E0FC013197E33175
:102AC000F10508F082C0E05CFF4F0C94511F1982A1
:102AD00089E088C08981823041F0833009F47FC069
:102AE0008130B1F40E945E1B02C00E94E7149A83F9
:102AF0008B837C836D836BC08981823049F46A81CA
:102B00007B818C819D810E94571F0E94F1145FC0C0
:102B1000612FCE010E9451155AC04B816A81898173
:102B20000E944F179C838D8352C02C813D81322798
:102B3000232732274B816A8189810E94701747C001
:102B40000E948B1744C00E94001823C00E940218E4
:102B5000998348C06B8170E089819A81AE014C5F96
:102B60005F4F9827892798270E94051830C06B81EE
:102B700070E089819A81AE014C5F5F4F9827892769
:102B800098270E94271823C00E94471820C00E943F
:102B90003C1789831CC06B8170E089819A81AE01EA
:102BA0004C5F5F4F9827892798270E94B2170FC064
:102BB0006B8170E089819A81AE014C5F5F4F9827ED
:102BC000892798270E94D31702C08FEF8883612F2F
:102BD000CE010E94E11CDF91CF911F91089580E00A
:102BE0000E944D118A83F3CFCF93DF93EC01FB0159
:102BF0008281882309F43CC1C330FDE5DF0760F41E
:102C0000CA3F9CE5D90788F49E0122503C452431F7
:102C1000310508F02EC109C0C136EDE5DE0729F007
:102C2000C53AFDE5DF0709F024C10E94C20D90936B
:102C3000C4028093C302C1318CE5D80709F4C6C031
:102C400008F042C0C930ECE5DE0709F49BC000F58E
:102C5000C5308CE5D80709F485C078F4C330ECE5BD
:102C6000DE0709F478C008F07AC0C230DC4509F00C
:102C7000F5C08091C3028160EFC0C7309CE5D907E1
:102C800009F478C008F07AC08091C3028061E4C082
:102C9000CD30FCE5DF0709F487C058F4CB309CE564
:102CA000D90709F479C008F07BC08091C30288601D
:102CB0006FC0CF30FCE5DF0709F480C008F082C0A8
:102CC0008091C302877FC8C0CD3F9CE5D90709F436
:102CD00071C000F5C531FCE5DF0709F485C068F473
:102CE000C3319CE5D90709F475C008F095C00E946E
:102CF00060088091C3028F77AFC0CB3FFCE5DF0750
:102D0000A9F108F054C0CA3FDC4509F0A7C0809182
:102D1000C40240C0C130EDE5DE0709F489C058F4B3
:102D2000CF3F8CE5D80709F45AC008F069C08091FC
:102D3000C40282602FC0C136EDE5DE0709F47CC015
:102D4000C53AFDE5DF0709F481C0C230DD4509F071
:102D500085C080E06EC08091C30282607DC080919A
:102D6000C30216C08091C302886076C08091C402FD
:102D700082604FC08091C30280626EC08091C302A6
:102D800080646AC00E9460088091C302806864C049
:102D9000846062C081603DC08091C3028E7F5CC050
:102DA0008091C3028D7F58C08091C30216C080916C
:102DB000C40218C08091C4028D7F2BC08091C302D1
:102DC0008F7E4AC08091C3028F7D46C08091C3022E
:102DD0008F7B42C08091C302877F8B7F3DC08091F3
:102DE000C4028D7F8E7F15C08091C30282FB222793
:102DF00020F991E0922790FB82F990FB83F92CC097
:102E00008091C402982F909591708E7F892B90FBB2
:102E100081F98093C40222C00E9460088091C3029D
:102E200087FB222720F991E0922790FB87F914C0B5
:102E300081E00E945F0E12C08091C30284FB2227B2
:102E400020F991E0922790FB84F906C08091C3029B
:102E5000982F909590FB80F98093C3028091C302D4
:102E60009091C4020E94D30D0E94600880E001C0CE
:102E700081E0DF91CF91089582E0089550E0440F02
:102E8000551F2AE0629F400D511D11249A016AE0EE
:102E9000869F200D311D1124C901879608950F9337
:102EA0001F93CF93DF938230A0F4611112C045309D
:102EB00080F40E943E178C010E94B61F90E0D82F2C
:102EC000CC27C80101960E94B61F9E01282BC9017C
:102ED00002C080E090E0DF91CF911F910F910895A3
:102EE0000F931F93CF93DF93823080F461110EC054
:102EF000453060F4E9010E943E178C016D2F0E945D
:102F0000C41F6C2FC80101960E94C41FDF91CF918E
:102F10001F910F910895FF920F931F93CF93DF930B
:102F2000F12C00E010E0C0E0D0E0FE01E00FF11F66
:102F3000EE0FFF1FEA55FF4F259134914C2F60E0B3
:102F40008F2D0E9470172196C530D10571F70B5F48
:102F50001F4FF39482E0F812E6CFCDB7DEB7E5E07D
:102F60000C94871FEF92FF920F931F93CF93DF93E1
:102F7000EA017A01E60EF71E8C01C8018796CE158C
:102F8000DF0561F00431110520F40E94B61F88832B
:102F900001C0188221960F5F1F4FEFCFCDB7DEB76C
:102FA000E6E00C94861FEF92FF920F931F93CF934E
:102FB000DF93EA017A01E60EF71E8C01C8018796BD
:102FC000CE15DF0551F00431110518F468810E9417
:102FD000C41F21960F5F1F4FF1CFCDB7DEB7E6E0DC
:102FE0000C94861F823048F4711107C0653028F4B4
:102FF000462F60E00E944F17089580E090E008950A
:1030000080E1089585EC93E00895EF92FF920F938D
:103010001F93CF93DF93EA017A01E60EF71E8C012E
:10302000C801CB96CE15DF0569F0053C23E01207F9
:1030300020F40E94B61F888301C0188221960F5F7A
:103040001F4FEECFCDB7DEB7E6E00C94861FEF92B0
:10305000FF920F931F93CF93DF93EA017A01E60E5D
:10306000F71E8C01C801CB96CE15DF0559F0053C43
:1030700023E0120718F468810E94C41F21960F5F95
:103080001F4FF0CFCDB7DEB7E6E00C94861FCF938D
:10309000DF93CBE3D0E060E0CE010E94C41F219615
:1030A000C11584E0D807B9F7DF91CF910895A4E066
:1030B000B0E0EDE5F8E10C94691FF82E8FE08F1574
:1030C000E8F18FEF93E00E94B61F811137C00BE348
:1030D00010E0FF2069F0011584E0180779F1C801BC
:1030E0000E94B61F811101C0FA940F5F1F4FF1CFEC
:1030F00019821A821B821C82DD24D39478018FEFFF
:10310000E81AF80AC8010E94B61F89831A82882328
:10311000A9F09FEF980F933058F48A83D9820E5FFD
:103120001F4FC7010E94B61F8B83882339F0780197
:10313000CE0101960E94CF048701E0CF2496E7E0FC
:103140000C94851F8FE891E00197F1F700C0000013
:1031500008950E94ED02089581E08093FC0121987A
:10316000299A22982A9A0E94A2183091FC01EEEF27
:10317000F1E090E0931761F083B1869581701A9920
:1031800002C020E001C022E0822B81939F5FF2CF3A
:103190000895A0E0B0E0EFECF8E10C94681FF12C8A
:1031A000E12C84E0C82ED12C8091FC01F81608F0A7
:1031B00050C00F2D10E0E3B1E695E1701A9902C0FE
:1031C00080E001C082E08E2BD801A250BE4FEC916E
:1031D0002E2F237030E0482F082E000C550B24179B
:1031E0003507A9F1EE0FEE0FE82BEC93EF70F0E04E
:1031F000E158FE4FE801C350DE4F90818881890F6E
:103200008883843064F0F801E550FE4F80818F5F41
:10321000808360E08F2D0E94A91821E001C020E08A
:1032200088818D3F5CF4F801E550FE4F808181502C
:10323000808361E08F2D0E94A91821E08881082EEB
:10324000000C990BB6010E943D1F8883E22AF3947B
:10325000ABCF8E2DCDB7DEB7E8E00C94841FCF93B3
:10326000DF9386319C4541F5EB010E94D10C982FEC
:103270008A812091000130910101882379F09A7AA6
:1032800081E009F480E08093FF01911102C069E2BE
:1032900001C065E3C9010E94B91A0AC08091FF010B
:1032A000811102C069E201C065E3C9010E94BC1A34
:1032B0000E94150D80E001C081E0DF91CF9108955B
:1032C0000F931F93CF93DF93C42FD22FFC018281E2
:1032D0008823B1F0409302020E94521B9093010296
:1032E0008093000280E28C0F883008F04DC0C770D8
:1032F00081E001C0880FCA95EAF70E94030644C026
:1033000080910202481330C0809100029091010226
:103310000E946A1B883C910538F510E21D0FCD17FD
:10332000B9F080E28C0F883040F4C77081E001C0B2
:10333000880FCA95EAF70E940A06183010F581E056
:103340009D2F977001C0880F9A95EAF70E94030697
:10335000802F0E94F9051830B8F4D77081E001C0C1
:10336000880FDA95EAF70AC080E28C0F883060F4A3
:10337000C77081E001C0880FCA95EAF70E940A066B
:1033800003C0802F0E94F905DF91CF911F910F910B
:1033900008950F939C01CB01233F4CE5340731F195
:1033A00088F4283DFCE53F07D9F0293D4CE534077A
:1033B00079F1273D3C45A9F506E221EE41EE67EDA6
:1033C0007CE52BC0253FFCE53F07E1F0A8F0263F58
:1033D0003C4539F507E225EE46EE66EF7CE51DC07B
:1033E00007E225EE45EE68ED7CE517C006E221EE2A
:1033F00040EE63EF7CE511C007E225EE44EE64EF9A
:103400007CE50BC006E221EE42EE65EF7CE505C0EF
:1034100008E221E045EE69ED7CE50E94601980E05C
:1034200008C0FC018281882319F01092020201C0B9
:1034300081E00F91089590939101809390010895F8
:1034400090930802809307020895E0910702F0919B
:103450000802309729F00190F081E02D0995089538
:1034600080E00895E0910702F0910802309721F082
:103470000280F381E02D09950895E0910702F09113
:103480000802309739F022E0DC012C930480F581AA
:10349000E02D099508952091050230910602281724
:1034A000390771F09093060280930502E0910702BC
:1034B000F0910802309721F00680F781E02D099500
:1034C000089520910302309104022817390771F002
:1034D0009093040280930302E0910702F0910802A6
:1034E000309721F00084F185E02D09950895FC01C5
:1034F000329697E080E0915029F021912223D9F370
:103500008F5FF9CF0895662349F0FC013296089643
:103510002191621729F0E817F907D1F780E00895A3
:1035200081E008959C01FC0132969FEF80E041917B
:10353000461789F09F3F19F4411101C0982F8F5F02
:103540008630A9F79F3F39F0F901E90FF11D97FD8A
:10355000FA956283089508959C012A5F3F4FFC010C
:103560004281461301C01282019682179307B9F770
:1035700008950E94921A08950E94AC1A0895029626
:1035800026E0FC0111922A95E9F7089546E050E003
:103590000E94A91F21E0892B09F420E0822F0895C1
:1035A00008950E94D01A08950E94D11A08950E9489
:1035B000D01A08950E94D01A08950E94D01A089532
:1035C0000E94DA1A0E94CE110E94D71A80E00E944F
:1035D0004D1191E0811101C090E0892F0895089567
:1035E0001F920F920FB60F9211248F939F93AF9358
:1035F000BF9380910902811113C08091C7029091FD
:10360000C802A091C902B091CA024196A11DB11D84
:103610008093C7029093C802A093C902B093CA02D4
:10362000BF91AF919F918F910F900FBE0F901F9000
:10363000189580910C02882331F10E9401041092A8
:10364000090220E488E190E00FB6F894A8958093F1
:1036500060000FBE2093600083B7817F846083BFCA
:1036600083B7816083BF7894889583B78E7F83BF4B
:103670000FB6F894A89580916000886180936000EF
:10368000109260000FBE08950E9460080E94060418
:10369000089582E084BD93E095BD9AEF97BD809335
:1036A0006E0008952FB7F8948091C7029091C802D8
:1036B000A091C902B091CA022FBF08952FB7F89404
:1036C0006091C7027091C8028091C9029091CA02AC
:1036D0002FBF08959C014FB7F8948091C702909135
:1036E000C802A091C902B091CA024FBF821B930BBE
:1036F000089578941F920F920FB60F9211248F9312
:103700009F93AF93BF938091C7029091C802A091FD
:10371000C902B091CA020196A11DB11D8093C702D2
:103720009093C802A093C902B093CA02BF91AF910F
:103730009F918F910F900FBE0F901F90189598E05A
:1037400088E10FB6F894A895809360000FBE90931F
:103750006000A895F894D8E0CEEF28E3299320E004
:10376000299314BEFFCF089598E088E10FB6F8942E
:10377000A895809360000FBE90936000FFCF0E94D9
:10378000521B90930B0280930A0290E080E80FB6E0
:10379000F89480936100909361000FBE08950E9499
:1037A000221F539A80E0815041F0A895EFE9FFE095
:1037B0003197F1F700C00000F6CF53987894089540
:1037C0000E94171D0E94201A2FEF80E792E02150DF
:1037D00080409040E1F700C0000008958091F2021F
:1037E000882389F01092F2020E94521B90930B02E0
:1037F00080930A0280910C028823D1F110920C026E
:103800000E94441B11C080910C02811111C0809153
:103810000A0290910B020E946A1B069728F081E031
:1038200080930C020E94191B80910C02882301F1E5
:103830000E94191B0E94E01A882391F1F8942AB182
:103840005B9A822F8C608AB99BB18CE098279BB9D8
:103850003FE748E391E0315040409040E1F700C03D
:1038600000009BB189278BB92AB95B987894089599
:103870000E942B1E8091F802882329F08091D602A5
:1038800084FD0E941C0F0E94881C0E942B1E8091A8
:10389000F802882329F08091E20284FD0E940B1D2A
:1038A00008958091C202089508959091120298138C
:1038B00007C0209110023091110226173707A9F096
:1038C00080931202709311026093100280930D0294
:1038D00070930F0260930E0280910F0384FF05C066
:1038E00063E08DE092E00E94211E0895BC0184E017
:1038F0000E94551C0895BC0183E00E94551C089548
:1039000020910F0324FF03C066E00E94211E08954A
:10391000CF93DF93CAE0D0E08091D60284FF18C035
:1039200080913F02909140029817E1F028E0829F39
:10393000C001112468E08F5B9D4F0E941C1E809186
:103940003F0290E001968F70992780933F020AC052
:103950000E942B1E8FE99FE00197F1F700C0000045
:103960002197D1F6DF91CF910895CF93DF93EC01AA
:10397000A0914002B0E0CD0101968F70992720916F
:103980003F02281779F093E0AA0FBB1F9A95E1F741
:10399000AF5BBD4F98E0FE0101900D929A95E1F763
:1039A000809340020E942B1E0E94881C88E0FE012A
:1039B000A7E3B2E001900D928A95E1F7DF91CF91F4
:1039C00008950F931F93CF93DF93EC016032F1F4CE
:1039D0008C01005E1F4F8091E20284FD03C00E94B3
:1039E0002B1EF9CF68E0CE010E94261E28960C17E8
:1039F0001D0789F78091E20284FD03C00E942B1EFF
:103A0000F9CF60E080E090E00E94261EDF91CF9128
:103A10001F910F91089580911602803239F460E26F
:103A200087E192E00E9455151092160208958AE0EF
:103A300091E00895FC01808180768032A1F581813A
:103A4000813061F484819581892B69F587E392E067
:103A50009093F4028093F30288E00895823041F459
:103A600081EC92E09093F4028093F30281E0089558
:103A70008A3021F483818093C10215C0893099F482
:103A8000828193818115924081F484819581892B73
:103A900061F481E0809315028681978190931402EE
:103AA0008093130202C080E008958FEF0895209163
:103AB000130230911402232B71F020911502213052
:103AC00051F4FC0180818093C20210921402109282
:103AD000130281E008958FEF0895683019F0109275
:103AE0001602089520911602A22FB0E0A931B10567
:103AF000B4F7FC01A95EBD4F089631913D93E817DC
:103B0000F907D9F7285F209316020895FC019381E5
:103B10009330D9F068F4913081F0923009F068C0A8
:103B20008AE691E09093F4028093F3028BE5089586
:103B3000913251F19232E1F15BC085EC91E09093CA
:103B4000F4028093F30282E1089582818130A1F032
:103B500058F0823009F04CC087ED91E09093F40268
:103B60008093F30280E1089587E092E09093F4025D
:103B70008093F30284E0089589EE91E09093F4023B
:103B80008093F3028CE108958281813049F028F01E
:103B9000823071F585EB91E005C08CE791E002C0C1
:103BA00085E991E09093F4028093F30289E008950F
:103BB000848195818130910599F050F00297C1F48C
:103BC0008DE292E09093F4028093F3028BE70895E4
:103BD00088EA92E09093F4028093F30280E40895DF
:103BE0008BE092E09093F4028093F30282E20895D6
:103BF00080E008951F93CF93DF93162FEA01288169
:103C000024FF05C0398128E82327298302C02AE53B
:103C10002883212FFC01CE010296DC0131913D93D6
:103C200021501216DCF3612F0E94A8011C5F18833B
:103C3000DF91CF911F91089546ED52E00E94FA1D49
:103C400008954FE053E00E94FA1D089542EE52E0BD
:103C50000E94FA1D0895CF93DF936091F50263509F
:103C600067FD93C08091F102CCE0D0E0C81BD10980
:103C7000C750DD4F8091F002803120F4CE010E94C8
:103C80006D1D81C08D3209F06EC0683009F07BC0B7
:103C900083EC8093CB028AE5809317011092EF02A8
:103CA0008881807621F0CE010E941A1D49C09A8138
:103CB0001092D4028981811106C01092D50224EDA0
:103CC00032E082E038C0853019F49093F60230C0BB
:103CD0008630A1F48B81813041F0823031F0833025
:103CE00021F0813211F0823221F4CE010E94861D32
:103CF00001C080E090E49093EF0222C0883089F008
:103D0000893019F49093F80213C08A3069F08B302F
:103D100079F48BE48093D702809310038093E302BD
:103D200007C028EF32E002C024ED32E081E003C09A
:103D300024ED32E080E03093F4022093F30209C0D6
:103D40008F3F39F4988197FD8E8190E89093EF0230
:103D500007C09F81911104C09E81981708F4892F94
:103D60008093160110C08091EF0287FF0CC0CE0136
:103D70000E94571D8F3F21F48EE18093170103C0ED
:103D80008111109216011092F5028091170184FFA3
:103D90004CC0809116018F3F09F447C0C82F89306D
:103DA00008F0C8E08C1B809316019091CB0288E844
:103DB00089278093CB02CC2359F18091F302909113
:103DC000F4022091EF0226FF12C0ABECB2E02C2FE0
:103DD000AC014B5C5240FA01EA0FFB1FE4911196D3
:103DE000EC931197215011962111F5CF08C0ECECFE
:103DF000F2E0DC012C2F3D9131932150E1F7019647
:103E00002FEF2C0F820F911D9093F4028093F302F9
:103E10006C2F8CEC92E00E94A801CC5FCC3019F0A2
:103E20008FEF80931601C093170184E199B19C70C4
:103E300031F48150D9F71092F6021092EE02DF9120
:103E4000CF910895CF93DF93E9E6F0E08081886019
:103E50008083E99AC6EDD2E08BE48983AFE0B3E0DA
:103E600011968C931197E2EEF2E081838AE58883C4
:103E70008C938083DF91CF91089597FB072E16F4E2
:103E8000009407D077FD09D00E94951F07FC05D04C
:103E90003EF4909581959F4F0895709561957F4F61
:103EA0000895EE0FFF1F0590F491E02D0994692706
:103EB0009627692778278727782708952F923F929A
:103EC0004F925F926F927F928F929F92AF92BF922A
:103ED000CF92DF92EF92FF920F931F93CF93DF93D6
:103EE000CDB7DEB7CA1BDB0B0FB6F894DEBF0FBE33
:103EF000CDBF09942A88398848885F846E847D8480
:103F00008C849B84AA84B984C884DF80EE80FD8081
:103F10000C811B81AA81B981CE0FD11D0FB6F894F7
:103F2000DEBF0FBECDBFED010895AA1BBB1B51E143
:103F300007C0AA1FBB1FA617B70710F0A61BB70B19
:103F4000881F991F5A95A9F780959095BC01CD01BE
:103F50000895FB01DC0104C08D910190801921F4CA
:103F600041505040C8F7881B990B0895F999FECF2E
:103F700092BD81BDF89A992780B50895A8E1B0E077
:103F800042E050E00C94EA1F262FF999FECF92BD33
:103F900081BDF89A019700B4021639F01FBA20BD0E
:103FA0000FB6F894FA9AF99A0FBE08950396272F40
:103FB0000E94C51F0E94C41F252F0E94C51F242FC9
:103FC0000C94C51F0196272F0E94C51F0C94C41F77
:103FD000DC01CB01FC01F999FECF06C0F2BDE1BDC9
:103FE000F89A319600B40D9241505040B8F70895B8
:043FF000F894FFCF73
:103FF400D301280850011E0A1401511CB51C801C51
:104004007B1C761C541CFF5AE200E900EA00B50050
:10401400B600B700CD008301CC008A01920194015F
:104024002102230224022502260227022A02B300C7
:10403400B4006F007000818283E200E900EA00B5F9
:1040440000B600B700CD008301CC008A0192019430
:10405400012102230224022502260227022A02B396
:1040640000B4006F00700081828360616263640049
:10407400FF0100010000FFFF0000010001FF00003C
:00000001FF
